S018000062746D6573682D446F6F724D6F64756C652E73333732
S21400000000000120A11600009D1600009D160000AD
S2140000109D1600009D1600009D1600009D1600000F
S2140000209D1600009D1600009D1600009D160000FF
S2140000309D1600009D1600009D1600009D160000EF
S214000040151C00009D1600009D1600009D16000061
S2140000509D1600009D1600009D1600009D160000CF
S2140000609D160000D1170000B11800009D16000074
S214000070FD4B00009D1600009D160000F950000084
S2140000809D1600009D160000D11800009D16000069
S2140000909D1600009D1600009D1600009D1600008F
S2140000A09D1600009D1600009D1600009D1600007F
S2140000B09D1600009D1600009D1600009D1600006F
S2140000C09D1600009D1600009D1600009D1600005F
S2140000D09D1600009D1600009D1600009D1600004F
S2140000E09D1600009D1600009D1600009D1600003F
S2140000F09D1600009D1600009D16000010B5054CCC
S214000100237833B9044B13B10448AFF300800123BE
S214000110237010BD001100200000000098F80400B5
S214000120084B10B51BB108480849AFF300800848D3
S214000130036803B910BD074B002BFBD0BDE8104089
S214000140184700BF0000000098F8040004110020C3
S2140001504410002000000000154B002B08BF134B76
S2140001609D46A3F5803A00218B460F461348144A55
S214000170121A44F003FB0F4B002B00D098470E4B8F
S214000180002B00D098470020002104000D000D48E9
S214000190002802D00C4847F0BDFB43F0F5FE2000D7
S2140001A0290000F007FD43F0DFFE00BF0000080056
S2140001B000000120000000000000000000110020E8
S2140001C0B86C002015790400718B04002DE9F0430B
S2140001D0214D0378214F83B0014600260A2B0C469A
S2140001E009D00BB907E01BB114F8013F0A2BFAD16E
S2140001F0621AD2B242B923780A2B24D02146002BA9
S214000200ECD103B0BDE8F08395F82690286895F801
S214000210253095F824C097F800E0B0F800800E4826
S214000220019612FB0CFC4B4403FB0E935FFA8CFE0C
S214000230DBB2CEEB080E0093CEF3470304F0C6F80D
S21400024023780A2BDAD13A78637801323A70611C47
S214000250002BC3D1D5E700BF201100204C11002091
S21400026038B5054604F07EFA00B1FEE703F090FECE
S21400027000B1FEE7084C204603F056FF034600B1E7
S214000280FEE76FF07F42204604496360A26004F0F8
S214000290E5F8034B1D6038BD2011002070B6040041
S2140002A01C11002010B50446084803F069FF084AF0
S2140002B0084B106800221A70FFF788FF2046FFF7E9
S2140002C085FFBDE8104003F09FBE00BF2011002050
S2140002D01C1100204C110020704700BF704700BF63
S2140002E0704700BF30B5094B87B000241D780094D6
S2140002F00146234602AA4FF480508DF809508DF827
S214000300084005F0E7F907B030BD00BF40120020F6
S21400031030B5094A87B00023D578009301460124FA
S21400032002AA41F206008DF809508DF8084005F043
S214000330D1F907B030BD00BF40120020062805D016
S214000340072800D07047022007F024B8012007F0E5
S21400035021B800BF10B504210A460520002303F08B
S2140003600BFB0520014604220023BDE8104003F0E5
S21400037003BB00BF10B50446FFF7B4FF00B110BDC5
S214000380024621464FF48050BDE8104005F0E4B91F
S21400039070B50F4C0346B8B0013904EB411038ADC8
S2140003A0194644F0DFFA002305F8E03D04F1E006C4
S2140003B02146284644F0FCFA20342846054944F0F5
S2140003C0F7FAB442F4D12846FFF76CFF38B070BD98
S2140003D06011002020B2040010B50E4C0E492068B3
S2140003E044F20403042283808271073044F0C8F884
S2140003F021680A4841F8040B06F072FF084B1B6898
S214000400998809B9084610BD064844F009FA4FF025
S214000410FF3010BD141E00204012002020070D02E1
S214000420181E002008AD04002DE9F04389B0234DC6
S214000430119E2348BDF840809DF850400F46A9788D
S214000440914644F0EDF97178AB788B4231D01D4877
S21400045044F0E6F97378AB70FFF7BEFF04F00202D3
S21400046002F0FF037AB9AD7800933946072404AA50
S21400047041F204008DF811508DF8104005F02AF96D
S21400048009B0BDE8F083002004ABAD78009301907E
S2140004900290039039464A464346072441F2040038
S2140004A08DF811508DF8104005F0C8F809B0BDE879
S2140004B0F083054844F0B4F9D0E700BF40120020AE
S2140004C03CAD040094AD040068AD04002DE9F04393
S2140004D0244C89B0E078BDF84080119D9DF850709E
S2140004E00E469146E0B1204B2049012808BF194628
S2140004F01F4844F095F96B78E2789A422ED08BB973
S2140005001C491D4844F08CF96B78E370FFF764FFD4
S214000510BB070DD43046FFF7FBFE09B0BDE8F083FD
S2140005201449E5E7104A1149012B08BF1146E8E7D0
S214000530002004ABE57800930190029003903146CA
S2140005404A464346012441F206008DF811508DF8C4
S214000550104005F073F809B0BDE8F083074844F092
S2140005605FF9D5E740120020ACAE0400B4AD04003D
S214000570BCAD0400A0AE0400E8AD040068AD040005
S2140005802DE9F04F8BB0434F1598BDF85C5090F8AE
S21400059001E0414E059391462B46169A3F48BDF81A
S2140005A050809DF860B03E4C8A46BEF1000F14BFE6
S2140005B03946314644F034F9DDF814C03948494626
S2140005C04346624644F02CF9159B597823788B42B3
S2140005D05CD0002914BF39463146334844F020F930
S2140005E0169B03B95DB3159B30485B786370062194
S2140005F0FFF7CEFE16992E4B2E4A1B682E480D444A
S214000600ED031946A2FB0525AD09012237265D60DC
S2140006101E725A7241F8040B06F062FE29462748FD
S21400062044F0FEF8FFF7D8FE0023E3701BF0020F3D
S21400063014D15046FFF756FE0BB0BDE8F08F159B61
S2140006405B7823706370F3B11D4B1E481021202287
S214000650196006211A60FFF79BFEE3E7002506A84F
S21400066024780090019551464A46434602950395E4
S2140006704FF480508DF819408DF8185004F0DEFFC6
S2140006800BB0BDE8F08F104B1048DFE7104844F081
S214000690C7F8CBE7ACAE0400A0AE040004AE04007E
S2140006A04012002044AE04007CAE0400B0AE04004D
S2140006B0141E0020D34D621020060C00C4AE0400A9
S2140006C0FCA00046A4AE0400FCA0004498AE0400C3
S2140006D068AD040010B5104C104A637810491148F4
S2140006E02370002B08BF114644F09AF8237883B194
S2140006F00D4B0E482022102119601A600621FFF7C4
S21400070047FEFFF769FE0A4BBDE810401888FFF762
S21400071031BE084B0848EDE740120020A0AE0400AA
S214000720ACAE0400D8AE0400FCA00046A4AE0400A4
S21400073022000020FCA0004498AE040070B582B0F1
S21400074001F09AF801240026062123460A46009660
S2140007500194052003F0B8F8094D009607210A46D3
S21400076023460194052003F0AFF82946062001F041
S21400077091F82946072002B0BDE8704001F08AB81B
S2140007803D0300002DE9F0412B4B2C4F1B78002237
S2140007909B1A86B018BF01238DF805308DF804200B
S2140007A03B7810B90133DBB23B70254E25483278D2
S2140007B004682549DFF8A0E009882373013A02EBB4
S2140007C0820202EB82025500002341F2010C012254
S2140007D00220ADB2A4F804C0E18020816381637377
S2140007E0A373E3732374E37423756375A2750DF125
S2140007F00501A4F8115004F11700DEF8008043F05C
S214000800BFFE2146114841F8040B06F069FDB8F812
S214000810041051B10E4844F003F83378084A0BB17F
S214000820013B137006B0BDE8F081397809482A46C6
S21400083043F0F6FFF1E700BF5412002058110020E5
S21400084044120020141E00202200002020141E0146
S21400085000AF040038AF0400181E0020F8B5524C54
S214000860524F00210422204643F088FF3B68504840
S214000870194644F204029A8041F8040B06F030FD53
S2140008804C4B1B689E882046002E40F08580D91D64
S2140008909A7943F075FEE578012D6BD04CD3022D86
S2140008A01ED1454843F0BCFF227863789A4252D066
S2140008B0A07804F0BFFC0446404843F0B1FF3B6814
S2140008C03F4A4048E403A2FB04241946A4093725FE
S2140008D001225C601D725A7241F8040B06F000FD9E
S2140008E0FFF77AFD384843F09BFF0021374A384B24
S2140008F0384C4FF4805004F01BFE0021364A374B2C
S21400090041F2070004F014FE0021354A354B41F24F
S214000910040004F00DFE2088FFF72CFD24882046F6
S214000920FFF7F6FC00B1F8BD214641F206000122B1
S214000930BDE8F84004F010BF2B4843F071FF2B4B86
S21400094026701021202266702948196006211A6038
S214000950FFF71EFDC4E7274843F062FF2378C3B1C4
S214000960254B264810212022196006211A60FFF721
S2140009700FFDB5E7224843F053FF1F4B25701021AB
S214000980202265701D48196006211A60FFF700FDD9
S214000990A6E7164B1648E5E70021042243F0EEFED4
S2140009A0184843F03DFFA0E740120020141E002028
S2140009B020020D03181E0020C8AF0400E8AF040094
S2140009C0D34D621020060C0024B004008105000000
S2140009D0D902000022000020CD040000DD02000045
S2140009E029040000E102000090AF0400FCA00044CF
S2140009F098AE04000CB00400FCA00046A4AE0400B0
S214000A00ACAF040060AF040038B5134C0146134881
S214000A10217043F005FF2378CBB9114843F000FF5F
S214000A20104B032200201A70FFF7ACFE0E4B0F4847
S214000A301B6840F2666519460A2400225D601C7237
S214000A405A72BDE8384041F8040B06F049BC084825
S214000A5043F0E6FEE4E700BF5412002044B0040072
S214000A6064B0040044120020141E002020060C006F
S214000A705CB004000020704708B50021E02206485C
S214000A8043F07CFE0548FFF7EBFB05480321BDE875
S214000A900840FFF77DBC00BF601100206CB004006A
S214000AA084B0040030B587B0037842781D4901A8A9
S214000AB043F058FF01AA1C491C4843F0B1FE01A8A8
S214000AC044F06AF9C4B2FB2C11D9194B1B684FF4D9
S214000AD0C5719980174843F0A3FE13480121FFF71C
S214000AE057FC01A80221FFF753FC07B030BD124D9A
S214000AF0286800230322C3800472828001A922464C
S214000B00093043F03DFD0D4829682402204441F891
S214000B10040B06F0E5FB064B1B6899880029DCD021
S214000B20D8E700BF94B00400BCB00400A0B0040036
S214000B30181E0020C8B00400141E002020050A025B
S214000B4038B51548154C43F06BFE15480321FFF7E2
S214000B501FFC144B1B78FF2B07D02268124813711A
S214000B60114641F8040B06F0BBFB21680F4841F81C
S214000B70040B06F0B5FB23680D4819464FF4803584
S214000B804D2401225D601C725A72BDE8384041F85F
S214000B90040B06F0A5BB00BF08B10400141E00201D
S214000BA018B104002000002020010B0220000D01D7
S214000BB020060C002DE9F04F87B003F053FD03F03C
S214000BC0A3FDB548B54CB64DDFF8788302F0F8FFC4
S214000BD004F0F2F9B34807F007F90EF085F90EF0C5
S214000BE0A1F90EF07BF90EF03FF90EF067F90EF062
S214000BF05FF90EF03FF90EF089F90EF04DF90EF0A0
S214000C0079F90EF03DF900F031FD04F023F8FFF716
S214000C10A1FB012213460520062102F0ADFE0122AB
S214000C2013460520072102F0A7FEFFF725FF04F074
S214000C3031FA04F04BFA02AF06F00AFD016821F41F
S214000C407F4121F00701A142814600F0A08215D81D
S214000C50954B994200F0648225D9944B994200F056
S214000C60478240F21983924B994271D003F5740380
S214000C70994226D18F4843F0D3FDDDE7A94200F024
S214000C80A08222D9414555D039D98B4B994200F0E4
S214000C907A8203F18073994213D1884843F0C0FDED
S214000CA0FFF74EFFC8E7A3F59813994200F04C8172
S214000CB003F50023994200F0B080A3F598139942FB
S214000CC071D07F4843F0ACFDB6E77E4B994200F00A
S214000CD08F8203F57403994240F0D6827A4843F037
S214000CE09FFD7A4B7A4999F80C201B780A70774A50
S214000CF07848013304211370FFF74AFB9CE7764BD4
S214000D009942DED18188754843F08AFD74480321F4
S214000D10FFF73EFB734B1968734B4FF480324A6003
S214000D204E220A7201224A72184641F8043B06F027
S214000D30D7FA81E790F804E06C4B6D49B0F80520CF
S214000D406C48BEF1000F18BF194643F069FD73E703
S214000D50694B6A496A484FF000090822A3F80090D8
S214000D6004F0C0FBFFF77AFD634B6648198843F032
S214000D7057FD5C4B5C481B6819464222C3F804903A
S214000D8083F809901A7241F8040B06F0A9FA5E4B34
S214000D905E4820221021196003211A60FFF7F8FA36
S214000DA0FFF7CCFC48E75A4B1B68002B3FF478AFA4
S214000DB0584B1B68002B3FF473AF4A4B56481968D4
S214000DC041F8040B06F08CFA544B18680430FFF711
S214000DD069FE444B52481B680322DA8006221A72C8
S214000DE000229A7204221946DA7201221A719A8136
S214000DF002225A715A7241F8040B06F071FA394B06
S214000E0048481B6819464FF6D4629A8041F8040B8E
S214000E1006F066FAFFF79EFA0EE7434843F000FD39
S214000E2099F80430002B00F07882B9F80510D9F84C
S214000E3007203E4843F0F4FC99F8061099F8053070
S214000E4043EA01233A490B802B4B00221A80FFF716
S214000E5075FC2A492A48082204F044FBFFF7FEFCEA
S214000E60344B354A1978354B3548002914BF11469E
S214000E70194643F0D5FC25480321FFF789FA194B9C
S214000E8028481B6819464FF6D4629A8041F8040B2E
S214000E9006F026FAD0E600BF00040140A0000103D9
S214000EA0A0001406D0AC0400A0001F00A00008019B
S214000EB0A00014014CB50400A000140998B5040065
S214000EC0BCB50400A000140414B504004D120020A4
S214000ED02000002040B50400A0001407CCB3040096
S214000EE0ECB30400141E002020060C0038B10400E9
S214000EF030B1040088B4040022000020E93F04005A
S214000F00D93F0400A8B30400FCA00044C8B1040004
S214000F10982114429C21144220000103181E002030
S214000F20200A14052002010A68B104007CB10400FE
S214000F304E11002040120020ACAE0400A0AE04000B
S214000F40A8B10400A000140803790A3B442B3FF61E
S214000F5073AE01A252F823F0C3100000390C000053
S214000F60390C0000390C0000390C0000390C000068
S214000F70390C0000390C0000390C0000390C000058
S214000F80390C0000390C0000390C0000390C000048
S214000F90390C0000B9100000390C0000390C0000B4
S214000FA0390C0000390C0000390C0000390C000028
S214000FB0390C0000390C0000390C000099100000B4
S214000FC0390C0000390C0000390C0000390C000008
S214000FD0390C0000390C0000390C0000390C0000F8
S214000FE0390C0000390C0000390C0000390C0000E8
S214000FF0390C0000390C0000390C0000390C0000D8
S214001000390C0000390C0000390C00009310000069
S214001010390C0000390C0000390C0000390C0000B7
S214001020390C0000390C0000390C0000390C0000A7
S214001030390C0000390C000083100000390C000049
S214001040390C0000390C0000390C0000390C000087
S214001050390C0000390C0000390C0000390C000077
S214001060390C00006D1000006D100000B94B1968B7
S214001070B94B00220A71184641F8043B06F072F993
S214001080DAE5B64B10212022C3F80811C3F8082170
S214001090D2E5FFF71FFBCFE5B149B24BB2480022BD
S2140010A00A7010221A6020221A600621FFF770F9D3
S2140010B0AE4843F0B5FBBFE5AD480721FFF768F93A
S2140010C0BAE50120FFF75EFBAA4B1B78002B7FF4E6
S2140010D0B3ADA04ADFF8C0E21268114653605372FF
S2140010E00A231372704641F804EB06F0F9F8A3E5FC
S2140010F08188A14843F094FBA04BA1481B789F49E8
S214001100FF220270002B3FF497AD013BDBB20B7061
S214001110002B7FF491AD96480421FFF739F98BE553
S214001120984843F07DFB984B93F800A0BAF1000F67
S21400113040F0F080954BDFF854B21B78002B00F09F
S2140011400181484604F02EFA06219148FFF720F95F
S214001150904843F065FB0120FFF756FC7D4B19686D
S2140011608D4B4FF420224A6023220A7201224A72D3
S214001170184641F8043B06F0B3F88BF800A0824A04
S2140011800123137058E5854843F04AFB54E543684D
S2140011901E0700F1CD81D80600F19681990600F170
S2140011A05E811A0600F126815B067BD472B67C4B04
S2140011B01A687C4B1B6823EA02037A4A136062B6FD
S2140011C03AE5794843F02CFB78480321FFF7E0F82E
S2140011D0604B1968704B4FF400524A6042220A7204
S2140011E000224A72184641F8043B06F079F823E5D7
S2140011F06F4899F8041099F8052043F011FB99F808
S214001200063073B109F1060B4FF0000A69481BF867
S214001210011F43F005FB99F806300AF1010A9A45CA
S214001220F4DB654843F0FCFA99F8063063499944C4
S2140012304FF0000E99F8043099F8050099F806204A
S214001240C7F800E01B0443EA002302AF1A433846FF
S214001250CDF80CE0CDF810E08DF814E043F082FBFA
S21400126038460721FFF794F83A4B4B481B684FF473
S21400127020225A60194619221A7201225A7241F81F
S214001280040B06F02DF8D7E403F17D4303F57B034A
S21400129099427FF416ADCFE4A3F5A02399423FF41C
S2140012A0CBAC0EE503F090FF454B46491B78DFF8C4
S2140012B010A10122042B0A7000F26D81DFF8309134
S2140012C0414843F0ADFA99F80030022B04D199F862
S2140012D00130032B00F088812C4A394E3B4800230E
S2140012E0137019460422337043F048FA384843F026
S2140012F097FA38480621FFF74BF81D480521FFF7F7
S21400130047F872B6264B264A1B6843F04003136024
S21400131062B64BE700221A708EE42F4843F080FA3C
S21400132003212E48FFF734F82D4843F079FA094B8D
S21400133019682C4B03220A71184641F8043B05F045
S214001340CFFF79E428480621FFF722F8274843F024
S21400135067FA14E7141E00202001010100A00040D7
S21400136040120020FCA0004444B1040050B1040028
S214001370B8B004004412002078B504004D120020D6
S21400138020000020F8B30400501100205512002061
S21400139030B4040040B4040020060C00A8B40400D6
S2140013A05C1100205411002080B3040098B30400A0
S2140013B0C0B404000CB50400E4AF040004B5040097
S2140013C04C12002048000020E8B20400481200201A
S2140013D044B3040064B30400D4B10400ECB10400C8
S2140013E0FCB104002001140158B404006CB40400DD
S2140013F05012002003F0E8FE8C4B8D491B78DFF876
S2140014002CA20122032B0A7000F2DA8089480421FC
S214001410C1540A464FF0000E8749ADF808E038463A
S21400142043F0A0FA3946854843F0C2FA83480521BE
S214001430FEF7AEFF82489AF8001043F0F1F99AF8EA
S214001440003001338AF8003072B67E4B7D4A1B6846
S21400145043F08003136062B6D9F80430A4E603F0C4
S214001460B3FE724B72491B78DFF8C0A10122032B32
S2140014700A7000F2AA806F480321C1540A464FF052
S214001480000E6D49ADF808E0384643F06BFA394671
S2140014906A4843F08DFA69480521FEF779FF6A48E5
S2140014A09AF8001043F0BCF99AF8003001338AF835
S2140014B0003072B6634B634A1B6843F02003136028
S2140014C062B6D9F804306CE603F07EFE574B5849F6
S2140014D01B78DFF858A10122032B0A707AD85548EA
S2140014E00221C1540A464FF0000E5349ADF808E0F9
S2140014F0384643F037FA3946504843F059FA4F48D1
S2140015000521FEF745FF51489AF8001043F088F988
S2140015109AF8003001338AF8003072B6494B494ACF
S2140015201B6843F01003136062B6D9F8043035E642
S21400153003F04AFE3D4B3E4A19789A4603294FF07F
S214001540010313704BD83B481A4643544FF0000E25
S2140015503949ADF808E0384643F004FA39463748CA
S21400156043F026FA35480521FEF712FF38489AF868
S214001570001043F055F99AF8003001338AF800302D
S21400158072B6304B2F4A1B6843F00803136062B6EE
S214001590D9F80430FFE52F4B2F484FF000090521FE
S2140015A083F800908AF80090FEF7F2FE494604227F
S2140015B0224843F0E3F829480621FEF7E9FEA0E6B4
S2140015C027480521FEF7E4FE3EE725480521FEF7FD
S2140015D0DFFE6EE722480521FEF7DAFE9DE720488B
S2140015E00521FEF7D5FECBE799F80220012A7FF405
S2140015F073AE99F803B0BBF1040F7FF46DAE1549D6
S21400160018480A7000238AF80030019343F008F95E
S214001610019B5A461946484643F0B0F8019B0748D6
S21400162019465A4643F0AAF80F4863E64C120020C3
S214001630480000205012002024B204004812002067
S214001640BCB204005C11002090B2040064B2040036
S21400165028B2040055120020B8B0040074B3040089
S21400166054B204001CB3040034B3040030B50A4D71
S2140016700FCD87B001AC0FC42B6823604FF0FF304E
S21400168001A921F042FB20B94FF0FF30012121F0E3
S21400169036FB07B030BD00BFD0B50400FEE700BF84
S2140016A008B500F06DF8094A094B9A420CD2D043AF
S2140016B0184420F00300074B0430184453F8041B6A
S2140016C042F8041B8342F9D1FEF746FD00000020D5
S2140016D048100020F4FA04000048704700F0490261
S2140016E00F4BD3F8943003F00703032B14D0042BCE
S2140016F00FD0022B0AD00B4B1868094BD3F80031D9
S214001700C3F304230133B0FBF3F07047064B1868AD
S214001710F3E7064B1868F0E74FF40040EDE700BF2C
S21400172000400E403000002028000020240000204A
S21400173008B5FFF7D5FF054B054AD3F80831C3F3C4
S21400174008230133B0FBF3F0106008BD00400E40E4
S2140017502C000020014B1868704700BF28000020AE
S214001760054A064B1060D3F8943003F00703022BAB
S21400177000D07047FFF7DCBF2800002000400E4076
S214001780034AD2F8883043F47003C2F888307047B2
S21400179000ED00E04FF40040704700BF4FF47A7051
S2140017A0704700BF014B1868704700BF2400002038
S2140017B0054A064B1060D3F8943003F00703042B59
S2140017C000D07047FFF7B4BF2400002000400E4052
S2140017D02DE9F8431A4B1A6ED96E11EA02081DD489
S2140017E0184C194F99460126002516EA080F0CD00A
S2140017F02368C9F8686028463BB1A1686268013171
S214001800A1609847637B012B09D00135082D4FEA6C
S214001810460604F11004E8D1BDE8F883FEE707EBBE
S214001820451303F1080218330028EED1117960F34E
S214001830410111711A7960F341021A71E5E700BFA0
S21400184000200E4058120020D812002070B5044622
S21400185078B1084E012594FAA4F0B0FA80F056F854
S214001860203005FA00F224EA020403B19847002C5F
S214001870F1D170BDD8130020054B4FF480214FF4F2
S2140018808062C3F880111960C3F880211A6070471F
S21400189000E100E038B504460D4601F065FB034B59
S2140018A043F82450BDE8384001F062BBD81300204E
S2140018B0064AD2F82804D2F81C1445F255530840BC
S2140018C01840C2F82404FFF7C1BF00BF00A00040C4
S2140018D0064AD2F82804D2F81C144AF6AA2308406E
S2140018E01840C2F82404FFF7B1BF00BF00A00040B4
S2140018F008B5034B1B6803B19847012008BD00BF1D
S2140019001814002038B5194D2B68044613B19847B3
S21400191000B938BD631E032B05D8DFE803F00B16AD
S2140019201E0201F0F5FD6B68204613B1984720466D
S21400193038BD38BD0E4A136923F00403136130BF67
S2140019406B682046002BF1D1F3E7002001F0B2FCD3
S2140019506B682046002BE9D1EBE7002001F0C4FCC1
S2140019606B682046002BE1D1E3E700BF201400207F
S21400197000ED00E00C4A0D4B70B50D4C10600D4D9F
S214001980616000221A705A70256002F057F8C3038F
S21400199000D470BD02F04CF86368002BF9D0042028
S2140019A0BDE87040184700BF181400201C14002023
S2140019B020140020F11800002DE9F041184D01F028
S2140019C0CBFA2B78804613B901F0BAFC2B78154F6A
S2140019D0002483B96B78002B14BF02200320FFF786
S2140019E091FFBB6806460BB198470446E30704D54B
S2140019F02B78002BEED00120F1E7B31EDBB2012BD3
S214001A0005D9404601F0ACFA3046BDE8F08101F059
S214001A109BFC404601F0A4FA3046BDE8F08100BFCA
S214001A201C14002020140020831EDAB2012A00D9DC
S214001A3070470549CA5C022802F10102CA54F7D170
S214001A40024B01221A6070471C1400200400C64393
S214001A500238C3B2012B00D97047064B1A5C2AB96C
S214001A601B78002BF8D1044A13607047013A1A54C9
S214001A70F6E700BF1C1400200400C643054B1A7886
S214001A802AB95B78002B14BF022003207047012080
S214001A90704700BF1C140020DFF8D0C0304BF0B5F4
S214001AA0DCF8007038683C461A1D03F1280E52F820
S214001AB0041C39B118B11E792579AE4202D9084600
S214001AC01F461C460833734502F10802EFD1CCF8D6
S214001AD0007000283ED0234BDA6922F0FF02DA615C
S214001AE0DA6921790A43DA611A6B42F080421A6396
S214001AF0DFF87CC01C4BDCF8007038683C461A1DCA
S214001B0003F1280E52F8041C39B118B11E79257954
S214001B10AE4202D208461F461C460833734502F101
S214001B200802EFD1CCF8007070B10E4BDA6922F4DF
S214001B307F42DA61DA69217942EA0122DA611A6BB8
S214001B4042F000421A63F0BD064A136B23F00043CE
S214001B501363F0BD034A136B23F080431363C7E798
S214001B604414002000300E406C1400202C1400207A
S214001B703C14002038B5224C226B636A134020D4F4
S214001B805B001AD51F4B1868056895B1002108221E
S214001B9042F0F4FD226A1C491C4B0868D2B2D200FF
S214001BA083FB0223A0EB530000F3070040B20121A1
S214001BB0A847134B4FF08042DA62BDE83840FFF783
S214001BC06BBF134B1868056895B10021082242F0D8
S214001BD0D5FD226A0C490D4B0868D2B2D20083FBB1
S214001BE00223A0EB530000F3070040B20021A847F1
S214001BF0034B4FF00042DA62BDE83840FFF74CBFB7
S214001C0000300E402C1400203014002067666666F4
S214001C103C140020FFF7AEBF1F4B204810B5002134
S214001C20282201241C7042F0A9FD002128221C480D
S214001C3042F0A4FD1B4A1C481C491D4B03600B6068
S214001C401368526DC3F30743FF2B0ED0D2B2FF2AA0
S214001C500AD01848D100A0FB010103EB830002EB79
S214001C60D00203EB910301E013469F22124C134966
S214001C70134822604FF040420360CA620B6B114A61
S214001C80012023F040430B63C2F880011060FFF789
S214001C9003FF002010BD00BF941400204414002051
S214001CA06C140020B081E00F2C1400203C1400209F
S214001CB034140020CDCCCCCC4014002000300E4094
S214001CC03014002000E100E0F0B4274B274C284DEC
S214001CD0466B002A1ABF1D4610270027A04201D0D7
S214001CE0F0BC7047022908D01CD9062931D08129BA
S214001CF003D003292BD000230DE01E4A1168136879
S214001D00126803F00F0301F4FE4043EA000102F0FC
S214001D10F0030B43BB4005EA0602144913434B632A
S214001D20F0BC704789B10129E5D1134B18681A68D1
S214001D301968C1F303510B01C0F3066043EA0021A2
S214001D40C2F303430B43BB40E5E70B4AD6E7094B18
S214001D50ECE70A4A1368116803F00F0201F0F0037B
S214001D601343BB40D7E700BFFFFF008000200040C2
S214001D700080FFFF1482E00F1082E00F1882E00F51
S214001D80F8B50C4602238978836000220546FFF7E3
S214001D909BFF667821796379E778E079320642EA34
S214001DA0012242EA034343EAC70308B143F0005363
S214001DB0227A0AB143F00403A2790AB143F002037F
S214001DC0627A0AB143F00103F329A07820D0020614
S214001DD027D443EA40132B616B6923F4F21323F0F4
S214001DE007032078E27A43EA40430AB143F480438B
S214001DF0A07A6B616A016D01F32902F1844205F154
S214001E0084450CBF012300239060C5F84036F8BD1A
S214001E100028DCD1032EDCD823F0706242F0806309
S214001E20D7E743F0E0022A616A6922F4F21220F052
S214001E30800322F007021343D3E700BF38B50F4BE9
S214001E40984205460ED8B0F5FA4F14D247F6FF442E
S214001E504FF4FA4551B10819B0FBF5F008B1013856
S214001E60C0B238BD1D46064C0029F4D1054800F026
S214001E70E7FA0146EFE7441EECE700BF0024F40053
S214001E80FF23F4004041050070B50C46C9780546AE
S214001E90E9B1114B1B682078627826790A23AB607B
S214001EA0A3781B04090242EA006203F4FE0301F46D
S214001EB0FE4042EA030101430EB141F0100107481B
S214001EC0074B62792960C02101601A6070BD054821
S214001ED0FFF7B4FF0146DEE7002000400020004484
S214001EE0002000460024F40008B550B1084B00F569
S214001EF0742000F23F20A3FB0030800C0138C0B2F3
S214001F0008BD044800F09CFA0028EFD108BD00BFC9
S214001F1083DE1B4340410500154BF0B541F6713298
S214001F20144D1E6C1A645B682A46002314798C4292
S214001F3002F108020ED00133052BF7D14FF04071A5
S214001F400B4A536823F040730B43536076B100236B
S214001F501364F0BD55F83340DFF818E084424FEACA
S214001F60C307E8D377447B791906E9E7F0BD00BFDD
S214001F7000000E4000B60400224B98423AD01AD910
S214001F80214B98423AD00CD8204B984225D003F5E6
S214001F90371303F5D86398422AD11D4BD3F8A00017
S214001FA070471C4B984214D01B4B984220D1184BBC
S214001FB0D3F8B0007047194B984215D011D9184B7A
S214001FC0984211D0174B984212D1114BD3F88C007F
S214001FD070470F4BD3F8AC0070470D4BD3F89C00FE
S214001FE07047114B984203D1094BD3F880007047D5
S214001FF000207047064BD3F898007047044BD3F880
S214002000A8007047405DC60080BA8C010024F4002A
S214002010B081E00F0048E80180D5430280841E00AE
S21400202000093D00C0CF6A0040420F0008B5FFF728
S21400203053FB0021BDE80840FFF76EBF0C4A0D4B6E
S214002040D2F89010516A21F0300141F0100110B41E
S2140020505162146BC0F3C311033123400F2928BF0C
S2140020600F21034343EA017313635DF8044B704783
S21400207000400E4000F8FF0FFFF74EBF334B98426C
S2140020805BD01AD9324B98425BD00CD8314B984271
S2140020903AD003F5371303F5D86398423FD12E4B59
S2140020A0D3F8001116E02D4B984229D02C4B9842BD
S2140020B035D1294BD3F810110CE02A4B98422AD080
S2140020C026D9294B984226D0284B984227D1224B16
S2140020D0D3F8EC10264B274A18601368002BFCD167
S2140020E0204B98421DD0204B984221D0224B98423C
S2140020F003D121F0C06141F08061204B99617047A7
S214002100154BD3F80C11E5E7134BD3F8FC10E1E7B9
S214002110194B984203D1104BD3F8E010DAE70021B0
S214002120D8E721F0C061154B41F000719961704706
S214002130124B21F0C06199617047074BD3F8F81035
S214002140C8E7054BD3F80811C4E700BF405DC600DA
S21400215080BA8C010024F400B081E00F0048E8014A
S21400216080D5430280841E0000093D00C0CF6A006F
S214002170340000206428C84340420F0000400E4050
S214002180C0F30323013B30B4092B13D8DFE803F078
S214002190251D121221272A120523144D4FF48034D0
S2140021A0134AD2F84431DB07C0F3043004D5284480
S2140021B08000016030BC7047D2F840311C42F6D037
S2140021C0D2F840311C42F7D1F1E70A4DC0F3043093
S2140021D0EDE7094DFAE7094DF8E7094DF6E7094D31
S2140021E00124DDE7084D1024DAE700BF8007F2106F
S2140021F000400E400006F2108005F210800AF21031
S2140022000000F2100007F2104007F210C0F30313AC
S214002210013B062B45D8DFE803F0171D23292F3591
S21400222004002A4B984247D003F5B01303F58053B9
S214002230984236D1264BD3F82831C3F30123043312
S2140022400120984001387047214BD3F80001C0F3B5
S214002250042070471E4BD3F81401C0F304207047C7
S2140022601B4BD3F80001C0F300607047184BD3F83F
S2140022700C01C0F308207047154BD3F80801C0F3D3
S21400228008207047134B98420DD0134B984208D144
S2140022900F4BD3F820310120C3F3011398400138C7
S2140022A07047002070470A4BD3F82031012003F016
S2140022B00F03984001387047054BD3F828310120AA
S2140022C0C3F3011398400138704700BF701716001B
S2140022D000400E406006140060162A0008B5FFF79E
S2140022E095FF013008BD00BF00F00F000138072839
S2140022F047D8DFE800F0121D3346283E4604264B3A
S214002300D3F85C3103F03003202B40D0302B40D084
S214002310102B0CBF0720012070471F4BD3F89430BA
S21400232003F00703023B022B2FD81C4AD05C7047F1
S214002330194BD3F8803003F00703013B042B22D857
S214002340174AD05C7047144BD3F8883003F0070365
S214002350013B042B17D8134AD05C70470E4BD3F8BA
S214002360843003F00703013B042B0CD80E4AD05CE4
S2140023707047094B1B6F13F0010F14BF092007208D
S21400238070470020704701207047052070470420E2
S21400239070470820704700BF00400E40FCB50400A0
S2140023A0E4B50400F4B50400ECB5040010B504462A
S2140023B0FFF79AFF1E4B9C421DD01E4B9C4214D02A
S2140023C01D4B9C420BD0013804282FD8DFE800F0C4
S2140023D0032A19260300BDE81040FFF7DBB9174BA8
S2140023E0D3F8800000F00700EDE7144BD3F8880020
S2140023F000F00700E7E7114BD3F8840000F0070071
S214002400E1E7FFF795F90D4BD3F80021C2F3006220
S214002410013201239340B0FBF3F010BDBDE810403D
S214002420FFF7BCB9BDE81040FFF7BCB9002010BDEF
S21400243003001C000500200002001A0000400E40A9
S21400244000F47810B0F5901F08B573D01CD9B0F51D
S214002450E01F34D055D9B0F5281F35D067D9B0F570
S214002460301F00F08280B0F5381F1AD15648FFF7AB
S2140024703BFF072842D0082800F09B80042810D194
S214002480BDE80840FFF766B9B0F5002F13D00AD9AB
S214002490B0F5402F2DD0B0F5602F2FD0B0F5202FFF
S2140024A01CD0002008BDB0F5003F53D0B0F5802FFB
S2140024B045D00028F5D1BDE80840FFF711B94348DC
S2140024C0BDE80840FFF772BF4148FFF76FFF414B7A
S2140024D0D3F82031C3F30113D84008BDFFF700F945
S2140024E03C4BD3F81431C3F304230133B0FBF3F0B1
S2140024F008BD3948FFF7F8FE072856D1374B18684D
S21400250008BDB0F5B01F43D0B0F5D01F3BD0B0F536
S214002510A01FC6D12E48FFF749FF2E4BD3F8202127
S214002520012302F00F029340B0FBF3F008BDB0F5B4
S214002530001FB6D12A48BDE80840FFF737BFFFF7AF
S214002540CFF8244BD3F80C31C3F308230133B0FB88
S214002550F3F008BDFFF7C4F81E4BD3F80831C3F3F9
S21400256008230133B0FBF3F008BD1848FFF71EFF41
S214002570184BD3F82821C2F30122043201239340DA
S214002580B0FBF3F008BD1248BDE80840FFF70EBFE9
S2140025900E48FFF70BFF0F4BD3F828210123C2F399
S2140025A001129340B0FBF3F008BD09287FF479AF21
S2140025B081E7FFF795F8074BD3F80031C3F3042300
S2140025C003FB000008BD00BF98002E0003001C009F
S2140025D002001A0000400E4006000C0034000020E6
S2140025E005002000C0F30313013B10B50C46072B73
S2140025F015D8DFE803F01E58626C7895AA04944B51
S21400260098420CD1934AD2F84431D90708D5914B59
S214002610D3F8301121F003010C43C3F8304110BD4C
S214002620D2F840315B03F2D5D2F840315B03F7D4E1
S214002630EDE7FFF7FBFC884A864B01211160D3F8D3
S214002640002142F08072C3F80021D3F8001121F473
S214002650F85141EA0424C3F80041FFF769F87F4BBC
S2140026601C68002CFCD17E4B5968C1F30141FFF772
S21400267053FC7C48FFF7E4FE7B4B984240F2838095
S2140026807A4B0121984294BF4FF080744FF000744B
S214002690714A704B1160D3F8000120F0807004433B
S2140026A0C3F8004110BD6B4BD3F8141121F4F85158
S2140026B041EA0424C3F8144110BD664BD3F8001158
S2140026C021F0807141EA0464C3F8004110BD614BFB
S2140026D0D3F80C1121F4FF3121F4807141EA042172
S2140026E0C3F80C1110BDFFF7A1FC5B4A594B012142
S2140026F01160D3F8002142F08072C3F80021D3F8AD
S214002700081121F4FF3121F4807141EA0421C3F855
S2140027100811FFF70DF8514B1C68002CFCD1A2E7FE
S214002720534B984276D0534B984256D0484B9842DB
S2140027307FF475AF474AD2F84431D9073FF567AF03
S214002740D2F840315B03FBD461E74B4B984226D06E
S21400275003F5B01303F58053984216D13D4AD2F8DC
S2140027604401C40701F10103B3FA83F3C3F11B016B
S2140027700CD5384AD2F8283123F4407343EA0123B3
S214002780C2F8283110BD214682E710BDD2F840318C
S2140027905806EED5D2F840315806F7D4E9E72D4A68
S2140027A0D2F84401C00701F10103B3FA83F3C3F181
S2140027B01F0109D5274AD2F8283123F0300343EA0F
S2140027C00113C2F8283110BDD2F840315B06F1D5AE
S2140027D0D2F840315B06F7D4ECE71E4AD2F8440143
S2140027E04B1CB3FA83F3C3F11F01C30709D5194A7B
S2140027F0D2F8203123F0300343EA0113C2F8203127
S21400280010BDD2F840315C07F1D5D2F840315C07F4
S214002810F7D4ECE70F4AD2F84401C40701F10103EC
S214002820B3FA83F3C3F11F0108D50A4AD2F8203160
S21400283023F00F030B43C2F8203110BDD2F840310D
S2140028405807F2D5D2F840315807F7D4EDE700BF65
S2140028508009120000400E404000C843C800C6432E
S21400286000300E40002508000048E8010090D00324
S2140028706006140060162A00701716000139FFF76C
S214002880B1BE00BFF8B50546FFF776FB434B0746DB
S21400289011201E681D60FFF727FD05287BD0404BE2
S2140028A01C68002CFCD13F4B9D425FD03E4B9D42A6
S2140028B061D03E4B9D422BD01120FFF715FD052819
S2140028C048D0B5423BD83A4B11201F61FFF70CFDAC
S2140028D0052853D03748FFF7B3FD374B984214D935
S2140028E0364B0121984294BF4FF080704FF0007035
S2140028F0334B2F4A1960D2F8003123F08073184307
S214002900B542C2F800011FD9F8BD00200146EFE726
S21400291027F0C06747F080671120FFF7E5FC052821
S214002920CFD1002423462649214A0B60D2F8003135
S21400293023F080731C43B542C2F80041C3D9284631
S214002940012100F037FDBEE700200121BDE8F84078
S21400295000F030BD184B9D42E4D9184C0123A54227
S21400296094BF4FF080744FF00074DCE727F0C06728
S21400297047F00077D0E727F0C067CDE7FEF7D8FE30
S214002980104A1368002BFCD10F4B5968C1F3014164
S214002990FFF7C2FA9EE7FFF749FB80E7300000200A
S2140029A06028C84380841E0000093D0040420F0096
S2140029B000400E40002508000048E8010090D003C3
S2140029C04000C843C800C64300300E401C4B5B6A3C
S2140029D0002970B523F0405314BF4FF080550025F2
S2140029E042B343F000531D43FEF7B4FE154A0646B5
S2140029F01468002CFCD1144B59683046C1F30141D1
S214002A00FFF78AFA114B9E4218D9114B01219E42BC
S214002A1094BF4FF080744FF000740E4B084A196054
S214002A20D2F8003123F080731C43054BC2F80041F6
S214002A305D6270BD1D43024B5D6270BD2146ECE7D2
S214002A4000400E40C800C64300300E400048E80173
S214002A500090D0034000C843144B5B6A13F0300F5D
S214002A6010B408D020291DD030294FF4800404D09B
S214002A7019B10F4A03E04FF480044FF440020B49AB
S214002A80D1F89030094813409342F9D134B1D0F8C8
S214002A90A0005DF8044BC0F38020704701205DF86D
S214002AA0044B704700244FF40002E8E700400E4055
S214002AB0FFF3E17FF8B506280ED8DFE800F0535A9A
S214002AC0045F230D640041B93C4B08243C4A14665D
S214002AD01A68002AFCD1F8BDF8BD39494B6A13F0D4
S214002AE0300F57D1374BDB6B4B6ADB0761D54C6A2F
S214002AF0324B24F0300444F001044C6204260325D3
S214002B00012706E0304B2024102605250029DDD0BD
S214002B1000272B490E6619680029FCD0002ADBD056
S214002B202A4C2C44A4002368002BFCD00228D3D1C6
S214002B30002FD1D0224A536A13F001012FD1FFF79C
S214002B408BFF1F4DD5F89C70022000210122FFF755
S214002B50B1FFC7F30A00FFF771FA2E662368002B51
S214002B60FCD0F8BD1A4B4FF400744FF4807609255C
S214002B70CCE7184B802440260725C7E701263546B4
S214002B80154B0224C2E7154B4FF400444FF4804621
S214002B900F25BBE7094B042603250027B9E72023AA
S214002BA04FF48061C2F8A81019465366FFF754FF29
S214002BB0C7E7024B042603250127AAE70812C843E5
S214002BC000400E4000300E401012C8438004F21041
S214002BD02012C8431812C8430012C8433812C8430C
S214002BE0112838B50C4641D000F00F0001380728F0
S214002BF03BD8DFE810F02901890087003A00690019
S214002C005F003A0048000120014602460324FFF711
S214002C1051FFFFF70BFA944B94485C67FFF710FCE4
S214002C20934B984240F2C280924B0121984294BF47
S214002C304FF080704FF000708F4B8B4A1960D2F8BF
S214002C40003123F080731843C2F80001FEF770FDD0
S214002C508A4A1368002BFCD1894B5968C1F301419D
S214002C60FFF75AF9002D00F0C18038BD042900F0A6
S214002C70E48005295AD00025023C032CF5D8DFE86D
S214002C8004F098459BA84C1E072CEED801A353F8D9
S214002C9024F000BFF92D00006B2C00006B2C000008
S214002CA01F2E00006B2C00006B2C0000112E000065
S214002CB00D2E0000072900F0BC80092940F0958001
S214002CC0694B01221A6738BD6E4D013C0A2CCCD8E0
S214002CD001A353F824F000BF412D00009F2D0000F3
S214002CE0912D00006B2C00006B2C0000592D00006D
S214002CF06B2C00006B2C00006B2C0000552D000088
S214002D00472D0000604DE0E7604DDEE7012003241C
S214002D1001210A46FFF7CEFEFFF788F9002D3FF4A3
S214002D207AAF564A1368002BFCD174E7584A594BC1
S214002D3015689D429FD92846002100F03BFB9BE783
S214002D4000232B6038BD01210A460620FFF7B2FE9D
S214002D500523F6E70423F4E7FEF7EAFC444B984223
S214002D6064D9444B0121984294BF4FF080704FF0D5
S214002D700070414B3C4A1960D2F80031464923F0B6
S214002D80807303430120C2F8003103230860D8E7AC
S214002D90012001460246FFF78DFE0123D1E70121FF
S214002DA00A460020FFF786FE0223CAE700200146F7
S214002DB042E700200424ABE72F4B2B4A0121196081
S214002DC0D2F80031022043F08073C2F80031044686
S214002DD09EE7294B244A01241C60D2F8003143F0B8
S214002DE08073C2F80031032092E738BD28460121DF
S214002DF0BDE8384000F0DEBA00211B4AD2F85C314C
S214002E0023F030030B43C2F85C3138BD3021F4E7C1
S214002E1001210A460420FFF74DFE1021EDE70121AF
S214002E200A460220FFF746FE2021E6E7002001467C
S214002E309FE70D4B00221A6738BDFEF78BFC054650
S214002E4000287FF478AF16E78C1E0025032C3FF68B
S214002E500CAF01A353F824F0B32D0000072C00009C
S214002E60B92D0000D32D000000400E4000250800BC
S214002E700048E8010090D0034000C843C800C6439D
S214002E8000300E4088400E4084400E4080400E4089
S214002E9030000020002D31010816C843F8B504465E
S214002EA01120FFF721FA022000210122FFF702FE7F
S214002EB01748277C416A174D2678A288E38821F0B8
S214002EC00101022F08BF41F0010141622E60617AC4
S214002ED041EAC221C162016B257AA27A01F07F61C4
S214002EE00A43E91C42EAC3220F2942EAC51328BF57
S214002EF00F2143EA01730363A17B637BE27B247BA0
S214002F00090141EA0333134343EA04434363F8BD2C
S214002F1000400E40A004C84370B504461120FFF7D9
S214002F20E3F9002001460246FFF7C4FDA178637866
S214002F302278E478054D0648064E2E60090641EADA
S214002F40C323134343EA0423036070BD38400E4492
S214002F5038400E467F1B0007EFF3108072B67047AE
S214002F6000B962B6704700BFEFF3108072B67047C4
S214002F7000B962B6704700BF024B9B6803EB800047
S214002F800164704700ED00E0F0B596469DF81860C5
S214002F90059A6BB17546002476B1A14214D907682C
S214002FA02F6001349C4205F1040500F10400F3D1C2
S214002FB0064BC3F808E0F0BDA1422F6802D9002FE7
S214002FC0EFD1ECE7002FECD12A60EAE700ED00E055
S214002FD00E2943680ED8012210B48A4047F2E00456
S214002FE0144023F01F0334B143F01003194341602B
S214002FF05DF8044B704740F61F741440002CF7D061
S2140030000B434360F4E700BF70B4102A056A046AF5
S214003010036A066ACE600D604C608B6007D1046A56
S214003020026A036A006AC8610C614A618B6170BCFF
S214003030704700BF42EA032340F2011293425BD07E
S214003040B3F5817F14D340F2012293424BD030D99E
S214003050B3F5407F24D040F2013293423ED12B4B51
S214003060D3F878311A0EC3F3074303600A6070473B
S214003070012B2AD00BD3B3F5807F2FD1234BD3F867
S2140030806C311A0EC3F3074303600A6070471F4B88
S214003090D3F86C31C3F30722DBB203600A607047D3
S2140030A01A4BD3F870311A0EC3F3074303600A6055
S2140030B07047B3F5007F11D1144BD3F87031C3F3CA
S2140030C00722DBB203600A607047104BD3F87431F6
S2140030D0C3F30722DBB203600A6070470022134680
S2140030E003600A607047094BD3F87831C3F30722B0
S2140030F0DBB203600A607047044BD3F874311A0ED3
S214003100C3F3074303600A60704700BFB081E00F57
S2140031101B4BD3F8803103282DD8DFE800F0272991
S21400312010021B0E79B91B0313F4702F23D1154917
S214003130CA6E22F470421343CB6601207047C3F375
S21400314007430029EFD0012917D11B0313F4702F72
S21400315011D110B40B4CD4F8E02022F47042134383
S2140031600846C4F8E0305DF8044B7047DBB2D9E798
S214003170C3F30723D6E7002070470120704700BF3F
S214003180B081E00F00300E40134B144A196858689F
S214003190C1F30121C0F301401368002BFCD181422A
S2140031A001D9022900D0704710B51120FFF796F814
S2140031B004461120FFF744F9094B04FB00F098423F
S2140031C005D811200521BDE81040FFF709BD0548C8
S2140031D0FFF758FBF5E700BF00300E40C800C643B7
S2140031E0002D3101C0EA210138B5184B184C18786B
S2140031F01849194D194AC0F1020010238340236173
S21400320045F60E03D1F88041C1F880312B6840F2B4
S21400321055101840086604F0010403F00100136816
S214003220002BFCD10E4B1978052905D01120FFF78D
S214003230D7FC2B6803F0010010B9064B02221A6671
S2140032401CB1044B0022C3F8802138BDA414002012
S21400325000300E4000400E40A0140020C800C643B8
S214003260A514002020B1012800D07047FFF7BCBF8E
S2140032700A4A08B50A4BD2F890201A601120FFF7C8
S21400328033F8084B084A18701368002BFCD1074B1C
S214003290074A5B68C3F30143137008BD00400E4045
S2140032A0A0140020A5140020C800C64300300E401D
S2140032B0A414002010B5044680B9FFF765FF094A3C
S2140032C0136943F00403136130BF1CB9BDE8104016
S2140032D0FEF72EBABDE81040FFF786BF0020FFF7C6
S2140032E0C1FFEAE700ED00E010B5044600BBFFF7BB
S2140032F04BFF114BD3F88021D20748BF002245F67A
S2140033000E004FF42071C3F88001196648BFC3F859
S21400331080210A4A136943F00403136130BF1CB9C5
S214003320BDE81040FEF704BABDE81040FFF75CBFEA
S2140033300020FFF797FFDAE700400E4000ED00E0C0
S2140033400020FFF78FBF00BFFFF74EBF164B70B5CC
S214003350D3F8003104460E46FEF7C2F9134A136846
S214003360002BFCD1124D6B68C3F301439C420CD07A
S214003370022C11D0C4F10202102393402B612CB111
S2140033801EB10A4A1368002BFCD170BD2146FEF719
S21400339073FE002EF5D1F8E72146FEF76DFE1023EA
S2140033A02B61002EEDD1F0E700400E40C800C6436A
S2140033B000300E4010B5104B82B0D3F8004158B123
S2140033C00E4B1B7813B10E4B98420ED9002002B05C
S2140033D0BDE81040FFF7BABF0191FEF781F9C4F3CC
S2140033E0042404FB00000199EAE7022002B0BDE8CD
S2140033F01040FFF7ABBF00BF00400E409C140020FB
S214003400FF2C3101034B02781A7000200121FFF7D0
S214003410D1BF00BF9C140020044A4178136823F4EF
S214003420407343EA01231360704700BF00300E402C
S214003430154903798A69F0B50578447890F802E072
S214003440C7784679002D14BF0425002522F03F02D8
S214003450002C14BF022400241A43BEF1000F14BF30
S21400346008200020002F0CBF134642F0010343EA59
S2140034700502224302438A610B6823F4403343EA81
S21400348006430B60F0BD00BF00300E401E498B6F38
S2140034901D4ADB07FBD4136C13F003031CD01B4A36
S2140034A00121834211601CD0032B02D1431E012B45
S2140034B018D915498A6F144BD207FBD41A6C22F020
S2140034C0030202431A649A6FD207FCD400300F4BF3
S2140034D018BF0120186070470028E7D10B4B186012
S2140034E07047704708494FF40023CB628A6F064B3B
S2140034F0D207FBD41A6C22F0030242F001021A64CF
S2140035005A6A1103FCD5D4E700300E40B40AC6430D
S21400351038B5124B4AF6E8529C699D699A609869DC
S21400352024F4403410F0010044F4003445F44035EF
S21400353005D11B6C03F00303013B012B0AD9074B93
S2140035409C619D619C619D619C619D619C619D618A
S2140035509C6138BDFFF79AFFF1E700BF00300E40D0
S2140035602DE9F04FA0F5E16489B00023B4F5966F1D
S2140035700293039304930593069307936CD8B0F5D0
S214003580E16F94BF00250125002D69D14A4BD3F881
S2140035906831C3F30724DBB2079404934FF4167B19
S2140035A04FF49669DFF814A10191DAF84C60C6F37F
S2140035B001760446334602A805A990462A46FFF738
S2140035C039FDDAF8E070C7F301273B4603A806A9E1
S2140035D02A46FFF72FFDDDF810C0079B02980090E3
S2140035E0C9EB0404CCEB03030798DDF814E0069956
S2140035F0039A03FB04F3B3FBFBF3634498422BD319
S2140036009C4529D8C2EB010909FB04F9B9FBFBF973
S2140036109144494520D34A451ED80099C1EB0E0275
S21400362002FB04F4B4FBFBFB8B44DE4514D3594584
S21400363012D8B8F1000F0BD0DAF85C2022F4FE4264
S21400364022F0020242EA032343EA4503CAF85C304A
S214003650019B93B9012000E0002009B0BDE8F08F7F
S214003660154BD3F868311C0EC3F307430794049335
S2140036704FF4966B4FF4E16994E730460021FFF76C
S21400368047FD0028E8D038460121FFF741FD002815
S214003690E2D00A4A536ED94538BFD94623F4FF73A1
S2140036A023F00103B9F1E70F28BF4FF0E7092B43DA
S2140036B043EA49035366D0E7B081E00F00300E407E
S2140036C03A4B1A6FD96CC90730B402F0070241D5DD
S2140036D0012A50D913285BD9143813288CBF4FF40D
S2140036E07F424FF4EE42314C3148E36C314D23F4C7
S2140036F07F431343E364E16C0288E06CC1F303216B
S2140037000131283202EB620201EB8103B2FBF3F3D4
S214003710013B072B20F0EE6028BF072340F4801201
S21400372042EA0363B5F90020E364002A10DB206D4B
S21400373028324B0002EB620203EB5103B2FBF3F3B9
S214003740072B20F0700028BF072340EA03132365E9
S21400375030BC7047D96CCD0705D4012A1BD9DB6C69
S2140037606FF0FF02BFE7DB6CDC0701D5012A08D942
S2140037706FF0FF02B7E7DA6CD1070CD5DB6CDB071E
S214003780F6D527288CBF4FF47F424FF4EE42AAE7C7
S2140037904FF44C52A7E70928FAD90A3809288CBFF3
S2140037A04FF47F424FF4EE429DE700BF00300E40DC
S2140037B09E14002098140020054A064B06491B68F4
S2140037C0136F23F00703184310670888FFF778BFC6
S2140037D000300E408009C64396140020C3884A2B4A
S2140037E070B5044605D9B3F5FA7F4BD24FF080503A
S2140037F000E000202C49B4F90C60CA6C2B4D22F076
S214003800405323F00103002EA8BF43F001030343F7
S214003810CB64D1F8E03043F44073C1F8E030CB6EAF
S21400382043F08073CB662868002834D1FFF7C4FFC6
S2140038301F4B2049204EA0882589A2891A803080F7
S2140038400D80FFF73DFFA37B4BB3012B16D0012164
S2140038500A466088FFF784FE054668B1124A60781B
S214003860D36B43F48063D363FFF710FEA37A134A47
S214003870003318BF01231360284670BD0A4B104A58
S2140038809A65E4E740F6C310834294BF4FF00050B9
S2140038904FF04050AEE70420FFF78EFFC8E7024B1C
S2140038A0084A9A65D3E700BF00300E408009C64339
S2140038B0981400209E140020961400209407C643F7
S2140038C0372110B7774020572DE9F047072A9DF893
S2140038D020609DF824502AD8DFF87CA0DFF87C9082
S2140038E0DFF87C80DFF87CC001F0030194004FF025
S2140038F00F0E0327A040A1400EFA04FEA740CAF808
S21400390000E0C9F80000C8F80070CCF800101049B4
S214003910104C11448900012000FA02F20B60C1F835
S2140039208060C4F82424C1F80053BDE8F087A2F1F3
S214003930080401F00301A4004FF00F0EDFF828A0E2
S214003940DFF82890DFF82880DFF828C0D1E700BF2E
S2140039508020851000A0004000A4004400A400467B
S21400396008A4004408A4004604A4004404A4004696
S2140039700CA400440CA40046F0B545003AB12E183D
S2140039809BBB1C4C3601344401268E4026602C1806
S214003990240104F18044072904F5204415D84FEA91
S2140039A0810E67680F2606FA0EF627EA060702FA61
S2140039B00EF63E4366603AB92844C3B90D4B000183
S2140039C0034401228A401A60F0BD01F18046083E99
S2140039D0A768B6004FF00F0E0EFA06FE27EA0E078F
S2140039E002FA06F63E43A660E5E7034CCAE7024B3A
S2140039F0E5E700BF0CA000440CA00046054A064BB5
S214003A005168526841F671321A649A6822F00102CF
S214003A109A60704700300E4000000E40034B9A68D4
S214003A20002122F001029A601964704700000E40DF
S214003A30014B01229A60704700500E40144A154B05
S214003A4070B400205468144E03F148050DE0B2F53A
S214003A50006F18D0B2F5803F15D0224202D0214226
S214003A6008BF10430833AB4210D03268196812F012
S214003A70040F53F8042CF0D1B2F5806F03D0E6D8CB
S214003A80B2F5007FE9D141F48071E6E770BC70477B
S214003A9000500E402CB60400E841E00F014B1860C1
S214003AA0704700BF000084422DE9F041857890F809
S214003AB00180027983790478C17890F805C090F87F
S214003AC007E0077A094E280140EA8800204340EACA
S214003AD0411141EA022141EA0C3242EAC33242EA8B
S214003AE00E4343EA47433360BDE8F08100200440BC
S214003AF00B4A5169136901F00F01C3F3811343EABE
S214003B0081038370136903F03F0343709169D3699F
S214003B1001F0F002C3F3031313430370704700BFB2
S214003B20D0FF0FE070B5044615461E4601B3202EA2
S214003B3024D01AD9402E16D0602E21D10422236814
S214003B40104823F06003236005FB02F24901236856
S214003B5001EB5201B1FBF2F2203AD20010401E43B4
S214003B602660606170BD0622E9E756B91022E6E7D6
S214003B700548FEF765FC202E0146DAD10822DEE76E
S214003B8070BD70BDF8FF7F004041050038B50546A2
S214003B90144619B90548FEF753FC0146013964007E
S214003BA0B1FBF4F10902696138BD00BF4041050070
S214003BB0CB4303F005035B00C360C160704700BFE2
S214003BC0134A1449002330B4904240F6AA6541F2E5
S214003BD00504C5600360446083604361C364816418
S214003BE043678367C3670AD002F58062904209D0B4
S214003BF002F58062904202D0836530BC7047002395
S214003C000365F9E7036530BC8365C365704700BF8D
S214003C1000000140F9FF0100F8B50C460546FFF725
S214003C20CFFFA37C1BB12B6843F080432B60E37C63
S214003C301BB1237D43F08003AB65278A607BE68952
S214003C406168A268237B3843304368602846FFF7E4
S214003C5069FFE27DA37D617D12051B0702F4E00289
S214003C6003F0E04313432B6619B12B6843F480330B
S214003C702B606A6F207E217822F030026A676B6FB5
S214003C8003436B67E960F8BD70B50C460546FFF761
S214003C9097FF238AA67B2A68207DA17C43F0010338
S214003CA0002E9BB243EA020314BF4FF48062002248
S214003CB013432B602B68002814BF4FF000520022DD
S214003CC013432B6019B1E37C43F08003AB65237B81
S214003CD06168A26843F480536B602846FFF756FF7E
S214003CE0637B0BB11023EB60E27DA37D617D120543
S214003CF01B0702F4E00203F0E04313432B6619B1FE
S214003D002B6843F480332B602378EB6070BD00BFD4
S214003D1003691B06FCD5C069C0B2704703695A0622
S214003D20FCD5416303699B06FCD5C069C0B27047E9
S214003D3003695B06FCD54163704700BF03695B06F9
S214003D40FCD5C163704700BF2DE9F04F5E4C87B0CD
S214003D5024680292002C00F0B280DFF870C19CF854
S214003D6011201AB10A2007B0BDE8F08FDFF860A175
S214003D70BAF806501E46DCF80830294489B2DB083B
S214003D800191009301FB03F5002E49D0DFF844B102
S214003D90254490460127BAF808409CF81020BAF847
S214003DA00430241AB44228BF3446012AA6EB04067F
S214003DB023D8029900290CBF4FF0FF094FF00009E5
S214003DC0012A04BF6FEA09095FFA89F90344072C40
S214003DD09BB229D81C44B9F1000F4BD1A3420CD298
S214003DE0D90803F007006A5C013307FA00F09BB2BB
S214003DF022EA00029C426A54F2D8019B43445911BD
S214003E0003F01F035BF8212007FA03F31A43009B15
S214003E104BF821201D4408F101080020002EBAD1DD
S214003E20002007B0BDE8F08FD9086A1813F0070322
S214003E3003922ED007FA03F2685C083B013AD2B22E
S214003E401C44039B104029EA0202024301335FEA46
S214003E50D40E03936A541ED1039907FA04F30A7822
S214003E60013BDBB203EA090922EA030343EA09033A
S214003E700B70C2E7A342C0D2D90803F00702685C01
S214003E80013307FA02F29BB202439C426A54F3D80B
S214003E90B3E74FEAD40E039BCDF814C0184672461B
S214003EA073444946CDF810E0039340F067FCDDF814
S214003EB010E0DDF814C0B4EBCE049ED0CCE70120B1
S214003EC007B0BDE8F08F00BFA8140020AC14002097
S214003ED0D8140020D8650020044B1B781BB1044B77
S214003EE00360002070470120704700BFE4140020E4
S214003EF0D814002070B40E4C247874B10D4C25886C
S214003F008618AE4202DD042070BC70476588CE1865
S214003F10AE42F8DC22B90520F6E7012070BC7047F7
S214003F20002BF8D0A080E180228163810020EBE79F
S214003F30E4140020D8140020064A30B41478039DF8
S214003F4024B11A462B4630BCFFF7FEBE012030BC1B
S214003F50704700BFE4140020F8B50A4C0A4DA66965
S214003F606168E2682B4607462046B0472B683BB19F
S214003F703B60FF211022054840F000FC0020F8BD01
S214003F800B20F8BDAC140020A8140020D865002033
S214003F90F8B5194D2B780BB10020F8BD00F0E2FB08
S214003FA000B1F8BD154E314600F0F6FB00B1F8BD85
S214003FB0134F3846FFF7D0FF0446C8B93B68C3B175
S214003FC0B6F804E0B7890F4E4FF0010C07FB0EF36E
S214003FD001460246A6F800E07780B080F080A6F89A
S214003FE008E0778185F800C0FFF7AEFE2046F8BDF2
S214003FF0F8BD0B20DBE700BFE4140020AC14002063
S214004000A8140020D81400202DE9F04F2A4FDFF81E
S214004010AC80BA68FB68D8F80040DFF8A49085B09A
S21400402000204FEAD20A0122BB460146054603920B
S2140040309D420AD214F0010211D001304518EA065A
S21400404012D09D424FEA5404F4D320BB1B480021F3
S214004050102240F093FB002005B0BDE8F08F50B969
S21400406001314518EA06ECD1039E3246013258F873
S21400407026400392DCE77B680190D9F800000091A7
S2140040803E6A0AFB01010C48B0470028E4D1691CCF
S214004090DBF80C30D2E70A4A7B6812680091019080
S2140040A00AFB01213C6A04480022A0470028CDD024
S2140040B005B0BDE8F08F00BFAC140020D865002026
S2140040C0A8140020014642698369098A8089013262
S2140040D00133121A5B1A92B29BB2FFF70BBF00BFF6
S2140040E00B688A68934201DB04207047F0B44D6881
S2140040F0C9688D4202DB0420F0BC7047002B0FDB42
S214004100002D0DDB06683788BA4209DA7688B14298
S21400411006DAC360056142618161F0BCFFF7D2BF79
S2140041200320F0BC704700BF30B587B008B300224C
S2140041306FF07F4342608360044601A8FFF7CCFE21
S214004140054698B9019B23601A885B880290013A5D
S214004150013B204602A9039504920593FFF7C0FF92
S214004160054618B92046054900F078F9284607B0F4
S21400417030BD0525284607B030BD00BF70B6040028
S214004180F0B130B590E82800044600201A885B8815
S214004190014683B0FFF7AEFE014670B92268EBB267
S2140041A000935489138903FB04F30193C5F3074274
S2140041B0C5F30723FFF7C0FE0146084603B030BD2F
S2140041C005210846704700BF70B5044682B0B8B1F6
S2140041D00C300E46154600F035F810B9012002B036
S2140041E070BDA3680124DAB20092B0B2C3F30742EE
S2140041F0A9B2C3F307230194FFF79EFE02B070BD79
S214004200052002B070BD00BFC8B170B50C3082B0DA
S2140042101C460E46154600F015F810B9012002B0EF
S21400422070BDE2B201238DE80C00B0B2A9B2C4F3AF
S2140042300742C4F30723FFF77FFE02B070BD0520D8
S214004240704700BF78B103688B420BDC83689942E5
S21400425008DC4368934205DCC0688242CCBF00207D
S21400426001207047002070472DE9F04F90F8284055
S21400427085B0022C9DF8387000F08C80203989B209
S2140042800091048C8C4203DC022005B0BDE8F08F60
S21400429090F82510C4690394002900F095800293D5
S2140042A0002690F8243001969046814699F8222000
S2140042B0012A7CD0022A75D1039A009932F811504F
S2140042C0002B7ED0029A019902EB010BDA460024FD
S2140042D007E0002F3BD10134A4B29C424FEA5505BB
S2140042E013D2EA07F5D5484604EB08015246FFF715
S2140042F06BFF0128C9D800B9013699F8243001347B
S214004300A4B29C424FEA5505EBD3214699F8270004
S2140043101A188A4209DD029A019D55193FBB0134DD
S214004320A4B21A1894422146F8DB019899F8232083
S214004330009C99F82510013080B21444A2B2814244
S21400434001900092B2D8B6FA86F040099DE748463A
S21400435008EB04015A46D9F80430FFF755FF012848
S21400436093D899F824300028B5D10136B3E74144F4
S21400437048462A46D9F80430FFF746FF012884D875
S21400438099F8243010B199F82700C8E799F8270063
S2140043900136C4E73A2911D020290CD0303989B229
S2140043A000916EE7039A009932F8215088E7039A45
S2140043B00099555C84E70B21009162E70A21009181
S2140043C05FE719461C46A1E701205EE72DE9F04F9E
S2140043D083B0DDF830809DF834B038B131B190F854
S2140043E028403CB9022003B0BDE8F08F052003B09A
S2140043F0BDE8F08F82B3054699460C468F181E46D8
S2140044004FF0000A13E0CDF800B028463246434687
S214004410FFF72AFF0128E6D808B90AF1010A95F83D
S214004420242095F8273013441E44BC4210D014F8BC
S214004430011B0A29A1F1200302D05E2BD2D8E2E7A5
S21400444095F8253095F82620984490444E46ECE79B
S214004450BAFA8AF04009C6E70120C4E738B108B5C1
S2140044601C30102229B140F08BF8002008BD052032
S214004470704740F083F9052008BD00BF2DE9F04FD6
S214004480664B674A186859681C7AD2F8B02089B01B
S21400449005AB03C352071C7040F1B8804FF000080C
S2140044A060485F4CFDF720FF032107465D48D4F8BF
S2140044B09050FEF795FB5C48FDF710FFD4F8F030FF
S2140044C00390DB0705F0400540F199800023019337
S2140044D0FEF74AFD554A136813F00104814673D06F
S2140044E013685349029340F2FF7600234FF00040D2
S2140044F0546A1360536216620126C1F880010023D5
S214004500082205A88DF816308DF817308DF818207B
S214004510FFF7CAFA4748454A4FF480530360964669
S21400452003685B00036063B1916893689942FCD0AE
S214004530DEF808100368013BFDD8DEF80830994223
S214004540EED00368394ADFF8ECB05B080360D0F8B9
S21400455000E092464FF0080C5FEA5E0E19D0036842
S2140045604EEA03030360916893689942FCD0DAF838
S21400457008100368013BFDD8DAF80830994205D0E8
S214004580DBF8003023EA0E03CBF80030BCF1010C58
S214004590E2D14846FEF7ECFCCEB103992248FEF77E
S2140045A06DF9224B029A1A605C62019BABB9032F2D
S2140045B019D1F5B1B8F1000F03D01F480021FDF75F
S2140045C0DFFD09B0BDE8F08F0294264697E7304637
S2140045D0FFF764FA019B002BE9D013480021FDF792
S2140045E0CFFD032FE5D039460E48FEF7F9FA002D29
S2140045F0E0D1012029462A46FEF75CFADAE70A48A7
S2140046000121FDF7BDFD0123019361E70A48012161
S214004610FDF7B6FD4FF0010842E700BFA0B9040061
S21400462000400E40050020008009120000200440D3
S21400463000E100E038000020002508000346084995
S214004640002B0CD0013B88221202003253430A682A
S214004650D80AD20A5043800901D00138FDD87047E5
S2140046603800002070B5224D224E0FCD88B002AC27
S2140046700FC495E8030084E803001F480121FDF7F6
S2140046807FFD1E480121FDF77BFD01241C4B049392
S214004690304602A98DF81640FFF7F6FA23460220A8
S2140046A006210422FFF768F922460220072100238C
S2140046B0FFF762F92346022008210422FFF75CF97F
S2140046C0042123460A460020FFF756F90D4BB36730
S2140046D00B2249F23D6372670193019B002B05DDB7
S2140046E0019B013B0193019B002BF9DC08B070BDD8
S2140046F0ACB9040000040140003508000042040084
S21400470000127A000B0B000B38B5134B10221A6000
S21400471014241248FF21FFF701FB013CF9D1104B8E
S21400472010221A601E240D48FF21FFF7F7FA013CFD
S214004730F9D105240948FF21FFF7F0FA013CF9D129
S214004740054B064810251D60B921FFF7E7FA044B14
S21400475020461D6038BD00BF0CA000440004014088
S2140047600CA000460A4A13786BB910B5094C2368AA
S214004770012111701BB908E054F8043F2BB198478B
S2140047800028F9D010BD00207047002010BD00BFE3
S214004790181500203C000020094B1B780BB909486F
S2140047A07047002801DD0848704710B5074C0346DF
S2140047B02C22084602FB03413FF0E2FE002010BD1B
S2140047C0181500200500118002001180EC1400204E
S2140047D00B4B1B780BB90B48704710B50A4C236877
S2140047E0002B01DD094810BD014609482C2202FBBA
S2140047F00300013323603FF0C3FE002010BD00BF5E
S2140048001815002005001180E81400200100118012
S214004810EC140020802901D009487047094908682F
S21400482010B4094C00EB0212A24205D90022074838
S2140048301A605DF8044B704718600A600020F8E7BD
S21400484002001180440000201C1D00200100118081
S214004850004870470400118008B500F033F900F0F6
S214004860E9F8002008BD00BF70B51E4653B10C46DF
S2140048700025204610220135002114443FF07EFF1B
S214004880B542F6D1002070BD2DE9F04782B00C4647
S2140048900A9D0B9F0E210320013500F043F9ADB2AF
S2140048A0062000F015F902AE2B0243F0010326F8AD
S2140048B0023D0221304600F0E5F807B3013507F166
S2140048C0FF384FF0000A4FF6FF79102120460C44BF
S2140048D000F0D8F8D04505EB0A031CBF1B0243F0D6
S2140048E0FF034FF002010AF1010A30460CBFADF893
S2140048F00690ADF8063000F0C5F8BA45E5D10220BE
S21400490000F0E6F80E21032000F01AF9002002B0AD
S214004910BDE8F08708B50D21032000F01FF9002040
S21400492008BD00BF08B5032021B90F2100F008F923
S214004930002008BD0F2100F0F5F8002008BD00BFDC
S214004940F0B58DB000F0BEF800F074F800F0D2F8C4
S214004950002213460821022000F0D6F80022134653
S2140049600621022000F0D0F8002213460E21032074
S21400497000F0CAF8002213460F21032000F0C4F806
S214004980002213460D21032000F0BEF82148002126
S214004990802200F0A3F808B10DB0F0BD8023DFF848
S2140049A090C01D4C1D491E4A8DF815004FF0010E93
S2140049B01C4F1D4E1D4D099401A8CDF804C08DF85E
S2140049C014E00293049303930697079608950A91BA
S2140049D00B92FFF7FDFE04460028DDD10F210320D1
S2140049E000F0A0F80E21032000F09CF8062000F04E
S2140049F06FF80CA8042320F82E3D022100F042F8A0
S214004A00022000F065F80E21032000F099F82046F9
S214004A100DB0F0BD15490000894800006948000047
S214004A20594800002549000015480000514800007C
S214004A30C4B9040070B50F4D0F4E0FCD86B06C464E
S214004A400FC495E8030084E803000C480121FDF735
S214004A5097FB30460A4B02936946FFF715F90A237F
S214004A607367B36F23F01F2343F00B230020B36755
S214004A7006B070BDDCB9040000040140004204002A
S214004A80E067350038B505460C465CB1012C0C488D
S214004A9001D0EA070CD5013C15F8011BFFF748F9D1
S214004AA0002CF3D1064A13699B06FCD5002038BDBE
S214004AB0034835F8021BFFF741F9023CE5E700BF63
S214004AC00004014008B5FFF7D9FC002008BD00BF70
S214004AD008B5FFF7B3FD002008BD00BF08B5FBF71B
S214004AE0C9FF034B002814BF1846002008BD00BFAE
S214004AF00200138008B503480121FDF741FB0020A2
S214004B0008BD00BF0035080010B514460AB10448B9
S214004B1010BDC0B20422FEF72FFF204610BD00BF16
S214004B2001001380C0B200EB4000044B00010344B8
S214004B3001228A401A600020704700BF0CA0004681
S214004B40C0B200EB4000044B0001034401228A403F
S214004B501A600020704700BF0CA00044C0B200EBF3
S214004B604000000100F1804000F5204001238B400A
S214004B7083610020704700BF00207047FEE700BF3B
S214004B804FF400534B600020704700BF0120704771
S214004B900020704770B5164682B10D46002404E02A
S214004BA00134A64205F8010B06D000F0B7F8431C06
S214004BB0F6D11CB1204670BD304670BD4FF0FF30B8
S214004BC070BD00BF044A05491368002B08BF0B469A
S214004BD018441060184670471C1D0020B86C002052
S214004BE070B5161E07DD0C468D1914F8010B00F083
S214004BF0C1F8AC42F9D1304670BD00BF104838B598
S214004C0003691B0600D438BD0E4C2568FFF780F8F4
S214004C100D4A0E4B50552268013222601A68013246
S214004C201A602268082A04BF002222601B68074A0E
S214004C30082BE8DD06490023236013600B6038BDAF
S214004C4000000140301D0020241D0020381D0020DB
S214004C50341D002070B52948294D2A4E88B0012100
S214004C60FDF78EFA28480121FDF78AFA0020014652
S214004C7004220123FEF780FE0020012103460A4697
S214004C80FEF77AFE0FCD01AC0FC495E807000123AE
S214004C9084E80700042200200521FEF76DFE1B486D
S214004CA00121FDF76DFA08A9002401F81C4D3046D5
S214004CB0FEF7B2FF03237367B36F154A23F4F85366
S214004CC004204FF4805123F01F03B367B064C2F88A
S214004CD08011F36C0343F364304611600521FEF740
S214004CE067FF0C4B1B6821469868022223463FF05C
S214004CF0BDFD094B01221A7008B070BD4041050089
S214004D00F4B9040000000140003508000032040039
S214004D1000E100E0900900202C1D0020114B1B78BC
S214004D2010B5CBB1FEF720F90F4A1368002B16DD3D
S214004D300E4B0F4C1968645C1968013119601968CC
S214004D40082904BF002119601368013BE4B2136010
S214004D50FEF70EF9204610BDFFF77CFFE2E74FF0A6
S214004D60FF34F5E72C1D0020381D0020341D0020E0
S214004D70241D002038B5124B1B78044673B1114D24
S214004D8011482B780BB10A2C11D02146FEF7D0FF24
S214004D902B780BB10D2C04D0204638BDFFF75AFFF8
S214004DA0EDE709480A21FEF7C3FF204638BD0D216E
S214004DB0FEF7BEFF04482146FEF7BAFFECE700BF49
S214004DC02C1D0020201D002000000140F0B5214BC6
S214004DD089B0186859689A68DB6804AC0FC44FF04D
S214004DE0010E0024C8212022A0234FF4E1670F26DD
S214004DF00A2504A88DF811E0ADF818108DF81A20D1
S214004E00ADF81C308DF81040ADF81270ADF8146097
S214004E10ADF81650FEF7E2FC08A800F8204DFEF7A5
S214004E20F1FA022301A88DF805308DF80440FEF74C
S214004E30F3FA02A88DF808408DF809408DF80A406C
S214004E408DF80B408DF80C408DF80D40FEF7F0FA0B
S214004E5009B0F0BD10BA040070B5394E354686B0BC
S214004E6055F8100FEB686968AA682D8A01AC0FC464
S214004E7001A82580FEF712F83248FCF771FC0121E4
S214004E800A460220FDF716FE01210A460020FDF71D
S214004E909DFD00210A460320FDF70CFE01212A484D
S214004EA0FDF76EF9706A0090202368468DF8003092
S214004EB0FEF732F801210A460020FDF7FBFD4FF40D
S214004EC00040FCF775FC21480221FDF789FE2048CA
S214004ED00221FDF785FE1F480221FDF781FE1E48D0
S214004EE00121FDF74DF91D480121FDF749F91C4840
S214004EF00121FDF745F91B480121FDF741F91A4844
S214004F000121FDF73DF9194B1A6822F01F021A60BD
S214004F101A6822F478721A60D3F8702122F0805250
S214004F20C3F87021D3F8702122F00102C3F8702173
S214004F30D3F8702122F00202C3F8702106B070BDCB
S214004F4010BA040000F049020025080002001A000A
S214004F5003001C000500200000650800005508003E
S214004F6000450800800912000035080000400E4089
S214004F7030B5104B53F8280F85B059681D7A01AA32
S214004F8003C200230521012401A815708DF80440F2
S214004F908DF805308DF806308DF807308DF809301D
S214004FA08DF80A308DF80B308DF80810FEF77CFD72
S214004FB005B030BD10BA0400104A1149F8B51368A0
S214004FC0DFF854E00F4E104C104F114D43F4807331
S214004FD04FF4167C4FF4F0701360CEF800C03760C4
S214004FE025600860FFF7F2FEFFF736FFFFF7C0FF09
S214004FF0084B5A6B5A639A6B9A63F8BD00000E40D2
S21400500094420E4090420E40FC420E404A5D05001F
S21400501028E2160000600E408C420E4070B51A4A18
S2140050201A4C4FF40041012386B0C2F880100025C8
S214005030C4F88C3000F0D4F828468DF804508DF86B
S2140050400550FCF751FF6F238DF806008DF80730EA
S214005050236B0F4A8DF8085010685168926843F425
S214005060803343F00C0303ADC02607C58DF80960F6
S2140050702046236301A9FCF707FF204603A9FCF797
S2140050807FFE06B070BD00BF00E100E000200040DB
S21400509044BA040008B5FFF7C1FF002001460246E7
S2140050A00346FEF769FC084B1A69002042F00042EE
S2140050B04FF4F0111A61D862D962DA6A42F45D627E
S2140050C042F00E02DA6208BD00200040084B094993
S2140050D05A6C10B44FF40040012442F480325A64F3
S2140050E0C1F8800108609C605DF8044B704700BF03
S2140050F00020004000E100E008B572B62F4B9A6B26
S214005100D20318D54FF480322D491A649A6C087869
S214005110B8B9592A2DD940F6C9039A4220D940F683
S2140051202B339A4237D940F60B539A423CD940F675
S2140051303B739A4226D9214B0122C3F88C2062B6D3
S21400514008BDB2F57A6FF6D94FF4F012DA62DA6A71
S21400515042F45D6242F00E020020DA620870EAE76E
S214005160184B1A6842F010021A60186802F012F91A
S214005170E1E7144B1A6842F040021A60186802F021
S21400518009F9D8E70F4B1A6842F008021A60186847
S21400519002F000F9CFE70B4B1A6842F020021A60C3
S2140051A0186802F0F7F8C6E7064B1A6842F0800265
S2140051B01A60186802F0EEF8BDE700BF0020004055
S2140051C04800002054110020044B4FF07A62DA6247
S2140051D0DA6A42F48052DA62704700BF002000406C
S2140051E038B51048104CFCF749FF01210A46042048
S2140051F0FDF760FC4FF460200721FDF7F1FC0B4A39
S2140052000B491368102543F0800313602046C1F84D
S2140052105C510721FDF7E4FC20460121BDE838403B
S214005220FCF7AEBF40420F0000B204000020004072
S21400523000400E4010B5094B04460FCB84B00DF16C
S214005240100E0EE90F00A3090EEB830304F03F04D3
S21400525053F8100C00FB04F004B010BD50BA040064
S21400526010B4832945D8DFE801F0596149684949F7
S2140052705454547754545454544444444444444436
S21400528044444444444444444444444444444444D9
S21400529044444444444444444444444444444444C9
S2140052A044444444444444444444444444444444B9
S2140052B044444444444444444444444444444444A9
S2140052C04444444444444444444444444444444499
S2140052D04444444444444444444444444444444489
S2140052E04444444444444444444449494942042BC5
S2140052F036D04FF4C0705DF8044B7047022BF8D1DF
S21400530001705178137843EA0123A0F80130002099
S214005310F1E740F283105DF8044B7047012BE8D1AB
S21400532000230370127842701846E4E7012BE0D1A0
S2140053300370137843700020DDE7042BD9D10323D4
S21400534003709378547811781A0442EA04230B43C6
S214005350A0F801300020CEE7012BCAD10923E7E7E9
S214005360832303705178137843EA0123A0F80130B1
S214005370D178937843EA0123A0F803300020BAE7F7
S21400538010B50478852C51D8DFE804F043498252E2
S21400539052525249525252525252525252525050F5
S2140053A050505050505050505050505050505050F8
S2140053B050505050505050505050505050505050E8
S2140053C050505050505050505050505050505050D8
S2140053D050505050505050505050505050505050C8
S2140053E050505050505050505050505050505050B8
S2140053F050505050505050505050505050505050A8
S2140054005050505050505050505050505555656563
S214005410714621B1012B4CD84FF4C07010BD002B43
S214005420FAD0437813700123029A1360002010BD4F
S21400543040F2831010BD002941D0032BECD9B0F800
S214005440013013701B0A5370B1F8013093701B0AB9
S214005450D3700423E8E7012BDED9B0F801301370CF
S2140054601B0A5370029B02210020196010BD032BFB
S214005470D2D9B0F8013013701B0A5370B0F803305D
S21400548093701B0AD370029B04210020196010BD84
S214005490F1B1032BC0D9B0F90130137043F30723E1
S2140054A05370B1F90130937043F30723D37004238C
S2140054B0BAE7437813704B7853700223B4E7012B96
S2140054C0AAD9B0F8013013701B0A53700223ABE759
S2140054D0012BA1D9B0F90130137043F307235370A1
S2140054E00223A1E738B50E4C0E4B206019600AB9AE
S2140054F0104638BD02EB4204A4000346204615467B
S2140055009847094A106038B1224600213FF036F924
S214005510064B00201D6038BD4FF4C17038BD00BF7B
S214005520441D0020481D00203C1D0020401D00207A
S214005530F0B51A4C27686FB3194CD4F800E0002574
S214005540744603E0BD4204F10C040AD02688864265
S21400555005F10105F6D166888E42F3D140F281103E
S214005560F0BDDEF800405CB10EF10C0500240134FD
S214005570BC42AE460ED0DEF800600C35002EF6D1EA
S214005580CEF80420CEF80830AEF80000AEF80210D0
S2140055900020F0BD4FF4C170F0BD00BF401D0020DC
S2140055A03C1D002070B10368214A23F47F4323F09A
S2140055B00703934207D002F18072934202D1002380
S2140055C01B88FFDE704770B51A4B85881968C68839
S2140055D08CB0B9B1184B1C68002304E001338B4231
S2140055E004F10C040ED02288AA42F7D16288B24297
S2140055F0F4D1054605F1180207A8A97DEB7DFFF753
S2140056002FFE08B10CB070BDAE89A888E9882A893B
S2140056106B89009607AE0196D5F80E6002966E8AE4
S2140056200396AD8AEDB204956468A047EAE700BF2A
S214005630A0001F00401D00203C1D00202DE9F04F5B
S21400564087B002AC8246894690461F461098009462
S21400565003AA11999DF84C600A23FFF791FE10B13A
S21400566007B0BDE8F08F194B9DF80850184AD3F8DC
S21400567000B0109B14681B78F02D08D94FF4C57342
S2140056802BF8043FBBF8000007B0BDE8F08F129A75
S214005690E260A37403A92A46A4F804A0A4F806901E
S2140056A0A4F8088067812682E57404F114003EF0B1
S2140056B067FF2802214600F5F81000F5815041F8F2
S2140056C0040B01F00DFE0BF1040BDBE7181E0020A7
S2140056D0141E00202DE9F04186B002AD14460F4698
S2140056E0804619461046009503AA0A23FFF748FE8F
S2140056F010B106B0BDE8F0819DF80860134A144B5F
S21400570021781D681468F62E08D92B464FF4C5720A
S21400571023F8042F188806B0BDE8F0810C9BA36020
S21400572032462173667303A9A4F80480E78004F167
S2140057300E003EF025FF074821463602304441F869
S214005740040B01F0CDFD2B1D1888E4E7141E002085
S214005750181E0020200A1F01084B1B6870B51C4647
S214005760074E084D9880D98036681A7244F8045B54
S2140057702846214601F0B4FDB08870BD141E0020F6
S214005780181E002020051F02044B1B6823B11A8830
S214005790824201D09B68F9E718467047501D0020EA
S2140057A0084B9A68D00741BF07480168013101607D
S2140057B0910741BF0548416A21F0020141621A6122
S2140057C0704700BF00400440AC6C0020002004403E
S2140057D0024B4FF080525A60704700BF00ED00E069
S2140057E07047704770B50A4E7468B26823189A42BC
S2140057F005460BD92A46204600213EF0BFFFE31C93
S2140058001D4425F003057560204670BD002070BD60
S214005810501D002007B502AB042243F8041D1946AC
S21400582045F03EFA03B05DF804FB704770477047DA
S21400583070477047704770477047704770477047AB
S21400584070470346800B01280CD002D3022804D1EF
S2140058507047181C18BF01207047B3F57F4F2CBF48
S214005860042003207047094B10B540F201141C6059
S21400587098600120586011448A4204D0034812F808
S214005880014B8461F8E7D869C04310BD00C00140F1
S21400589002464FF0FF30FFF7E6BF38B50446251D39
S2140058A045F0F6F928460021FFF7B4FF04F108009A
S2140058B00121FFF7AFFF28460821FFF7E9FF014661
S2140058C02046FFF7A7FF002038BD08B5FFF75CFFAE
