S01A000062746D6573682D4C69677468734D6F64756C652E73333759
S21400000000000120E10E0000DD0E0000DD0E000005
S214000010DD0E0000DD0E0000DD0E0000DD0E00002F
S214000020DD0E0000DD0E0000DD0E0000DD0E00001F
S214000030DD0E0000DD0E0000DD0E0000DD0E00000F
S2140000401D140000DD0E0000DD0E0000DD0E0000B9
S214000050DD0E0000DD0E0000DD0E0000DD0E0000EF
S214000060DD0E000011100000B9100000DD0E0000CB
S21400007001400000DD0E0000DD0E0000DD0E000079
S214000080DD0E0000DD0E0000D9100000DD0E0000C1
S214000090DD0E0000DD0E0000DD0E0000DD0E0000AF
S2140000A0DD0E0000DD0E0000DD0E0000DD0E00009F
S2140000B0DD0E0000DD0E0000DD0E0000DD0E00008F
S2140000C0DD0E0000DD0E0000DD0E0000DD0E00007F
S2140000D0DD0E0000DD0E0000DD0E0000DD0E00006F
S2140000E0DD0E0000DD0E0000DD0E0000DD0E00005F
S2140000F0DD0E0000DD0E0000DD0E000010B5054C24
S214000100237833B9044B13B10448AFF300800123BE
S214000110237010BD001100200000000098E70400C6
S214000120084B10B51BB108480849AFF300800848D3
S214000130036803B910BD074B002BFBD0BDE8104089
S214000140184700BF0000000098E7040004110020D4
S2140001503C10002000000000154B002B08BF134B7E
S2140001609D46A3F5803A00218B460F461348144A55
S214000170121A43F0FBFB0F4B002B00D098470E4B98
S214000180002B00D098470020002104000D000D48E9
S214000190002802D00C4846F0ADFC42F0EDFF2000EF
S2140001A0290000F047FC42F0D7FF00BF000008001F
S2140001B000000120000000000000000000110020E8
S2140001C0B86C0020F56A0400517D04002DE9F04368
S2140001D0214D0378214F83B0014600260A2B0C469A
S2140001E009D00BB907E01BB114F8013F0A2BFAD16E
S2140001F0621AD2B242B923780A2B24D02146002BA9
S214000200ECD103B0BDE8F08395F82690286895F801
S214000210253095F824C097F800E0B0F800800E4826
S214000220019612FB0CFC4B4403FB0E935FFA8CFE0C
S214000230DBB2CEEB080E0093CEF3470303F0C8FA0A
S21400024023780A2BDAD13A78637801323A70611C47
S214000250002BC3D1D5E700BF201100204C11002091
S21400026038B5054603F080FC00B1FEE703F092F8CF
S21400027000B1FEE7084C204603F058F9034600B1EB
S214000280FEE76FF07F42204604496360A26003F0F9
S214000290E7FA034B1D6038BD201100207CA5040042
S2140002A01C11002010B50446084803F06BF9084AF4
S2140002B0084B106800221A70FFF788FF2046FFF7E9
S2140002C085FFBDE8104003F0A1B800BF2011002054
S2140002D01C1100204C110020704700BF704700BF63
S2140002E0704700BF30B5094A87B00023D578009321
S2140002F00146012402AA41F206008DF809508DF845
S214000300084004F0DDFA07B030BD00BF3012002010
S21400031030B5094B87B000241D780094014623466B
S21400032002AA4FF480508DF809508DF8084004F06A
S214000330C7FA07B030BD00BF3012002010B5042148
S2140003400A460520002302F019FD05200146042276
S2140003500023BDE8104002F011BD00BF10B50446F2
S214000360FFF7D6FF00B110BD024621464FF480507D
S214000370BDE8104004F0E6BA70B50F4C0346B8B0BE
S214000380013904EB411038AD194643F0E3FB002376
S21400039005F8E03D04F1E0062146284643F000FC5F
S2140003A020342846054943F0FBFBB442F4D12846E6
S2140003B0FFF778FF38B070BD5011002034A304005A
S2140003C010B50E4C0E49206844F2040304228380C4
S2140003D08271073043F0CCF921680A4841F8040BD3
S2140003E006F076F8084B1B68998809B9084610BDD0
S2140003F0064843F00DFB4FF0FF3010BDF41D002003
S2140004003012002020070D02F81D0020E49E040094
S2140004102DE9F04389B0234D119E2348BDF8408056
S2140004209DF850400F46A978914643F0F1FA71784E
S214000430AB788B4231D01D4843F0EAFA7378AB7044
S214000440FFF7BEFF04F0020202F0FF037AB9AD78B0
S21400045000933946072404AA41F204008DF811508F
S2140004608DF8104004F02CFA09B0BDE8F0830020A7
S21400047004ABAD78009301900290039039464A464B
S2140004804346072441F204008DF811508DF81040C1
S21400049004F0CAF909B0BDE8F083054843F0B8FA9D
S2140004A0D0E700BF30120020189F0400709F0400A1
S2140004B0449F04002DE9F043244C89B0E078BDF851
S2140004C04080119D9DF850700E469146E0B1204B3D
S2140004D02049012808BF19461F4843F099FA6B784F
S2140004E0E2789A422ED08BB91C491D4843F090FA08
S2140004F06B78E370FFF764FFBB070DD43046FFF759
S214000500F1FE09B0BDE8F0831449E5E7104A114949
S214000510012B08BF1146E8E7002004ABE5780093FE
S21400052001900290039031464A464346012441F228
S21400053006008DF811508DF8104004F075F909B0DA
S214000540BDE8F083074843F063FAD5E73012002091
S21400055088A00400909F0400989F04007CA00400DC
S214000560C49F0400449F04002DE9F04F8BB0474F12
S2140005701598BDF85C5090F801E0454E05939146FD
S2140005802B46169A4348BDF850809DF860B0424C02
S2140005908A46BEF1000F14BF3946314643F038FA9A
S2140005A0DDF814C03D4849464346624643F030FAFB
S2140005B0159B597823788B4263D0002914BF39469F
S2140005C03146374843F024FA169B0BB9002D31D03C
S2140005D0159A344B527834496270102020220860F5
S2140005E01A6032480621FFF7C7FE1699304B314A8B
S2140005F01B6831480D44ED031946A2FB0525AD09DD
S214000600012237265D601E725A7241F8040B05F00F
S2140006105FFF2946294843F0FBF9FFF7D1FE022386
S214000620E3701BF0020F14D15046FFF771FE0BB0BB
S214000630BDE8F08F159B5B7823706370F3B1194BA0
S2140006401F4810212022196006211A60FFF794FE29
S214000650E3E7002506A824780090019551464A460F
S2140006604346029503954FF480508DF819408DF857
S214000670185004F0D9F80BB0BDE8F08F0A4B1148BB
S214000680DFE7114843F0C4F9CBE700BF88A00400B9
S2140006907CA00400E09F04003012002020A004008C
S2140006A058A00400FCA00046FCA000448CA0040057
S2140006B0F41D0020D34D621020060C00A0A00400FC
S2140006C080A0040074A00400449F0400F8B5564CB3
S2140006D056495748574F082203F0FAFF00210422D4
S2140006E0204643F043F93B685348194644F2040257
S2140006F09A8041F8040B05F0EBFE504B1B689E8871
S2140007002046002E40F08880D91D9A7943F030F8B4
S214000710E578012D6ED04FD3022D24D1484843F002
S21400072077F9227863789A4255D0A078454D03F041
S21400073077FE0446444843F06BF9444B444A454828
S214000740202110262E6019603B68E403A2FB0424D7
S2140007501946A409372501225C601D725A7241F8B9
S214000760040B05F0B5FEFFF72BFE00213A4A3B4B83
S2140007703B4C4FF4805003F0D1FF0021394A3A4BEE
S21400078041F2070003F0CAFF0021384A384B41F215
S214000790040003F0C3FF2088FFF7E0FD248820460E
S2140007A0FFF7A0FD00B1F8BD214641F20600012288
S2140007B0BDE8F84004F0C6B82E4843F029F9214BAE
S2140007C026701021202266702B48196006211A60B8
S2140007D0FFF7D2FDC7E7294843F01AF92378C3B1DB
S2140007E01A4B274810212022196006211A60FFF7AD
S2140007F0C3FDB8E7234843F00BF9144B25701021CE
S214000800202265701E48196006211A60FFF7B4FDA5
S214000810A9E70C4B1848E5E70021042243F0A6F8A8
S214000820194843F0F5F8A0E730120020D93104004B
S214000830C9310400F41D002020020D03F81D00201D
S2140008401CA10400FCA000443CA10400FCA000463F
S214000850D34D621020060C0069050000D902000086
S21400086022000020B5040000DD0200001104000094
S214000870E1020000E4A0040074A0040060A10400EB
S21400088080A0040000A10400B4A00400002070476B
S21400089008B50021E022064843F068F80548FFF74F
S2140008A0DFFC05480321BDE80840FFF765BD00BF33
S2140008B05011002078A1040090A1040030B587B044
S2140008C0037842781D4901A843F044F901AA1C495F
S2140008D01C4843F09DF801A843F04EFBC4B2FB2C25
S2140008E011D9194B1B684FF4C5719980174843F00E
S2140008F08FF813480121FFF73FFD01A80221FFF7FB
S2140009003BFD07B030BD124D286800230322C3808C
S2140009100472828001A92246093042F029FF0D4860
S21400092029682402204441F8040B05F0D1FD064B4B
S2140009301B6899880029DCD0D8E700BFA0A1040076
S214000940C8A10400ACA10400F81D0020D8A1040032
S214000950F41D002020050A0210B5104C104A6378DA
S214000960104911482370002B08BF114643F050F879
S214000970237883B10D4B0E482022102119601A608F
S2140009800621FFF7F9FCFFF71BFD0A4BBDE81040F8
S2140009901888FFF7E3BC084B0848EDE73012002044
S2140009A07CA0040088A0040018A20400FCA0004656
S2140009B080A0040022000020FCA0004474A00400D4
S2140009C038B51548154C43F023F815480321FFF7B2
S2140009D0D3FC144B1B78FF2B07D0226812481371E8
S2140009E0114641F8040B05F073FD21680F4841F8E5
S2140009F0040B05F06DFD23680D4819464FF480354D
S214000A004D2401225D601C725A72BDE8384041F8E0
S214000A10040B05F05DBD00BF40A20400F41D0020DD
S214000A2050A204002000002020010B0220000D012F
S214000A3020060C002DE9F84F03F016F803F066F8D0
S214000A40CB48CC4DDFF8D083CB4FDFF8D0A3CB4CD0
S214000A50CB4EDFF8CC9302F0B5FA03F0AFFCC948F2
S214000A6006F0BAFA0DF038FB0DF054FB0DF02EFB35
S214000A700DF0F2FA0DF01AFB0DF012FB0DF0F2FA83
S214000A800DF03CFB0DF000FB0DF02CFB0DF0F0FA2A
S214000A9000F00CFA03F0E0FAFFF750FC01221346D0
S214000AA00520062102F06AF90122134605200721D7
S214000AB002F064F9FFF7ECFE05F0C2FE0168B24BE7
S214000AC021F47F4121F007019942834600F0B1806E
S214000AD017D8AE4B994200F08E804BD8A3F59813EA
S214000AE0994200F0E18003F50023994200F0B080BF
S214000AF0A3F59813994200F0A080A54842F088FF1D
S214000B00DAE7A14260D016D9B14200F02D814945FE
S214000B1000F026819F4B9942EFD190F804E09E4B5F
S214000B209E49B0F805209E48BEF1000F18BF194632
S214000B3042F06EFFC0E79B4B994200F0028103F142
S214000B408673994240F06E81974842F061FF97485D
S214000B500321FFF711FC2968954B4FF400524A60B9
S214000B6042220A7200224A72184641F8043B05F0F7
S214000B70AFFCA1E78F4B994244D003F5402399423E
S214000B8040F058814FF0000BA8F800B0FFF79EFD2C
S214000B90B8F80010884842F03BFF2B688448C3F83A
S214000BA004B01946422283F809B01A7241F8040BC1
S214000BB005F08EFC814B82481021202219601A60B5
S214000BC00321FFF7D9FB77E781887E4842F020FFB4
S214000BD07D480321FFF7D0FB2968754B4FF4803220
S214000BE04A604E220A7201224A72184641F8043BB5
S214000BF005F06EFC60E7754842F00AFF584603F0C1
S214000C00C7FD59E78188724842F002FF3B785A498F
S214000C10FF228AF80020002B3FF44EAF013BDBB2E8
S214000C200B70002B7FF448AF6A480421FFF7A4FB43
S214000C3042E7694842F0ECFE3EE7684B1B6823B18A
S214000C40674B1B68002B40F00F81FFF7B9FE33E7B8
S214000C50644842F0DDFE9BF80430002B00F0F08084
S214000C60BBF80510DBF807205F4842F0D1FE9BF882
S214000C7006109BF8053043EA01235C4900220B80EE
S214000C80A8F80020FFF722FD594B5A4A19785A4B0C
S214000C905A48002914BF1146194642F0B9FE484882
S214000CA00321FFF769FB07E70379373B172B3FF66E
S214000CB003AF01A252F823F03D0D0000B90A000070
S214000CC0B90A0000B90A0000B90A0000B90A000013
S214000CD0B90A0000B90A0000B90A0000B90A000003
S214000CE0B90A00002D0D0000B90A0000B90A00007C
S214000CF0B90A0000B90A0000B90A0000B90A0000E3
S214000D00B90A0000B90A0000B90A0000B90A0000D2
S214000D10190D0000190D00002968394B00220A71D0
S214000D20184641F8043B05F015FCC5E6354B102186
S214000D302022C3F80811C3F80821BDE6FFF70CFE11
S214000D40BAE6314842F064FE3B789BF80C202F4808
S214000D508AF80020013304213B70FFF70DFBABE659
S214000D602B4842F055FE70E72A4842F051FEA3E6B3
S214000D7000040140F41D002034120020A0001407D7
S214000D80A0001409AC9E0400A0000802A0001F00EA
S214000D90C8A40400A000140870A2040068A20400FE
S214000DA0B0A30400A000080538A3040050A3040064
S214000DB020060C00A000080160A30400FCA000446C
S214000DC0DCA2040084A30400A4A30400E8A3040097
S214000DD0A8A40400C4A104007CA404009821144222
S214000DE09C2114427CA2040090A204004E11002014
S214000DF03012002088A004007CA00400BCA20400DE
S214000E002001010100A0004044A4040070A40400D6
S214000E1020A40400D0A3040022000020200000200C
S214000E20A000140A03F17C4303F56F0399427FF494
S214000E3064AE41E6A3F5881399427FF45EAE3BE6C6
S214000E40134842F0E5FD03211248FFF795FA1248D1
S214000E5042F0DEFD2968114B03220A71184641F85C
S214000E60043B05F035FB27E629680D4841F8040BDE
S214000E7005F02EFB0B4B18680430FFF71FFD2968A2
S214000E80094841F8040B05F023FBFFF757FA13E671
S214000E90E8A2040000A3040010A30400200114012B
S214000EA020000103F81D00202000140030B50A4D74
S214000EB00FCD87B001AC0FC42B6823604FF0FF3016
S214000EC001A921F01AF820B94FF0FF30012121F0D6
S214000ED00EF807B030BD00BFDCA40400FEE700BF7C
S214000EE008B500F06DF8094A094B9A420CD2D04377
S214000EF0184420F00300074B0430184453F8041B32
S214000F0042F8041B8342F9D1FFF726F900000020BF
S214000F1040100020F4E904000048704700F0490241
S214000F200F4BD3F8943003F00703032B14D0042B95
S214000F300FD0022B0AD00B4B1868094BD3F80031A0
S214000F40C3F304230133B0FBF3F07047064B186875
S214000F50F3E7064B1868F0E74FF40040EDE700BFF4
S214000F6000400E4030000020280000202400002012
S214000F7008B5FFF7D5FF054B054AD3F80831C3F38C
S214000F8008230133B0FBF3F0106008BD00400E40AC
S214000F902C000020014B1868704700BF2800002076
S214000FA0054A064B1060D3F8943003F00703022B73
S214000FB000D07047FFF7DCBF2800002000400E403E
S214000FC0034AD2F8883043F47003C2F8883070477A
S214000FD000ED00E04FF40040704700BF4FF47A7019
S214000FE0704700BF014B1868704700BF2400002000
S214000FF0054A064B1060D3F8943003F00703042B21
S21400100000D07047FFF7B4BF2400002000400E4019
S2140010102DE9F8431A4B1A6ED96E11EA02081DD450
S214001020184C194F99460126002516EA080F0CD0D1
S2140010302368C9F8686028463BB1A1686268013138
S214001040A1609847637B012B09D00135082D4FEA34
S214001050460604F11004E8D1BDE8F883FEE707EB86
S214001060451303F1080218330028EED1117960F316
S214001070410111711A7960F341021A71E5E700BF68
S21400108000200E4038120020B812002070B504462A
S21400109078B1084E012594FAA4F0B0FA80F056F81C
S2140010A0203005FA00F224EA020403B19847002C27
S2140010B0F1D170BDB8130020064AD2F82804D2F841
S2140010C01C1445F2555308401840C2F82404FFF794
S2140010D0DDBF00BF00A00040064AD2F82804D2F8C0
S2140010E01C144AF6AA2308401840C2F82404FFF746
S2140010F0CDBF00BF00A0004008B5034B1B6803B17E
S2140011009847012008BD00BFF813002038B5194DD8
S2140011102B68044613B1984700B938BD631E032BED
S21400112005D8DFE803F00B161E0201F04BFC6B68D7
S214001130204613B19847204638BD38BD0E4A13697D
S21400114023F00403136130BF6B682046002BF1D1F7
S214001150F3E7002001F008FB6B682046002BE9D17E
S214001160EBE7002001F01AFB6B682046002BE1D16C
S214001170E3E700BF0014002000ED00E00C4A0D4B32
S21400118070B50D4C10600D4D616000221A705A70DB
S214001190256001F055FEC30300D470BD01F04AFE81
S2140011A06368002BF9D00420BDE87040184700BFE4
S2140011B0F8130020FC13002000140020F910000093
S2140011C02DE9F041184D01F021F92B78804613B92E
S2140011D001F010FB2B78154F002483B96B78002B99
S2140011E014BF02200320FFF791FFBB6806460BB131
S2140011F098470446E30704D52B78002BEED0012051
S214001200F1E7B31EDBB2012B05D9404601F002F927
S2140012103046BDE8F08101F0F1FA404601F0FAF8F8
S2140012203046BDE8F08100BFFC130020001400200B
S214001230831EDAB2012A00D970470549CA5C022823
S21400124002F10102CA54F7D1024B01221A6070471C
S214001250FC1300200400C6430238C3B2012B00D999
S2140012607047064B1A5C2AB91B78002BF8D1044A43
S21400127013607047013A1A54F6E700BFFC130020CB
S2140012800400C643054B1A782AB95B78002B14BFB6
S2140012900220032070470120704700BFFC13002087
S2140012A0DFF8D0C0304BF0B5DCF8007038683C464C
S2140012B01A1D03F1280E52F8041C39B118B11E7914
S2140012C02579AE4202D908461F461C4608337345A8
S2140012D002F10802EFD1CCF8007000283ED0234B74
S2140012E0DA6922F0FF02DA61DA6921790A43DA6103
S2140012F01A6B42F080421A63DFF87CC01C4BDCF8A5
S214001300007038683C461A1D03F1280E52F8041C7B
S21400131039B118B11E792579AE4202D208461F4669
S2140013201C460833734502F10802EFD1CCF8007072
S21400133070B10E4BDA6922F47F42DA61DA692179FC
S21400134042EA0122DA611A6B42F000421A63F0BDEB
S214001350064A136B23F000431363F0BD034A136B76
S21400136023F080431363C7E72414002000300E40A8
S2140013704C1400200C1400201C14002038B5224CFD
S214001380226B636A134020D45B001AD51F4B186883
S214001390056895B10021082242F0E8FA226A1C4945
S2140013A01C4B0868D2B2D20083FB0223A0EB53008A
S2140013B000F3070040B20121A847134B4FF08042CC
S2140013C0DA62BDE83840FFF76BBF134B1868056854
S2140013D095B10021082242F0C9FA226A0C490D4B49
S2140013E00868D2B2D20083FB0223A0EB530000F3BE
S2140013F0070040B20021A847034B4FF00042DA62D4
S214001400BDE83840FFF74CBF00300E400C140020FB
S21400141010140020676666661C140020FFF7AEBF37
S2140014201F4B204810B50021282201241C7042F0D2
S2140014309DFA002128221C4842F098FA1B4A1C48B4
S2140014401C491D4B03600B601368526DC3F30743C2
S214001450FF2B0ED0D2B2FF2A0AD01848D100A0FB2C
S214001460010103EB830002EBD00203EB910301E0E2
S21400147013469F22124C1349134822604FF04042F5
S2140014800360CA620B6B114A012023F040430B63D2
S214001490C2F880011060FFF703FF002010BD00BFF8
S2140014A074140020241400204C140020B081E00F97
S2140014B00C1400201C14002014140020CDCCCCCC1E
S2140014C02014002000300E401014002000E100E040
S2140014D0154BF0B541F67132144D1E6C1A645B68FC
S2140014E02A46002314798C4202F108020ED00133FA
S2140014F0052BF7D14FF040710B4A536823F0407329
S2140015000B43536076B100231364F0BD55F83340A7
S214001510DFF818E084424FEAC307E8D377447B79C4
S2140015201906E9E7F0BD00BF00000E400CA5040058
S214001530224B98423AD01AD9214B98423AD00CD82E
S214001540204B984225D003F5371303F5D86398420D
S2140015502AD11D4BD3F8A00070471C4B984214D0DC
S2140015601B4B984220D1184BD3F8B0007047194B4C
S214001570984215D011D9184B984211D0174B984263
S21400158012D1114BD3F88C0070470F4BD3F8AC0038
S21400159070470D4BD3F89C007047114B984203D10F
S2140015A0094BD3F88000704700207047064BD3F8ED
S2140015B098007047044BD3F8A8007047405DC600FB
S2140015C080BA8C010024F400B081E00F0048E801E6
S2140015D080D5430280841E0000093D00C0CF6A000B
S2140015E040420F0008B5FFF797FC0021BDE8084011
S2140015F0FFF76EBF0C4A0D4BD2F89010516A21F0DF
S214001600300141F0100110B45162146BC0F3C311E5
S214001610033123400F2928BF0F21034343EA0173F8
S21400162013635DF8044B704700400E4000F8FF0F50
S214001630FFF74EBFC0F30323013B30B4092B13D88A
S214001640DFE803F0251D121221272A120523144D68
S2140016504FF48034134AD2F84431DB07C0F3043029
S21400166004D528448000016030BC7047D2F8403171
S2140016701C42F6D0D2F840311C42F7D1F1E70A4DB1
S214001680C0F30430EDE7094DFAE7094DF8E7094DD8
S214001690F6E7094D0124DDE7084D1024DAE700BF20
S2140016A08007F21000400E400006F2108005F2108F
S2140016B0800AF2100000F2100007F2104007F21045
S2140016C0C0F30313013B062B45D8DFE803F0171DD4
S2140016D023292F3504002A4B984247D003F5B01330
S2140016E003F58053984236D1264BD3F82831C3F3FE
S2140016F0012304330120984001387047214BD3F86A
S2140017000001C0F3042070471E4BD3F81401C0F349
S214001710042070471B4BD3F80001C0F300607047ED
S214001720184BD3F80C01C0F308207047154BD3F8BC
S2140017300801C0F308207047134B98420DD0134B96
S214001740984208D10F4BD3F820310120C3F3011380
S214001750984001387047002070470A4BD3F8203174
S214001760012003F00F03984001387047054BD3F86B
S21400177028310120C3F3011398400138704700BF99
S2140017807017160000400E406006140060162A000F
S21400179008B5FFF795FF013008BD00BF00F00F0049
S2140017A00138072847D8DFE800F0121D3346283EE8
S2140017B04604264BD3F85C3103F03003202B40D090
S2140017C0302B40D0102B0CBF0720012070471F4B3A
S2140017D0D3F8943003F00703023B022B2FD81C4AA1
S2140017E0D05C7047194BD3F8803003F00703013BF9
S2140017F0042B22D8174AD05C7047144BD3F8883095
S21400180003F00703013B042B17D8134AD05C70473C
S2140018100E4BD3F8843003F00703013B042B0CD89F
S2140018200E4AD05C7047094B1B6F13F0010F14BFB4
S21400183009200720704700207047012070470520C8
S2140018407047042070470820704700BF00400E40D5
S21400185008A50400F0A4040000A50400F8A40400F1
S21400186010B50446FFF79AFF1E4B9C421DD01E4B38
S2140018709C4214D01D4B9C420BD0013804282FD814
S214001880DFE800F0032A19260300BDE81040FFF742
S214001890A1BB174BD3F8800000F00700EDE7144B10
S2140018A0D3F8880000F00700E7E7114BD3F8840070
S2140018B000F00700E1E7FFF75BFB0D4BD3F80021D4
S2140018C0C2F30062013201239340B0FBF3F010BD77
S2140018D0BDE81040FFF782BBBDE81040FFF782BBB3
S2140018E0002010BD03001C000500200002001A00A6
S2140018F000400E4000F47810B0F5901F08B573D085
S2140019001CD9B0F5E01F34D055D9B0F5281F35D016
S21400191067D9B0F5301F00F08280B0F5381F1AD1B5
S2140019205648FFF73BFF072842D0082800F09B8068
S214001930042810D1BDE80840FFF72CBBB0F5002FF7
S21400194013D00AD9B0F5402F2DD0B0F5602F2FD088
S214001950B0F5202F1CD0002008BDB0F5003F53D0B6
S214001960B0F5802F45D00028F5D1BDE80840FFF738
S214001970D7BA4348BDE80840FFF772BF4148FFF7B3
S2140019806FFF414BD3F82031C3F30113D84008BD95
S214001990FFF7C6FA3C4BD3F81431C3F304230133E4
S2140019A0B0FBF3F008BD3948FFF7F8FE072856D11C
S2140019B0374B186808BDB0F5B01F43D0B0F5D01F40
S2140019C03BD0B0F5A01FC6D12E48FFF749FF2E4BDF
S2140019D0D3F82021012302F00F029340B0FBF3F06E
S2140019E008BDB0F5001FB6D12A48BDE80840FFF78D
S2140019F037BFFFF795FA244BD3F80C31C3F308230F
S214001A000133B0FBF3F008BDFFF78AFA1E4BD3F89C
S214001A100831C3F308230133B0FBF3F008BD1848C0
S214001A20FFF71EFF184BD3F82821C2F30122043219
S214001A3001239340B0FBF3F008BD1248BDE8084010
S214001A40FFF70EBF0E48FFF70BFF0F4BD3F828210A
S214001A500123C2F301129340B0FBF3F008BD09283E
S214001A607FF479AF81E7FFF75BFA074BD3F80031D5
S214001A70C3F3042303FB000008BD00BF98002E003C
S214001A8003001C0002001A0000400E4006000C0076
S214001A903400002005002000C0F30313013B10B5FE
S214001AA00C46072B15D8DFE803F01E58626C7895B5
S214001AB0AA04944B98420CD1934AD2F84431D907E1
S214001AC008D5914BD3F8301121F003010C43C3F82D
S214001AD0304110BDD2F840315B03F2D5D2F8403128
S214001AE05B03F7D4EDE7FFF77DFD884A864B0121BF
S214001AF01160D3F8002142F08072C3F80021D3F8B9
S214001B00001121F4F85141EA0424C3F80041FFF71C
S214001B102FFA7F4B1C68002CFCD17E4B5968C1F312
S214001B200141FFF7D5FC7C48FFF7E4FE7B4B98426B
S214001B3040F283807A4B0121984294BF4FF0807424
S214001B404FF00074714A704B1160D3F8000120F01A
S214001B5080700443C3F8004110BD6B4BD3F81411DA
S214001B6021F4F85141EA0424C3F8144110BD664B31
S214001B70D3F8001121F0807141EA0464C3F80041F3
S214001B8010BD614BD3F80C1121F4FF3121F48071A4
S214001B9041EA0421C3F80C1110BDFFF723FD5B4A90
S214001BA0594B01211160D3F8002142F08072C3F82E
S214001BB00021D3F8081121F4FF3121F4807141EAA5
S214001BC00421C3F80811FFF7D3F9514B1C68002C09
S214001BD0FCD1A2E7534B984276D0534B984256D04E
S214001BE0484B98427FF475AF474AD2F84431D9073C
S214001BF03FF567AFD2F840315B03FBD461E74B4B50
S214001C00984226D003F5B01303F58053984216D1B8
S214001C103D4AD2F84401C40701F10103B3FA83F345
S214001C20C3F11B010CD5384AD2F8283123F440738F
S214001C3043EA0123C2F8283110BD214682E710BDD1
S214001C40D2F840315806EED5D2F840315806F7D4CF
S214001C50E9E72D4AD2F84401C00701F10103B3FABF
S214001C6083F3C3F11F0109D5274AD2F8283123F0A0
S214001C70300343EA0113C2F8283110BDD2F84031D0
S214001C805B06F1D5D2F840315B06F7D4ECE71E4A86
S214001C90D2F844014B1CB3FA83F3C3F11F01C30708
S214001CA009D5194AD2F8203123F0300343EA01134C
S214001CB0C2F8203110BDD2F840315C07F1D5D2F819
S214001CC040315C07F7D4ECE70F4AD2F84401C4076A
S214001CD001F10103B3FA83F3C3F11F0108D50A4AE1
S214001CE0D2F8203123F00F030B43C2F8203110BD89
S214001CF0D2F840315807F2D5D2F840315807F7D419
S214001D00EDE700BF8009120000400E404000C843C7
S214001D10C800C64300300E40002508000048E80111
S214001D200090D0036006140060162A007017160094
S214001D300139FFF7B1BE00BFF8B50546FFF7F8FB5F
S214001D40434B074611201E681D60FFF727FD052838
S214001D507BD0404B1C68002CFCD13F4B9D425FD093
S214001D603E4B9D4261D03E4B9D422BD01120FFF74B
S214001D7015FD052848D0B5423BD83A4B11201F61C7
S214001D80FFF70CFD052853D03748FFF7B3FD374B58
S214001D90984214D9364B0121984294BF4FF0807078
S214001DA04FF00070334B2F4A1960D2F8003123F001
S214001DB080731843B542C2F800011FD9F8BD002051
S214001DC00146EFE727F0C06747F080671120FFF76E
S214001DD0E5FC0528CFD1002423462649214A0B607E
S214001DE0D2F8003123F080731C43B542C2F800419C
S214001DF0C3D92846012100F037FDBEE700200121A7
S214001E00BDE8F84000F030BD184B9D42E4D9184CB0
S214001E100123A54294BF4FF080744FF00074DCE7B6
S214001E2027F0C06747F00077D0E727F0C067CDE718
S214001E30FFF79EF8104A1368002BFCD10F4B596829
S214001E40C1F30141FFF744FB9EE7FFF7CBFB80E7BA
S214001E50300000206028C84380841E0000093D0032
S214001E6040420F0000400E40002508000048E801F0
S214001E700090D0034000C843C800C64300300E4060
S214001E801C4B5B6A002970B523F0405314BF4FF01B
S214001E908055002542B343F000531D43FFF77AF800
S214001EA0154A06461468002CFCD1144B5968304677
S214001EB0C1F30141FFF70CFB114B9E4218D9114BA1
S214001EC001219E4294BF4FF080744FF000740E4B79
S214001ED0084A1960D2F8003123F080731C43054B82
S214001EE0C2F800415D6270BD1D43024B5D6270BD6D
S214001EF02146ECE700400E40C800C64300300E40C6
S214001F000048E8010090D0034000C843144B5B6AC9
S214001F1013F0300F10B408D020291DD030294FF40C
S214001F20800404D019B10F4A03E04FF480044FF444
S214001F3040020B49D1F89030094813409342F9D13A
S214001F4034B1D0F8A0005DF8044BC0F38020704791
S214001F5001205DF8044B704700244FF40002E8E7C8
S214001F6000400E40FFF3E17FF8B506280ED8DFE804
S214001F7000F0535A045F230D640041B93C4B08241B
S214001F803C4A14661A68002AFCD1F8BDF8BD3949E7
S214001F904B6A13F0300F57D1374BDB6B4B6ADB07BE
S214001FA061D54C6A324B24F0300444F001044C6294
S214001FB004260325012706E0304B2024102605259D
S214001FC00029DDD000272B490E6619680029FCD0B1
S214001FD0002ADBD02A4C2C44A4002368002BFCD01B
S214001FE00228D3D1002FD1D0224A536A13F0010120
S214001FF02FD1FFF78BFF1F4DD5F89C7002200021D4
S2140020000122FFF7B1FFC7F30A00FFF7F3FA2E66C7
S2140020102368002BFCD0F8BD1A4B4FF400744FF425
S21400202080760925CCE7184B802440260725C7E78D
S21400203001263546154B0224C2E7154B4FF40044E3
S2140020404FF480460F25BBE7094B042603250027DF
S214002050B9E720234FF48061C2F8A81019465366EA
S214002060FFF754FFC7E7024B042603250127AAE71C
S2140020700812C84300400E4000300E401012C843FD
S2140020808004F2102012C8431812C8430012C84336
S2140020903812C843112838B50C4641D000F00F005E
S2140020A0013807283BD8DFE810F0290189008700AF
S2140020B03A0069005F003A004800012001460246E7
S2140020C00324FFF751FFFFF78DFA944B94485C67A3
S2140020D0FFF710FC934B984240F2C280924B0121CE
S2140020E0984294BF4FF080704FF000708F4B8B4A31
S2140020F01960D2F8003123F080731843C2F800014B
S214002100FEF736FF8A4A1368002BFCD1894B5968C4
S214002110C1F30141FFF7DCF9002D00F0C18038BDA6
S214002120042900F0E48005295AD00025023C032C3F
S214002130F5D8DFE804F098459BA84C1E072CEED88F
S21400214001A353F824F000BFAD2200001F210000B9
S2140021501F210000D32200001F2100001F210000C5
S214002160C5220000C1220000072900F0BC80092912
S21400217040F09580694B01221A6738BD6E4D013CD0
S2140021800A2CCCD801A353F824F000BFF521000098
S21400219053220000452200001F2100001F210000DE
S2140021A00D2200001F2100001F2100001F2100003B
S2140021B009220000FB210000604DE0E7604DDEE7ED
S2140021C00120032401210A46FFF7CEFEFFF70AFA94
S2140021D0002D3FF47AAF564A1368002BFCD174E703
S2140021E0584A594B15689D429FD92846002100F051
S2140021F03BFB9BE700232B6038BD01210A460620E7
S214002200FFF7B2FE0523F6E70423F4E7FEF7B0FE79
S214002210444B984264D9444B0121984294BF4FF0F6
S21400222080704FF00070414B3C4A1960D2F8003184
S214002230464923F0807303430120C2F8003103238C
S2140022400860D8E7012001460246FFF78DFE01230D
S214002250D1E701210A460020FFF786FE0223CAE7DF
S2140022600020014642E700200424ABE72F4B2B4A10
S21400227001211960D2F80031022043F08073C2F8C1
S214002280003104469EE7294B244A01241C60D2F8FC
S214002290003143F08073C2F80031032092E738BD66
S2140022A028460121BDE8384000F0DEBA00211B4A6E
S2140022B0D2F85C3123F030030B43C2F85C3138BDF2
S2140022C03021F4E701210A460420FFF74DFE1021D5
S2140022D0EDE701210A460220FFF746FE2021E6E749
S2140022E0002001469FE70D4B00221A6738BDFEF717
S2140022F051FE054600287FF478AF16E78C1E0025B1
S214002300032C3FF60CAF01A353F824F0672200001D
S214002310BB2000006D2200008722000000400E4017
S214002320002508000048E8010090D0034000C8439C
S214002330C800C64300300E4088400E4084400E4021
S21400234080400E4030000020002D31010816C843A2
S214002350F8B504461120FFF721FA022000210122D9
S214002360FFF702FE1748277C416A174D2678A28899
S214002370E38821F00101022F08BF41F0010141620C
S2140023802E60617A41EAC221C162016B257AA27A87
S21400239001F07F610A43E91C42EAC3220F2942EAA0
S2140023A0C51328BF0F2143EA01730363A17B637B38
S2140023B0E27B247B090141EA0333134343EA0443E7
S2140023C04363F8BD00400E40A004C84370B5044601
S2140023D01120FFF7E3F9002001460246FFF7C4FD8F
S2140023E0A17863782278E478054D0648064E2E607C
S2140023F0090641EAC323134343EA0423036070BD7E
S21400240038400E4438400E467F1B0007EFF310801E
S21400241072B6704700B962B6704700BFEFF310801F
S21400242072B6704700B962B6704700BF024B9B6831
S21400243003EB80000164704700ED00E0F0B59646BF
S2140024409DF81860059A6BB17546002476B1A142D6
S21400245014D907682F6001349C4205F1040500F189
S2140024600400F3D1064BC3F808E0F0BDA1422F6884
S21400247002D9002FEFD1ECE7002FECD12A60EAE773
S21400248000ED00E00E2943680ED8012210B48A4001
S21400249047F2E004144023F01F0334B143F0100366
S2140024A0194341605DF8044B704740F61F741440B2
S2140024B0002CF7D00B434360F4E700BF70B4102A3B
S2140024C0056A046A036A066ACE600D604C608B601B
S2140024D007D1046A026A036A006AC8610C614A612D
S2140024E08B6170BC704700BF42EA032340F20112C2
S2140024F093425BD0B3F5817F14D340F2012293421E
S2140025004BD030D9B3F5407F24D040F2013293420D
S2140025103ED12B4BD3F878311A0EC3F30743036032
S2140025200A607047012B2AD00BD3B3F5807F2FD1DA
S214002530234BD3F86C311A0EC3F3074303600A60CB
S21400254070471F4BD3F86C31C3F30722DBB203602E
S2140025500A6070471A4BD3F870311A0EC3F307435C
S21400256003600A607047B3F5007F11D1144BD3F8AF
S2140025707031C3F30722DBB203600A607047104B6A
S214002580D3F87431C3F30722DBB203600A607047E6
S2140025900022134603600A607047094BD3F878316F
S2140025A0C3F30722DBB203600A607047044BD3F81C
S2140025B074311A0EC3F3074303600A60704700BF06
S2140025C0B081E00F1B4BD3F8803103282DD8DFE80D
S2140025D000F0272910021B0E79B91B0313F4702F85
S2140025E023D11549CA6E22F470421343CB660120EC
S2140025F07047C3F307430029EFD0012917D11B0307
S21400260013F4702F11D110B40B4CD4F8E02022F440
S214002610704213430846C4F8E0305DF8044B704738
S214002620DBB2D9E7C3F30723D6E7002070470120C3
S214002630704700BFB081E00F00300E40134B144AC5
S21400264019685868C1F30121C0F301401368002BD4
S214002650FCD1814201D9022900D0704710B5112063
S214002660FFF796F804461120FFF744F9094B04FBE0
S21400267000F0984205D811200521BDE81040FFF76C
S21400268009BD0548FFF758FBF5E700BF00300E40D0
S214002690C800C643002D3101C0EA210138B5184BE9
S2140026A0184C18781849194D194AC0F10200102321
S2140026B08340236145F60E03D1F88041C1F880318E
S2140026C02B6840F255101840086604F0010403F029
S2140026D001001368002BFCD10E4B1978052905D094
S2140026E01120FFF7D7FC2B6803F0010010B9064B4A
S2140026F002221A661CB1044B0022C3F8802138BDA2
S2140027008414002000300E4000400E40801400204C
S214002710C800C6438514002020B1012800D07047A9
S214002720FFF7BCBF0A4A08B50A4BD2F890201A60D9
S2140027301120FFF733F8084B084A18701368002B6F
S214002740FCD1074B074A5B68C3F30143137008BD0F
S21400275000400E408014002085140020C800C643A8
S21400276000300E408414002010B5044680B9FFF7F0
S21400277065FF094A136943F00403136130BF1CB9AF
S214002780BDE81040FEF7F4BBBDE81040FFF786BF7B
S2140027900020FFF7C1FFEAE700ED00E010B50446B1
S2140027A000BBFFF74BFF114BD3F88021D20748BF81
S2140027B0002245F60E004FF42071C3F8800119661A
S2140027C048BFC3F880210A4A136943F00403136123
S2140027D030BF1CB9BDE81040FEF7CABBBDE81040CC
S2140027E0FFF75CBF0020FFF797FFDAE700400E40D8
S2140027F000ED00E00020FFF78FBF00BFFFF74EBFE1
S214002800164B70B5D3F8003104460E46FEF788FB2B
S214002810134A1368002BFCD1124D6B68C3F30143B7
S2140028209C420CD0022C11D0C4F10202102393401B
S2140028302B612CB11EB10A4A1368002BFCD170BD67
S2140028402146FEF7F5FE002EF5D1F8E72146FEF705
S214002850EFFE10232B61002EEDD1F0E700400E4076
S214002860C800C64300300E4010B5104B82B0D3F8F7
S214002870004158B10E4B1B7813B10E4B98420ED93F
S214002880002002B0BDE81040FFF7BABF0191FEF786
S21400289047FBC4F3042404FB00000199EAE7022086
S2140028A002B0BDE81040FFF7ABBF00BF00400E40CF
S2140028B07C140020FF2C3101034B02781A70002094
S2140028C00121FFF7D1BF00BF7C140020044A4178E5
S2140028D0136823F4407343EA01231360704700BF74
S2140028E000300E40154903798A69F0B505784478BA
S2140028F090F802E0C7784679002D14BF042500251D
S21400290022F03F02002C14BF022400241A43BEF11A
S214002910000F14BF08200020002F0CBF134642F003
S214002920010343EA0502224302438A610B6823F44B
S214002930403343EA06430B60F0BD00BF00300E4054
S2140029401E498B6F1D4ADB07FBD4136C13F0030381
S2140029501CD01B4A0121834211601CD0032B02D1DC
S214002960431E012B18D915498A6F144BD207FBD486
S2140029701A6C22F0030202431A649A6FD207FCD440
S21400298000300F4B18BF0120186070470028E7D1B1
S2140029900B4B18607047704708494FF40023CB6212
S2140029A08A6F064BD207FBD41A6C22F0030242F061
S2140029B001021A645A6A1103FCD5D4E700300E40AF
S2140029C0B40AC64338B5124B4AF6E8529C699D696C
S2140029D09A60986924F4403410F0010044F40034FE
S2140029E045F4403505D11B6C03F00303013B012B76
S2140029F00AD9074B9C619D619C619D619C619D61AC
S214002A009C619D619C6138BDFFF79AFFF1E700BFAE
S214002A1000300E402DE9F04FA0F5E16489B00023A8
S214002A20B4F5966F02930393049305930693079366
S214002A306CD8B0F5E16F94BF00250125002D69D153
S214002A404A4BD3F86831C3F30724DBB207940493E8
S214002A504FF4167B4FF49669DFF814A10191DAF86B
S214002A604C60C6F301760446334602A805A9904694
S214002A702A46FFF739FDDAF8E070C7F301273B4630
S214002A8003A806A92A46FFF72FFDDDF810C0079B0E
S214002A9002980090C9EB0404CCEB03030798DDF81A
S214002AA014E00699039A03FB04F3B3FBFBF36344B9
S214002AB098422BD39C4529D8C2EB010909FB04F99F
S214002AC0B9FBFBF99144494520D34A451ED80099E5
S214002AD0C1EB0E0202FB04F4B4FBFBFB8B44DE45A9
S214002AE014D3594512D8B8F1000F0BD0DAF85C2091
S214002AF022F4FE4222F0020242EA032343EA45039E
S214002B00CAF85C30019B93B9012000E0002009B0B0
S214002B10BDE8F08F154BD3F868311C0EC3F307439E
S214002B20079404934FF4966B4FF4E16994E73046AC
S214002B300021FFF747FD0028E8D038460121FFF7BF
S214002B4041FD0028E2D00A4A536ED94538BFD9461F
S214002B5023F4FF7323F00103B9F1E70F28BF4FF00A
S214002B60E7092B4343EA49035366D0E7B081E00FF9
S214002B7000300E403A4B1A6FD96CC90730B402F0D9
S214002B80070241D5012A50D913285BD914381328D7
S214002B908CBF4FF47F424FF4EE42314C3148E36C29
S214002BA0314D23F47F431343E364E16C0288E06C09
S214002BB0C1F303210131283202EB620201EB8103EB
S214002BC0B2FBF3F3013B072B20F0EE6028BF072390
S214002BD040F4801242EA0363B5F90020E364002A59
S214002BE010DB206D28324B0002EB620203EB510330
S214002BF0B2FBF3F3072B20F0700028BF072340EA50
S214002C000313236530BC7047D96CCD0705D4012A61
S214002C101BD9DB6C6FF0FF02BFE7DB6CDC0701D56E
S214002C20012A08D96FF0FF02B7E7DA6CD1070CD596
S214002C30DB6CDB07F6D527288CBF4FF47F424FF4BA
S214002C40EE42AAE74FF44C52A7E70928FAD90A3809
S214002C5009288CBF4FF47F424FF4EE429DE700BF39
S214002C6000300E407E14002078140020054A064BE3
S214002C7006491B68136F23F007031843106708887C
S214002C80FFF778BF00300E408009C6437614002058
S214002C90C3884A2B70B5044605D9B3F5FA7F4BD2E4
S214002CA04FF0805000E000202C49B4F90C60CA6C4C
S214002CB02B4D22F0405323F00103002EA8BF43F013
S214002CC001030343CB64D1F8E03043F44073C1F80A
S214002CD0E030CB6E43F08073CB662868002834D192
S214002CE0FFF7C4FF1F4B2049204EA0882589A289E4
S214002CF01A8030800D80FFF73DFFA37B4BB3012B7E
S214002D0016D001210A466088FFF784FE054668B1A2
S214002D10124A6078D36B43F48063D363FFF710FEE8
S214002D20A37A134A003318BF01231360284670BDE8
S214002D300A4B104A9A65E4E740F6C310834294BFF4
S214002D404FF000504FF04050AEE70420FFF78EFFE4
S214002D50C8E7024B084A9A65D3E700BF00300E402A
S214002D608009C643781400207E14002076140020C4
S214002D709407C643372110B777402057F0B5450073
S214002D803AB12E189BBB1C4C3601344401268E40AB
S214002D9026602C18240104F18044072904F52044F9
S214002DA015D84FEA810E67680F2606FA0EF627EA50
S214002DB0060702FA0EF63E4366603AB92844C3B9DF
S214002DC00D4B0001034401228A401A60F0BD01F158
S214002DD08046083EA768B6004FF00F0E0EFA06FEB5
S214002DE027EA0E0702FA06F63E43A660E5E7034C1E
S214002DF0CAE7024BE5E700BF0CA000440CA0004663
S214002E00054A064B5168526841F671321A649A6850
S214002E1022F001029A60704700300E4000000E401B
S214002E20034B9A68002122F001029A6019647047E9
S214002E3000000E40014B01229A60704700500E4081
S214002E40144A154B70B400205468144E03F148051C
S214002E500DE0B2F5006F18D0B2F5803F15D02242D3
S214002E6002D0214208BF10430833AB4210D032686C
S214002E70196812F0040F53F8042CF0D1B2F5806FE5
S214002E8003D0E6D8B2F5007FE9D141F48071E6E7D9
S214002E9070BC704700500E4038A50400E841E00FB3
S214002EA0014B1860704700BF000084422DE9F041D6
S214002EB0857890F80180027983790478C17890F853
S214002EC005C090F807E0077A094E280140EA880016
S214002ED0204340EA411141EA022141EA0C3242EA2B
S214002EE0C33242EA0E4343EA47433360BDE8F0810B
S214002EF0002004400B4A5169136901F00F01C3F327
S214002F00811343EA81038370136903F03F03437020
S214002F109169D36901F0F002C3F3031313430370FE
S214002F20704700BFD0FF0FE070B5044615461E463A
S214002F3001B3202E24D01AD9402E16D0602E21D1CF
S214002F4004222368104823F06003236005FB02F286
S214002F504901236801EB5201B1FBF2F2203AD2009C
S214002F6010401E432660606170BD0622E9E756B930
S214002F701022E6E70548FEF7BDFC202E0146DAD112
S214002F800822DEE770BD70BDF8FF7F0040410500F7
S214002F9038B50546144619B90548FEF7ABFC014698
S214002FA001396400B1FBF4F10902696138BD00BF64
S214002FB040410500CB4303F005035B00C360C160DE
S214002FC0704700BF134A1449002330B4904240F6BD
S214002FD0AA6541F20504C5600360446083604361EE
S214002FE0C364816443678367C3670AD002F580625F
S214002FF0904209D002F58062904202D0836530BCD0
S214003000704700230365F9E7036530BC8365C36535
S214003010704700BF00000140F9FF0100F8B50C46FC
S2140030200546FFF7CFFFA37C1BB12B6843F0804318
S2140030302B60E37C1BB1237D43F08003AB65278ABE
S214003040607BE6896168A268237B3843304368600A
S2140030502846FFF769FFE27DA37D617D12051B0709
S21400306002F4E00203F0E04313432B6619B12B6829
S21400307043F480332B606A6F207E217822F0300282
S2140030806A676B6F03436B67E960F8BD70B50C4603
S2140030900546FFF797FF238AA67B2A68207DA17C3A
S2140030A043F00103002E9BB243EA020314BF4FF421
S2140030B08062002213432B602B68002814BF4FF059
S2140030C00052002213432B6019B1E37C43F08003C7
S2140030D0AB65237B6168A26843F480536B60284627
S2140030E0FFF756FF637B0BB11023EB60E27DA37DF9
S2140030F0617D12051B0702F4E00203F0E043134370
S2140031002B6619B12B6843F480332B602378EB6071
S21400311070BD00BF03691B06FCD5C069C0B270470E
S21400312003695A06FCD5416303699B06FCD5C06952
S214003130C0B2704703695B06FCD54163704700BFA9
S21400314003695B06FCD5C163704700BF2DE9F04FED
S2140031505E4C87B024680292002C00F0B280DFF844
S21400316070C19CF811201AB10A2007B0BDE8F08F94
S214003170DFF860A1BAF806501E46DCF8083029448D
S21400318089B2DB080191009301FB03F5002E49D0BC
S214003190DFF844B1254490460127BAF808409CF869
S2140031A01020BAF80430241AB44228BF3446012A44
S2140031B0A6EB040623D8029900290CBF4FF0FF099E
S2140031C04FF00009012A04BF6FEA09095FFA89F97E
S2140031D00344072C9BB229D81C44B9F1000F4BD1ED
S2140031E0A3420CD2D90803F007006A5C013307FA41
S2140031F000F09BB222EA00029C426A54F2D8019B7D
S2140032004344591103F01F035BF8212007FA03F328
S2140032101A43009B4BF821201D4408F101080020AA
S214003220002EBAD1002007B0BDE8F08FD9086A1882
S21400323013F0070303922ED007FA03F2685C083BEC
S214003240013AD2B21C44039B104029EA0202024310
S21400325001335FEAD40E03936A541ED1039907FA2A
S21400326004F30A78013BDBB203EA090922EA030306
S21400327043EA09030B70C2E7A342C0D2D90803F0A1
S2140032800702685C013307FA02F29BB202439C42D3
S2140032906A54F3D8B3E74FEAD40E039BCDF814C0B4
S2140032A01846724673444946CDF810E0039340F042
S2140032B05DFBDDF810E0DDF814C0B4EBCE049ED064
S2140032C0CCE7012007B0BDE8F08F00BF88140020CF
S2140032D08C140020B8140020D8650020044B1B78FE
S2140032E01BB1044B0360002070470120704700BFED
S2140032F0C4140020B814002070B40E4C247874B1A6
S2140033000D4C25888618AE4202DD042070BC70473E
S2140033106588CE18AE42F8DC22B90520F6E7012013
S21400332070BC7047002BF8D0A080E18022816381BA
S2140033300020EBE7C4140020B8140020064A30B47E
S2140033401478039D24B11A462B4630BCFFF7FEBE08
S214003350012030BC704700BFC4140020F8B50A4CEA
S2140033600A4DA6696168E2682B4607462046B047C4
S2140033702B683BB13B60FF211022054840F0F6FA6F
S2140033800020F8BD0B20F8BD8C1400208814002007
S214003390D8650020F8B5194D2B780BB10020F8BD84
S2140033A000F0E2FB00B1F8BD154E314600F0F6FB2A
S2140033B000B1F8BD134F3846FFF7D0FF0446C8B932
S2140033C03B68C3B1B6F804E0B7890F4E4FF0010C66
S2140033D007FB0EF301460246A6F800E07780B080B1
S2140033E0F080A6F808E0778185F800C0FFF7AEFE0B
S2140033F02046F8BDF8BD0B20DBE700BFC414002054
S2140034008C14002088140020B81400202DE9F04FFA
S2140034102A4FDFF8AC80BA68FB68D8F80040DFF8BF
S214003420A49085B000204FEAD20A0122BB4601468E
S214003430054603929D420AD214F0010211D00130D3
S2140034404518EA0612D09D424FEA5404F4D320BB36
S2140034501B480021102240F089FA002005B0BDE884
S214003460F08F50B901314518EA06ECD1039E32467A
S214003470013258F826400392DCE77B680190D9F8C1
S214003480000000913E6A0AFB01010C48B047002884
S214003490E4D1691CDBF80C30D2E70A4A7B68126874
S2140034A0009101900AFB01213C6A04480022A047D3
S2140034B00028CDD005B0BDE8F08F00BF8C140020EA
S2140034C0D865002088140020014642698369098A6D
S2140034D0808901320133121A5B1A92B29BB2FFF74F
S2140034E00BBF00BF0B688A68934201DB042070475D
S2140034F0F0B44D68C9688D4202DB0420F0BC70470A
S214003500002B0FDB002D0DDB06683788BA4209DA80
S2140035107688B14206DAC360056142618161F0BC1B
S214003520FFF7D2BF0320F0BC704700BF30B587B0AE
S21400353008B300226FF07F4342608360044601A810
S214003540FFF7CCFE054698B9019B23601A885B8876
S2140035500290013A013B204602A903950492059386
S214003560FFF7C0FF054618B92046054900F078F970
S214003570284607B030BD0525284607B030BD00BF39
S2140035807CA50400F0B130B590E828000446002081
S2140035901A885B88014683B0FFF7AEFE014670B915
S2140035A02268EBB200935489138903FB04F301935A
S2140035B0C5F30742C5F30723FFF7C0FE01460846DA
S2140035C003B030BD05210846704700BF70B50446FD
S2140035D082B0B8B10C300E46154600F035F810B97A
S2140035E0012002B070BDA3680124DAB20092B0B226
S2140035F0C3F30742A9B2C3F307230194FFF79EFE65
S21400360002B070BD052002B070BD00BFC8B170B575
S2140036100C3082B01C460E46154600F015F810B960
S214003620012002B070BDE2B201238DE80C00B0B2FA
S214003630A9B2C4F30742C4F30723FFF77FFE02B024
S21400364070BD0520704700BF78B103688B420BDC65
S2140036508368994208DC4368934205DCC06882426E
S214003660CCBF002001207047002070472DE9F04FA6
S21400367090F8284085B0022C9DF8387000F08C80B9
S214003680203989B20091048C8C4203DC022005B0FC
S214003690BDE8F08F90F82510C4690394002900F067
S2140036A095800293002690F8243001969046814635
S2140036B099F82220012A7CD0022A75D1039A009913
S2140036C032F81150002B7ED0029A019902EB010BC2
S2140036D0DA46002407E0002F3BD10134A4B29C4216
S2140036E04FEA550513D2EA07F5D5484604EB08011C
S2140036F05246FFF76BFF0128C9D800B9013699F882
S21400370024300134A4B29C424FEA5505EBD321463F
S21400371099F827001A188A4209DD029A019D551960
S2140037203FBB0134A4B21A1894422146F8DB019834
S21400373099F82320009C99F82510013080B2144493
S214003740A2B2814201900092B2D8B6FA86F0400941
S2140037509DE7484608EB04015A46D9F80430FFF7BF
S21400376055FF012893D899F824300028B5D10136A2
S214003770B3E7414448462A46D9F80430FFF746FFE7
S214003780012884D899F8243010B199F82700C8E7A2
S21400379099F827000136C4E73A2911D020290CD021
S2140037A0303989B200916EE7039A009932F82150B9
S2140037B088E7039A0099555C84E70B21009162E73D
S2140037C00A2100915FE719461C46A1E701205EE743
S2140037D02DE9F04F83B0DDF830809DF834B038B175
S2140037E031B190F828403CB9022003B0BDE8F08F14
S2140037F0052003B0BDE8F08F82B3054699460C4617
S2140038008F181E464FF0000A13E0CDF800B0284689
S21400381032464346FFF72AFF0128E6D808B90AF1E0
S214003820010A95F8242095F8273013441E44BC421C
S21400383010D014F8011B0A29A1F1200302D05E2B38
S214003840D2D8E2E795F8253095F82620984490449B
S2140038504E46ECE7BAFA8AF04009C6E70120C4E70C
S21400386038B108B51C30102229B13FF081FF002086
S21400387008BD0520704740F079F8052008BD00BF58
S2140038802DE9F04F664B674A186859681C7AD2F8DB
S214003890B02089B005AB03C352071C7040F1B88056
S2140038A04FF0000860485F4CFDF778FF032107469D
S2140038B05D48D4F89050FEF7EDFB5C48FDF768FFD6
S2140038C0D4F8F0300390DB0705F0400540F199800E
S2140038D000230193FEF7A2FD554A136813F0010476
S2140038E0814673D013685349029340F2FF76002353
S2140038F04FF00040546A1360536216620126C1F806
S21400390080010023082205A88DF816308DF81730A0
S2140039108DF81820FFF7CAFA4748454A4FF48053F7
S2140039200360964603685B00036063B19168936822
S2140039309942FCD0DEF808100368013BFDD8DEF89B
S21400394008309942EED00368394ADFF8ECB05B08DD
S2140039500360D0F800E092464FF0080C5FEA5E0E77
S21400396019D003684EEA030303609168936899428E
S214003970FCD0DAF808100368013BFDD8DAF8083006
S214003980994205D0DBF8003023EA0E03CBF800306E
S214003990BCF1010CE2D14846FEF744FDCEB10399D6
S2140039A02248FEF7C5F9224B029A1A605C62019B18
S2140039B0ABB9032F19D1F5B1B8F1000F03D01F48EA
S2140039C00021FDF737FE09B0BDE8F08F02942646C9
S2140039D097E73046FFF764FA019B002BE9D01348BF
S2140039E00021FDF727FE032FE5D039460E48FEF7E7
S2140039F051FB002DE0D1012029462A46FEF7B4FAF5
S214003A00DAE70A480121FDF715FE0123019361E775
S214003A100A480121FDF70EFE4FF0010842E700BFFD
S214003A20ACA8040000400E400500200080091200EB
S214003A300020044000E100E03800002000250800D7
S214003A4003460849002B0CD0013B882212020032A4
S214003A5053430A68D80AD20A5043800901D0013875
S214003A60FDD870473800002070B5224D224E0FCD8D
S214003A7088B002AC0FC495E8030084E803001F4832
S214003A800121FDF7D7FD1E480121FDF7D3FD0124D6
S214003A901C4B0493304602A98DF81640FFF7F6FA41
S214003AA02346022006210422FFF768F92246022058
S214003AB007210023FFF762F923460220082104228B
S214003AC0FFF75CF9042123460A460020FFF756F963
S214003AD00D4BB3670B2249F23D6372670193019B5E
S214003AE0002B05DD019B013B0193019B002BF9DCBC
S214003AF008B070BDB8A804000004014000350800F6
S214003B000042040000127A000B0B000B38B5134B72
S214003B1010221A6014241248FF21FFF701FB013C13
S214003B20F9D1104B10221A601E240D48FF21FFF712
S214003B30F7FA013CF9D105240948FF21FFF7F0FA0E
S214003B40013CF9D1054B064810251D60B921FFF749
S214003B50E7FA044B20461D6038BD00BF0CA00044A9
S214003B60000401400CA000460A4A13786BB910B551
S214003B70094C2368012111701BB908E054F8043F72
S214003B802BB198470028F9D010BD002070470020C0
S214003B9010BD00BFF81400203C000020094B1B7825
S214003BA00BB909487047002801DD0848704710B572
S214003BB0074C03462C22084602FB03413FF0D8FD83
S214003BC0002010BDF81400200500118002001180AE
S214003BD0CC1400200B4B1B780BB90B48704710B564
S214003BE00A4C2368002B01DD094810BD0146094830
S214003BF02C2202FB0300013323603FF0B9FD0020B6
S214003C0010BD00BFF814002005001180C814002065
S214003C1001001180CC140020802901D0094870478B
S214003C200949086810B4094C00EB0212A24205D9F3
S214003C30002207481A605DF8044B704718600A6057
S214003C400020F8E70200118044000020FC1C002041
S214003C5001001180004870470400118008B500F08C
S214003C6033F900F0E9F8002008BD00BF70B51E4625
S214003C7053B10C460025204610220135002114447D
S214003C803FF074FEB542F6D1002070BD2DE9F04736
S214003C9082B00C460A9D0B9F0E210320013500F0D2
S214003CA043F9ADB2062000F015F902AE2B0243F040
S214003CB0010326F8023D0221304600F0E5F807B37E
S214003CC0013507F1FF384FF0000A4FF6FF79102153
S214003CD020460C4400F0D8F8D04505EB0A031CBF7C
S214003CE01B0243F0FF034FF002010AF1010A3046BF
S214003CF00CBFADF80690ADF8063000F0C5F8BA4532
S214003D00E5D1022000F0E6F80E21032000F01AF9B3
S214003D10002002B0BDE8F08708B50D21032000F0B2
S214003D201FF9002008BD00BF08B5032021B90F21E8
S214003D3000F008F9002008BD0F2100F0F5F800207B
S214003D4008BD00BFF0B58DB000F0BEF800F074F806
S214003D5000F0D2F8002213460821022000F0D6F820
S214003D60002213460621022000F0D0F80022134657
S214003D700E21032000F0CAF8002213460F2103206C
S214003D8000F0C4F8002213460D21032000F0BEF810
S214003D9021480021802200F0A3F808B10DB0F0BD44
S214003DA08023DFF890C01D4C1D491E4A8DF8150073
S214003DB04FF0010E1C4F1D4E1D4D099401A8CDF865
S214003DC004C08DF814E002930493039306970796B5
S214003DD008950A910B92FFF7FDFE04460028DDD1F8
S214003DE00F21032000F0A0F80E21032000F09CF81D
S214003DF0062000F06FF80CA8042320F82E3D0221C0
S214003E0000F042F8022000F065F80E21032000F0D2
S214003E1099F820460DB0F0BD193D00008D3C00001D
S214003E206D3C00005D3C0000293D0000193C000090
S214003E30553C0000D0A8040070B50F4D0F4E0FCDB6
S214003E4086B06C460FC495E8030084E803000C486F
S214003E500121FDF7EFFB30460A4B02936946FFF758
S214003E6015F90A237367B36F23F01F2343F00B2360
S214003E700020B36706B070BDE8A804000004014047
S214003E8000420400E067350038B505460C465CB1D4
S214003E90012C0C4801D0EA070CD5013C15F8011B93
S214003EA0FFF748F9002CF3D1064A13699B06FCD5A8
S214003EB0002038BD034835F8021BFFF741F9023CE5
S214003EC0E5E700BF0004014008B5FFF7D9FC002075
S214003ED008BD00BF08B5FFF7B3FD002008BD00BF52
S214003EE008B5FCF7D3FC034B002814BF1846002087
S214003EF008BD00BF0200138008B503480121FDF786
S214003F0099FB002008BD00BF0035080010B5144618
S214003F100AB1044810BDC0B20422FEF72FFF2046A7
S214003F2010BD00BF01001380C0B200EB4000044B80
S214003F300001034401228A401A600020704700BF37
S214003F400CA00046C0B200EB4000044B0001034446
S214003F5001228A401A600020704700BF0CA000446F
S214003F60C0B200EB4000000100F1804000F52040A8
S214003F7001238B4083610020704700BF00207047FC
S214003F80FEE700BF4FF400534B600020704700BFB1
S214003F90012070470020704770B5164682B10D4666
S214003FA0002404E00134A64205F8010B06D000F018
S214003FB0B7F8431CF6D11CB1204670BD304670BD24
S214003FC04FF0FF3070BD00BF044A05491368002B50
S214003FD008BF0B461844106018467047FC1C0020AB
S214003FE0B86C002070B5161E07DD0C468D1914F847
S214003FF0010B00F0C1F8AC42F9D1304670BD00BFED
S214004000104838B503691B0600D438BD0E4C256829
S214004010FFF780F80D4A0E4B505522680132226099
S2140040201A6801321A602268082A04BF0022226039
S2140040301B68074A082BE8DD064900232360136047
S2140040400B6038BD00000140101D0020041D00203C
S214004050181D0020141D002070B52948294D2A4E31
S21400406088B00121FDF7E6FA28480121FDF7E2FABB
S2140040700020014604220123FEF780FE00200121D5
S21400408003460A46FEF77AFE0FCD01AC0FC495E84C
S2140040900700012384E80700042200200521FEF71C
S2140040A06DFE1B480121FDF7C5FA08A9002401F89A
S2140040B01C4D3046FEF7B2FF03237367B36F154AF5
S2140040C023F4F85304204FF4805123F01F03B36702
S2140040D0B064C2F88011F36C0343F3643046116099
S2140040E00521FEF767FF0C4B1B68214698680222E5
S2140040F023463FF0B3FC094B01221A7008B070BD8E
S2140041004041050000A904000000014000350800F9
S2140041100032040000E100E0880900200C1D0020A9
S214004120114B1B7810B5CBB1FEF778F90F4A136820
S214004130002B16DD0E4B0F4C1968645C19680131B4
S21400414019601968082904BF002119601368013B2B
S214004150E4B21360FEF766F9204610BDFFF77CFF59
S214004160E2E74FF0FF34F5E70C1D0020181D002095
S214004170141D0020041D002038B5124B1B78044681
S21400418073B1114D11482B780BB10A2C11D0214672
S214004190FEF7D0FF2B780BB10D2C04D0204638BD8F
S2140041A0FFF75AFFEDE709480A21FEF7C3FF20464E
S2140041B038BD0D21FEF7BEFF04482146FEF7BAFFC4
S2140041C0ECE700BF0C1D0020001D00200000014091
S2140041D0F0B5214B89B0186859689A68DB6804AC5A
S2140041E00FC44FF0010E0024C8212022A0234FF454
S2140041F0E1670F260A2504A88DF811E0ADF818101F
S2140042008DF81A20ADF81C308DF81040ADF81270FD
S214004210ADF81460ADF81650FEF73AFD08A800F8A1
S214004220204DFEF749FB022301A88DF805308DF8D6
S2140042300440FEF74BFB02A88DF808408DF80940B5
S2140042408DF80A408DF80B408DF80C408DF80D4027
S214004250FEF748FB09B0F0BD1CA9040070B5394E46
S214004260354686B055F8100FEB686968AA682D8A3F
S21400427001AC0FC401A82580FEF76AF83248FCF7A7
S2140042808FFE01210A460220FDF76EFE01210A4636
S2140042900020FDF7F5FD00210A460320FDF764FE29
S2140042A001212A48FDF7C6F9706A00902023684667
S2140042B08DF80030FEF78AF801210A460020FDF747
S2140042C053FE4FF40040FCF793FE21480221FDF711
S2140042D0E1FE20480221FDF7DDFE1F480221FDF722
S2140042E0D9FE1E480121FDF7A5F91D480121FDF75D
S2140042F0A1F91C480121FDF79DF91B480121FDF796
S21400430099F91A480121FDF795F9194B1A6822F018
S2140043101F021A601A6822F478721A60D3F87021A5
S21400432022F08052C3F87021D3F8702122F00102E7
S214004330C3F87021D3F8702122F00202C3F870216E
S21400434006B070BD1CA9040000F049020025080054
S21400435002001A0003001C0005002000006508008B
S21400436000550800004508008009120000350800C6
S21400437000400E4030B5104B53F8280F85B05968F2
S2140043801D7A01AA03C200230521012401A8157085
S2140043908DF804408DF805308DF806308DF807301E
S2140043A08DF809308DF80A308DF80B308DF808102E
S2140043B0FEF77CFD05B030BD1CA90400104A11496B
S2140043C0F8B51368DFF854E00F4E104C104F114D3F
S2140043D043F480734FF4167C4FF4F0701360CEF8FD
S2140043E000C0376025600860FFF7F2FEFFF736FF73
S2140043F0FFF7C0FF084B5A6B5A639A6B9A63F8BD77
S21400440000000E4094420E4090420E40FC420E4089
S2140044104A5D050028E2160000600E408C420E4001
S21400442010B5094B04460FCB84B00DF1100E0EE903
S2140044300F00A3090EEB830304F03F0453F8100C9F
S21400444000FB04F004B010BD50A9040010B483298A
S21400445045D8DFE801F05961496849495454547712
S21400446054545454544444444444444444444444B7
S21400447044444444444444444444444444444444F7
S21400448044444444444444444444444444444444E7
S21400449044444444444444444444444444444444D7
S2140044A044444444444444444444444444444444C7
S2140044B044444444444444444444444444444444B7
S2140044C044444444444444444444444444444444A7
S2140044D044444444444449494942042B36D04FF4AA
S2140044E0C0705DF8044B7047022BF8D1017051780C
S2140044F0137843EA0123A0F801300020F1E740F2E8
S21400450083105DF8044B7047012BE8D1002303703D
S214004510127842701846E4E7012BE0D10370137856
S21400452043700020DDE7042BD9D103230370937872
S214004530547811781A0442EA04230B43A0F8013099
S2140045400020CEE7012BCAD10923E7E783230370B7
S2140045505178137843EA0123A0F80130D178937894
S21400456043EA0123A0F803300020BAE710B5047828
S214004570852C51D8DFE804F0434982525252524902
S2140045805252525252525252525250505050505012
S2140045905050505050505050505050505050505016
S2140045A05050505050505050505050505050505006
S2140045B050505050505050505050505050505050F6
S2140045C050505050505050505050505050505050E6
S2140045D050505050505050505050505050505050D6
S2140045E050505050505050505050505050505050C6
S2140045F0505050505050505055556565714621B139
S214004600012B4CD84FF4C07010BD002BFAD0437865
S21400461013700123029A1360002010BD40F283102D
S21400462010BD002941D0032BECD9B0F8013013702F
S2140046301B0A5370B1F8013093701B0AD370042321
S214004640E8E7012BDED9B0F8013013701B0A53706F
S214004650029B02210020196010BD032BD2D9B0F8AE
S214004660013013701B0A5370B0F8033093701B0AA6
S214004670D370029B04210020196010BDF1B1032BFA
S214004680C0D9B0F90130137043F307235370B1F962
S2140046900130937043F30723D3700423BAE74378BB
S2140046A013704B7853700223B4E7012BAAD9B0F8E5
S2140046B0013013701B0A53700223ABE7012BA1D9FC
S2140046C0B0F90130137043F3072353700223A1E7B8
S2140046D038B50E4C0E4B206019600AB9104638BD2E
S2140046E002EB4204A4000346204615469847094AB2
S2140046F0106038B1224600213FF038F9064B002002
S2140047001D6038BD4FF4C17038BD00BF241D0020A9
S214004710281D00201C1D0020201D0020F0B51A4C6E
S21400472027686FB3194CD4F800E00025744603E000
S214004730BD4204F10C040AD02688864205F1010524
S214004740F6D166888E42F3D140F28110F0BDDEF8D5
S21400475000405CB10EF10C0500240134BC42AE46AC
S2140047600ED0DEF800600C35002EF6D1CEF8042010
S214004770CEF80830AEF80000AEF802100020F0BD0B
S2140047804FF4C170F0BD00BF201D00201C1D00208E
S21400479070B10368214A23F47F4323F00703934252
S2140047A007D002F18072934202D100231B88FFDEFD
S2140047B0704770B51A4B85881968C6888CB0B9B131
S2140047C0184B1C68002304E001338B4204F10C04F0
S2140047D00ED02288AA42F7D16288B242F4D10546AA
S2140047E005F1180207A8A97DEB7DFFF72FFE08B19B
S2140047F00CB070BDAE89A888E9882A896B890096B6
S21400480007AE0196D5F80E6002966E8A0396AD8ABC
S214004810EDB204956468A047EAE700BFA0001F0059
S214004820201D00201C1D00202DE9F04F87B002AC93
S2140048308246894690461F461098009403AA11990E
S2140048409DF84C600A23FFF791FE10B107B0BDE853
S214004850F08F194B9DF80850184AD3F800B0109BFB
S21400486014681B78F02D08D94FF4C5732BF8043F55
S214004870BBF8000007B0BDE8F08F129AE260A374A0
S21400488003A92A46A4F804A0A4F80690A4F8088071
S21400489067812682E57404F114003EF069FF280261
S2140048A0214600F5F81000F5815041F8040B01F0A0
S2140048B00FFE0BF1040BDBE7F81D0020F41D0020B3
S2140048C02DE9F04186B002AD14460F4680461946E3
S2140048D01046009503AA0A23FFF748FE10B106B05B
S2140048E0BDE8F0819DF80860134A144B21781D68D6
S2140048F01468F62E08D92B464FF4C57223F8042FF9
S214004900188806B0BDE8F0810C9BA3603246217380
S214004910667303A9A4F80480E78004F10E003EF055
S21400492027FF074821463602304441F8040B01F0C1
S214004930CFFD2B1D1888E4E7F41D0020F81D00208D
S214004940200A1F01084B1B6870B51C46074E084D11
S2140049509880D98036681A7244F8045B2846214647
S21400496001F0B6FDB08870BDF41D0020F81D0020D3
S21400497020051F0200000000044B1B6823B11A88A4
S214004980824201D09B68F9E718467047301D002028
S214004990084B9A68D00741BF07480168013101609B
S2140049A0910741BF0548416A21F0020141621A6140
S2140049B0704700BF00400440AC6C0020002004405C
S2140049C0024B4FF080525A60704700BF00ED00E087
S2140049D07047704770B50A4E7468B26823189A42DA
S2140049E005460BD92A46204600213EF0BFFFE31CB1
S2140049F01D4425F003057560204670BD002070BD7F
S214004A00301D002007B502AB042243F8041D1946EA
S214004A1045F036FA03B05DF804FB70477047704700
S214004A2070477047704770477047704770477047C9
S214004A3070470346800B01280CD002D3022804D10D
S214004A407047181C18BF01207047B3F57F4F2CBF66
S214004A50042003207047094B10B540F201141C6077
S214004A6098600120586011448A4204D0034812F826
S214004A70014B8461F8E7D869C04310BD00C001400F
S214004A8002464FF0FF30FFF7E6BF38B50446251D57
S214004A9045F0EEF928460021FFF7B4FF04F10800C0
S214004AA00121FFF7AFFF28460821FFF7E9FF01467F
S214004AB02046FFF7A7FF002038BD08B5FFF75CFFCC
S214004AC000B1807808BD10B50C46FFF755FF18B149
S214004AD00C302060002010BD40F2025010BD08B51A
S214004AE0FFF74AFF003018BF012008BD38B50D4C4F
S214004AF0FEF786F92068FFF7C8FF6068FFF7C5FF76
S214004B00094B00221A70094B18681C4620B18568AC
S214004B103EF062FB2846F9E72060BDE83840FEF725
S214004B207FB900BF846600203E050020301D0020AF
S214004B3010B5FEF765F91A4A1A4C936C9BB29B02A5
S214004B40A3F580532360936C9BB29B02A3F500638E
S214004B506360206808210430FFF792FF23681B6813
S214004B60984202D02068FFF790FF60680821043062
S214004B70FFF786FF63681B68984203D0094B5868A6
S214004B80FFF783FF2268636852685B689A42064BA9
S214004B9034BF012200221A70BDE81040FEF740B96B
S214004BA0B081E00F846600203E050020C0F30A03B3
S214004BB00833B3F5006F06D283884FF6FF701B1AD2
S214004BC0584258417047012070472DE9F74F304E44
S214004BD0304A337859B283F001035BB252F8219021
S214004BE052F82370384645F043F909F10C0A07F1EC
S214004BF00C08554685EA0A0323F4FF6323F00703EF
S214004C004BBB2846FFF7D2FF834620BBA979281D59
S214004C100431FFF735FF2B68984201D12C4607E098
S214004C20AC79033424F0030408342C442546E1E729
S214004C30AB7903339B1001335B45F7DB08F10403C4
S214004C40404654F8041B0193FFF7DCFE019B0BF172
S214004C50010B9846ECE7D9F804103C1D20460131BC
S214004C60FFF7D0FE07F108000121FFF7CBFE204634
S214004C700821FFF705FF01463846FFF7C3FE3378E5
S214004C80404683F00103337003B0BDE8F08F00BFE9
S214004C903E050020846600202DE9F74F1E46584B3F
S214004CA0174693F90020574B53F82230814603F1FC
S214004CB00C0A8846FEF7A4F854462046FFF776FF0F
S214004CC00546002840D1A17904F1040B584604316A
S214004CD0FFF7D6FE2368984224D1A3884B4521D1FE
S214004CE0A3799F420BD1304604F108013A463EF0C4
S214004CF00DFD054618B9FEF793F828467DE094E8C2
S214004D00030002AB03E90300BDF80430DB43ADF853
S214004D1004304FF6FF73ADF8063058460199FFF79A
S214004D2071FE0546A379033323F0030308331C44BE
S214004D3084EA0A0323F4FF6323F0070313B9002D64
S214004D40BBD053E0002D51D1002F4ED007F10805FF
S214004D5063198AEA030323F4FF6323F0070373B19E
S214004D60FFF733FFC0F30A0304461BB11D44B5F535
S214004D70006F04D9FEF754F840F201503DE047EAD0
S214004D800828ADF80490ADF8068004F10408404603
S214004D900199FD1CFFF736FE04F1080925F003050E
S214004DA04D44C0B9A94506F1040614D016F8011CF6
S214004DB016F8043C43EA016316F8031C43EA012391
S214004DC016F8021C484609F1040A43EA0141FFF7B7
S214004DD019FED146E5E7391D4046FFF751FE01466C
S214004DE02046FFF70FFE054600E03D46FEF718F8A2
S214004DF0002D0CBF00204FF4C67003B0BDE8F08F46
S214004E003E0500208466002030B5441EA4B24FF64E
S214004E10FD75AC4202D8BDE830403DE74FF4C070A7
S214004E2030BD38B50546FFF7A7FD044648B128460D
S214004E300221A27804F10C03FFF7E6FF0020A08011
S214004E4038BD40F2025038BD70B506460D46FFF735
S214004E5093FD044688B125B10C302946A2783EF071
S214004E6087FCA388E28801339BB29A42A38007D8C6
S214004E703046BDE87040FFF7D4BF40F2025070BD28
S214004E80002070BD2DE9F8431E462C4B154693F9BD
S214004E9000202B4B53F822400C3480460F46A14688
S214004EA04846FFF783FE18B140F20250BDE8F8838B
S214004EB099F8061009F104000431FFF7E1FDD9F86E
S214004EC000308342B9F806304FF0FF02B3FBF2F22F
S214004ED0C2EB0222A3EB02039BB203F1030323F00F
S214004EE0030303F108034B4483EA040222F4FF623F
S214004EF018BF08F1010822F0070218BF5FFA88F809
S214004F00002AD1D108F1FF32D2B2B8F1000F02D098
S214004F1099469046C4E7B9F804303B801DB1B9F80D
S214004F2006301B0A2B70B9F80630089A337009F160
S214004F30080313600020BDE8F88300BF3E0500208C
S214004F4084660020431EF7B59BB24FF6FD7293426F
S214004F5006460F4636D81D4B93F900201C4B53F8D7
S214004F602250FDF74DFF0C352C462046FFF71EFE5F
S214004F7018B1FDF755FF002026E0A38873401F42B6
S214004F8011D194E8030002AB03E90300BDF8043036
S214004F90DB43ADF804304FF6FF73ADF80630201D46
S214004FA00199FFF72FFDA379033323F0030308339A
S214004FB01C4484EA050323F4FF6323F00703002B55
S214004FC0D3D0D6E740F2122003B0F0BD3E05002055
S214004FD08466002070B5154B93F90020144B53F8E7
S214004FE022500C3506462C462046FFF7DFFD08B15A
S214004FF0002070BDA179201D0431FFF741FD236814
S214005000984202D1A388B3420ED0A379033323F08B
S214005010030308331C4484EA050323F4FF6323F0E8
S2140050200703002BE0D0E3E7204670BD3E050020D6
S2140050308466002008B5FFF7CDFF00B1807908BD73
S21400504070B50C4616461D46FFF7C4FF38B904B1C6
S21400505020700023337040F202502B6070BD14B1F4
S214005060C188090A2170C388337008302860002080
S21400507070BD13B5144601AB0DF10302FFF7E0FF58
S21400508060B99DF8031049B1019A0129137823806D
S21400509006D9527843EA0223238001E040F2025008
S2140050A002B010BD1F4B07B5986800F16043B3F51A
S2140050B0004F07D300233F21009301931A4A0B4663
S2140050C0FDF7BCF900201949FDF7B0F90120184991
S2140050D0FDF7ACF904201749FDF7A8F90520164995
S2140050E0FDF7A4F906201549FDF7A0F90720144995
S2140050F0FDF79CF908201349FDF798F91A20124984
S214005100FDF794F91C201149FDF790F91D20104970
S214005110FDF78CF90F49202003B05DF804EBFDF78E
S21400512085B900BF00ED00E0002F00201D14000030
S21400513089A7020091A2020079A702007DA70200BB
S214005140C9A1020085A70200DD0E000095A102009D
S21400515081A70200DD8B020040B241F00101FDF79D
S21400516065B9074A074B11685B6812689142F8D127
S214005170DA0B42EA4142C3F30E03026083807047B3
S214005180AC6C002000400440014B01225A6170477D
S21400519000400440014B5868704700BF0040044080
S2140051A0034B18625A6942F002025A61704700BF08
S2140051B00040044008B540B107491E2041F00101F7
S2140051C0FDF734F9054B01225A61054B4FF080423A
S2140051D0C3F880211A6008BD9149000000400440D1
S2140051E000E100E01E4B8022202183F80C2383F888
S2140051F00D2383F8142383F8152383F8262383F8D6
S214005200272383F8162383F80E2383F8172383F8BF
S2140052100F2383F8112383F80A2383F8122383F8D5
S2140052200B2383F8132383F8192383F81B2383F8AF
S2140052301E1383F81823402283F8011383F80413FF
S21400524083F8051383F8061383F8071383F8081307
S21400525083F81C1383F81D1383F8222C704700BFB5
S21400526000E100E00B4B10B50446186868B9631CF3
S2140052700DD0094B1B7B53B9012C09D9074B5B6832
S2140052801C442046FFF78CFF01E0002010BD20469E
S21400529010BD00BF78290020301D002000400440CB
S2140052A0F8B5FDF7BBF80446FBF7ECFF012804D879
S2140052B00220FBF7BDFF00261FE01C4A1C4D536B67
S2140052C0516BC3F3031301F00F0135F8130035F8E3
S2140052D0113018490344086810F440709BB219D185
S2140052E0D233184480B234F081FC134B4FF0804226
S2140052F0C3F8802106460028DAD0104F7D68FBF7F9
S2140053005FFF7B685D1B33F07DF956B90220FBF723
S214005310A3FF06E0526A12F0005F14BF1E200020B2
S214005320DEE72046FDF77EF82846F8BD00400E4032
S21400533060A9040000300E4000E100E00040044098
S21400534008B5FFF78FFF18B1BDE80840FFF7A8BF04
S21400535008BD0020704770477047064B08B11860BC
S21400536070470549054A1A606FF0010041F00101D7
S214005370FDF75CB8B06C0020A1660000C1490000D3
S214005380044A52E8003F002342E800310029F7D1E2
S214005390704700BF44660020054A52E8003F0343BA
S2140053A042E800310029F7D1024B1B68184700BFBE
S2140053B044660020B06C0020012070470120704732
S2140053C008B518B107480849FBF7D8FE074AD2F8CF
S2140053D0B03043F05403C2F8B030BDE80840FFF7E1
S2140053E001BF00BFD1490000D349000000400E4075
S2140053F0024B186800B10430704700BF8C2E0020A6
S214005400034B186818B102681A603DF0E5BE704795
S2140054108C2E0020024B1B6803B11847704700BF54
S2140054200030002008B5431C1EBF4FF47A73C0033B
S214005430B0FBF3F0FFF784FF4FF47A735843C00BCA
S21400544008BD10B50446002002460146FCF718FDCC
S21400545011200521FCF71EFE00210A460220FCF75B
S21400546083FD0E4A0E48136B23F47F2323F4006358
S2140054701363136B00EAC4201843012110630A4625
S2140054800220FCF771FD11200421FCF703FE00202A
S21400549001460122BDE81040FCF7F2BC00400E4079
S2140054A000F80F0007B5322000210DF10602FFF7C5
S2140054B0E0FD18B9BDF80600FFF7C3FF03B05DF8BE
S2140054C004FB704710B504464FF49870A047064B8F
S2140054D018604FF49870A047044B18604FF498700B
S2140054E0A047034B186110BDF41D0020F81D0020D6
S2140054F0301D002010B50B460146044611F8012B5E
S21400550018463EF035F92278026110BD10B5054BFD
S2140055101C78012844EA00041C7004BF59709A7075
S21400552010BD00BFEC1D0020024B5A7802809B780D
S2140055300B807047EC1D0020014B1860704700BFC1
S2140055405068002008B503F04FF903F047F903F060
S2140055503FF903F061F903F065F903F057F903F03A
S2140055604FF903F047F9034803490022BDE8084015
S21400557033F0A0BE50660020A56200002DE9F74378
S21400558080460D4691461E46FFF7F6F9074668BB6D
S21400559005F10C0033F052F9044620B3164B857023
S2140055A01A68A0F80080826018608780A0F80690CD
S2140055B00DF1060140460DF107023346FFF740FDA8
S2140055C00C3440B10A9B01221A70204639462A46FE
S2140055D03EF0CCF904E0204631682A463EF0C8F892
S2140055E03460002004E04FF4C17001E04FF4C07056
S2140055F003B0BDE8F08300BF301D00202DE9F04168
S2140056001D4691F900309DF81860002B0446884628
S21400561017460FDA101D204433F010F900B30023AC
S2140056200360104B1A6812B113461268FBE7186045
S214005630031D01E00C4B1B681846414622463EF00F
S21400564097F86FB1022E204429463A4604D100232B
S214005650BDE8F04133F000BABDE8F0413EF088B84E
S214005660BDE8F0818C2E0020F81D002010B59DF8B6
S21400567008400294BDE81040C0E7F0B591B00DF1C7
S214005680260304460021008809AA21F043F80646AE
S2140056900346002840F05D81658840F29A239D42CB
S2140056A018D1B24B22881A80BDF82610B04BBDF830
S2140056B024008DE868000B461FF00AFEAD49AE4B8D
S2140056C00B600123888032460093062049E1AB42F6
S2140056D006D0013614237343A84A9B5A002BF6D1F2
S2140056E048F218039D4200F0F48035D8B5F5004F17
S2140056F000F0DC8018D8002D00F0C680012D40F0A8
S2140057002681277AE679029546EA0726009600253E
S214005710974EBDF82400BDF826102288A38801966F
S21400572003951FF021FD09E148F209039D4200F0B0
S214005730818048F212039D4240F009818C4E01950B
S2140057400025BDF82400BDF826102288E3790096CF
S21400575002951EF04DFFF1E048F241039D4200F035
S21400576085802AD848F238039D423FD048F23A0353
S2140057709D4240F0EC8094F80AC0677A804B94F81B
S21400578008E0039547EA0C27009794F80CC0E77AE0
S214005790BDF82400BDF82610142202FB063647EAA0
S2140057A00C27E37901970025714F0495228802970C
S2140057B0B56A43EA0E23A847C0E048F245039D4277
S2140057C046D048F246039D4240F0C180E6790096F6
S2140057D00295674EBDF82400BDF826102288A388DF
S2140057E00196002503951FF087FDA7E0677A0097CE
S2140057F0A77A0197E77A029794F80DC0277B604B4B
S21400580094F808E0069547EA0C27142202FB0636B1
S2140058100397E379A78804970025554F0795BDF8A9
S2140058202400BDF8261022880597B56A43EA0E23A1
S214005830A84783E04E4E01950025BDF82400BDF82C
S21400584026102288E379009602951EF001FF75E087
S214005850474E01950025BDF82400BDF82610228885
S214005860A388009602951FF01FFD67E0404E019545
S2140058700025BDF82400BDF826102288A3880096CF
S21400588002951FF0B5FC59E0277AE679BDF82400AA
S214005890BDF826102288A388029546EA07260096B9
S2140058A0334E019603951FF076FC47E0277AE6799B
S2140058B0029546EA0726009600252D4EBDF82400E0
