S01A000062746D6573682D57696E646F774D6F64756C652E7333374C
S214000000000001206D120000691200006912000055
S21400001069120000691200006912000069120000EF
S21400002069120000691200006912000069120000DF
S21400003069120000691200006912000069120000CF
S214000040E117000069120000691200006912000042
S21400005069120000691200006912000069120000AF
S214000060691200009D1300007D140000BD4C0000C6
S2140000701D450000691200006912000069120000A8
S21400008069120000691200009D1400006912000049
S214000090691200006912000069120000691200006F
S2140000A0691200006912000069120000691200005F
S2140000B0691200006912000069120000691200004F
S2140000C0691200006912000069120000691200003F
S2140000D0691200006912000069120000691200002F
S2140000E0691200006912000069120000691200001F
S2140000F069120000691200006912000010B5054C74
S214000100237833B9044B13B10448AFF300800123BE
S214000110237010BD001100200000000098040500A8
S214000120084B10B51BB108480849AFF300800848D3
S214000130036803B910BD074B002BFBD0BDE8104089
S214000140184700BF000000009804050004110020B6
S2140001504410002000000000154B002B08BF134B76
S2140001609D46A3F5803A00218B460F461348144A55
S214000170121A45F093FD0F4B002B00D098470E4BFC
S214000180002B00D098470020002104000D000D48E9
S214000190002802D00C4848F04DFE45F085F92000B6
S2140001A0290000F003FD45F06FF900BF00000800CD
S2140001B000000120000000000000000000110020E8
S2140001C0B86C0020358E040091A004002DE9F043A1
S2140001D0214D0378214F83B0014600260A2B0C469A
S2140001E009D00BB907E01BB114F8013F0A2BFAD16E
S2140001F0621AD2B242B923780A2B24D02146002BA9
S214000200ECD103B0BDE8F08395F82690286895F801
S214000210253095F824C097F800E0B0F800800E4826
S214000220019612FB0CFC4B4403FB0E935FFA8CFE0C
S214000230DBB2CEEB080E0093CEF3470303F056FD79
S21400024023780A2BDAD13A78637801323A70611C47
S214000250002BC3D1D5E700BF201100204C11002091
S21400026038B5054603F00EFF00B1FEE703F020FBAD
S21400027000B1FEE7084C204603F0E6FB00B1FEE7BF
S2140002806FF07F43FF2220460449A360626003F0BC
S21400029075FD034B1D6038BD20110020D4C104003D
S2140002A01C11002038B50B4C0546204603F0F8FB21
S2140002B00949204603F062FD084A094B10680022EF
S2140002C01A70FFF783FF2846FFF780FFBDE8384027
S2140002D003F02ABB20110020D4C104001C1100200A
S2140002E04C110020704700BF704700BF704700BF2A
S2140002F030B5094B87B000241D780094014623468C
S21400030002AA4FF480508DF809508DF8084004F08A
S21400031035FF07B030BD00BF3412002030B5094AA3
S21400032087B00023D57800930146012402AA41F243
S21400033006008DF809508DF8084004F01FFF07B03E
S21400034030BD00BF34120020062805D0072800D094
S2140003507047022007F056BE012007F053BE00BFCC
S21400036010B504210A460520002302F041FF0520AF
S214000370014604220023BDE8104002F039BF00BF4A
S21400038010B50446FFF7B4FF00B110BD0246214683
S2140003904FF48050BDE8104004F032BF70B50F4CEB
S2140003A00346B8B0013904EB411038AD194645F0A4
S2140003B069FD002305F8E03D04F1E00621462846E5
S2140003C045F086FD20342846054945F081FDB442B7
S2140003D0F4D12846FFF766FF38B070BD54110020F0
S2140003E014BE040010B50E4C0E49206844F20403F7
S2140003F0042283808271073045F052FB21680A4848
S21400040041F8040B07F0A4FD084B1B68998809B94E
S214000410084610BD064845F093FC4FF0FF3010BD6F
S214000420FC1D00203412002020070D02001E0020B4
S21400043030B904002DE9F04389B0234D119E2348BE
S214000440BDF840809DF850400F46A978914645F08B
S21400045077FC7178AB788B4231D01D4845F070FC44
S2140004607378AB70FFF7BEFF04F0020202F0FF03E2
S2140004707AB9AD7800933946072404AA41F20400FD
S2140004808DF811508DF8104004F078FE09B0BDE8E4
S214000490F083002004ABAD780093019002900390A7
S2140004A039464A464346072441F204008DF8115067
S2140004B08DF8104004F016FE09B0BDE8F08305483C
S2140004C045F03EFCD0E700BF3412002064B90400BB
S2140004D0BCB9040090B904002DE9F043244C89B05F
S2140004E0E078BDF84080119D9DF850700E4691460C
S2140004F0E0B1204B2049012808BF19461F4845F0A7
S2140005001FFC6B78E2789A422ED08BB91C491D48A6
S21400051045F016FC6B78E370FFF764FFBB070DD45D
S2140005203046FFF7FBFE09B0BDE8F0831449E5E767
S214000530104A1149012B08BF1146E8E7002004AB1A
S214000540E578009301900290039031464A46434670
S214000550012441F206008DF811508DF8104004F089
S214000560C1FD09B0BDE8F083074845F0E9FBD5E7D3
S21400057034120020D4BA0400DCB90400E4B9040044
S214000580C8BA040010BA040090B904002DE9F04F70
S2140005908BB0414F1598BDF85C5090F801E03F4E87
S2140005A0059391462B46169A3D48BDF850809DF817
S2140005B060B03C4C8A46BEF1000F14BF3946314647
S2140005C045F0BEFBDDF814C0374849464346624650
S2140005D045F0B6FB159B597823788B4258D00029F6
S2140005E014BF39463146314845F0AAFB169B03B97D
S2140005F03DB3159B2E485B7863700621FFF7CEFE51
S21400060016992C4B2C4A1B682C480D44ED03A2FB74
S21400061005251946AD09372601225D601E725A72FD
S21400062041F8040B07F094FCFFF7DCFE0223E370AE
S2140006301BF0020F14D15046FFF75AFE0BB0BDE870
S214000640F08F159B5B7823706370F3B11C4B1D48CD
S21400065010212022196006211A60FFF79FFEE3E7AB
S214000660002506A824780090019551464A46434640
S214000670029503954FF480508DF819408DF8185068
S21400068004F030FD0BB0BDE8F08F0F4B0F48DFE7EE
S2140006900F4845F055FBCBE7D4BA0400C8BA0400AF
S2140006A02CBA0400341200206CBA0400A4BA040069
S2140006B0D8BA0400FC1D0020D34D621020060C00A2
S2140006C0FCA00046CCBA0400FCA00044C0BA04005B
S2140006D090B9040010B5104C104A637810491148C0
S2140006E02370002B08BF114645F02AFB237883B100
S2140006F00D4B0E482022102119601A600621FFF7C4
S2140007004DFEFFF76FFE0A4BBDE810401888FFF756
S21400071037BE084B0848EDE734120020C8BA04007C
S214000720D4BA0400ECBA0400FCA00046CCBA04001C
S21400073022000020FCA00044C0BA040070B582B0BD
S21400074000F080FE01240026062123460A46009675
S2140007500194052002F0F4FC094D009607210A4694
S21400076023460194052002F0EBFC2946062000F003
S21400077077FE2946072002B0BDE8704000F070BE44
S214000780490300002DE9F041294B2A4F1B7800222F
S2140007909B1A86B018BF01238DF805308DF804200B
S2140007A03B7810B90133DBB23B70234E23483278D6
S2140007B004682349DFF898E009882372013A02EBBF
S2140007C0820202EB820255000023012241F2010060
S2140007D0ADB2A080E1806372A372E3722373E37309
S2140007E023746374A2740DF10501A4F80D5004F18E
S2140007F01300DEF8008045F053F92146114841F811
S214000800040B07F0A5FBB8F8041051B10E4845F0EC
S21400081097FA3378084A0BB1013B137006B0BDE86F
S214000820F081397809482A4645F08AFAF1E700BF90
S2140008303A1200205011002038120020FC1D002023
S2140008402200002020101E0214BB04004CBB040033
S214000850001E0020F8B5524C524F002104222046BC
S21400086045F01CFA3B685048194644F204029A8048
S21400087041F8040B07F06CFB4C4B1B689E88204627
S214000880002E40F08580D91D9A7945F009F9E57863
S214000890012D6BD04CD3022D1ED1454845F050FAA1
S2140008A0227863789A4252D0A07804F017FA044669
S2140008B0404845F045FA3B683F4A4048E403A2FBFF
S2140008C004241946A409372501225C601D725A7259
S2140008D041F8040B07F03CFBFFF784FD384845F071
S2140008E02FFA0021374A384B384C4FF4805004F02A
S2140008F073FB0021364A374B41F2070004F06CFBCD
S2140009000021354A354B41F2040004F065FB20888F
S214000910FFF736FD24882046FFF700FD00B1F8BD3E
S214000920214641F206000122BDE8F84004F068BC0A
S2140009302B4845F005FA2B4B2670102120226670B6
S2140009402948196006211A60FFF728FDC4E72748E2
S21400095045F0F6F92378C3B1254B2648102120220E
S214000960196006211A60FFF719FDB5E7224845F021
S214000970E7F91F4B25701021202265701D4819606D
S21400098006211A60FFF70AFDA6E7164B1648E5E7AC
S2140009900021042245F082F9184845F0D1F9A0E775
S2140009A034120020FC1D002020020D03001E002033
S2140009B0DCBB0400FCBB0400D34D621020060C0018
S2140009C038BC04008D050000E5020000220000206F
S2140009D0D9040000E902000035040000ED02000022
S2140009E0A4BB0400FCA00044C0BA040020BC040061
S2140009F0FCA00046CCBA0400C0BB040074BB0400D4
S214000A0038B5134C01461348217045F099F9237800
S214000A10CBB9114845F094F9104B032200201A7008
S214000A20FFF7B0FE0E4B0F481B6840F2666519468E
S214000A300A2400225D601C725A72BDE8384041F8F4
S214000A40040B07F085BA084845F07AF9E4E700BFDA
S214000A503A12002058BC040078BC0400381200206B
S214000A60FC1D002020060C0070BC0400002070470F
S214000A7008B50021E022064845F010F90548FFF7C2
S214000A80EFFB05480321BDE80840FFF787BC00BF21
S214000A905411002080BC040098BC040030B587B018
S214000AA0037842781D4901A845F0ECF901AA1C49D3
S214000AB01C4845F045F901A845F0FEFBC4B2FB2CE6
S214000AC011D9194B1B684FF4C5719980174845F02A
S214000AD037F913480121FFF761FC01A80221FFF74F
S214000AE05DFC07B030BD124D286800230322C3808A
S214000AF00472828001A92246093044F0D1FF0D48D5
S214000B0029682402204441F8040B07F021FA064B1A
S214000B101B6899880029DCD0D8E700BFA8BC040071
S214000B20D0BC0400B4BC0400001E0020E0BC0400DE
S214000B30FC1D002020050A0238B51548154C45F066
S214000B40FFF815480321FFF729FC144B1B78FF2BF1
S214000B5007D0226812481371114641F8040B07F0BB
S214000B60F7F921680F4841F8040B07F0F1F92368FC
S214000B700D4819464FF480354D2401225D601C72E5
S214000B805A72BDE8384041F8040B07F0E1B900BFDF
S214000B9020BD0400FC1D002030BD04002000002005
S214000BA020010B0220000D0120060C002DE9F04F5D
S214000BB085B003F0E7F903F037FAC348C34EC44CD8
S214000BC0C44DC54F02F08CFC03F086FEC34807F008
S214000BD043FF0EF0C1FF0EF0DDFF0EF0B7FF0EF084
S214000BE07BFF0EF0A3FF0EF09BFF0EF07BFF0EF0D8
S214000BF0C5FF0EF089FF0EF0B5FF0EF079FF00F08E
S214000C001BFB03F0B7FCFFF7ABFB012213460520E6
S214000C10062102F0EDFA012213460520072102F014
S214000C20E7FAFFF725FF03F089FEAD48012102F041
S214000C3051FB03F037FFEA4607F042FB016821F458
S214000C407F4121F00701A1428346F5D016D8A54B77
S214000C50994200F0E18127D8A3F59813994200F055
S214000C60918103F50023994200F0F180A3F59813D3
S214000C7099425ED09C4845F063F8DDE7A94200F053
S214000C809D8123D9B94200F0898038D9974B994283
S214000C9000F0F58103F180739942EBD1944845F05A
S214000CA04FF8FFF749FFC7E7924B994200F09C8147
S214000CB040F21B82904B994200F0E58103F57403E5
S214000CC09942D7D18D4845F03BF8B5E78C4B994211
S214000CD072D003F57403994240F0FF81894845F0CD
S214000CE02FF8894B89499BF80C201B780A70864A96
S214000CF08748013304211370FFF750FB9CE7854BB0
S214000D009942B7D18188844845F01AF88348032170
S214000D10FFF744FB3168824B4FF480324A604E2224
S214000D200A7201224A72184641F8043B07F010F98D
S214000D3082E77C4B1B68002BB3D07B4B1B68002BD9
S214000D40AFD03168794841F8040B07F001F9784BC9
S214000D5018680430FFF7A2FE3368764819464FF647
S214000D60D4629A8041F8040B07F0F2F833687248B0
S214000D700322DA8006221A7200229A720422DA729B
S214000D80194601221A719A8102225A715A7241F842
S214000D90040B07F0DDF8FFF7E3FA4DE790F804E000
S214000DA0664B6749B0F805206648BEF1000F18BFCD
S214000DB0194644F0C5FF3FE763489BF804109BF8CC
S214000DC0052044F0BDFF9BF8063073B10BF1060911
S214000DD04FF000085D4819F8011F44F0B1FF9BF87A
S214000DE0063008F101089845F4DB594844F0A8FF9E
S214000DF09BF8063057499B444FF0000E9BF8043092
S214000E009BF805009BF80620CAF800E01B0443EA9E
S214000E1000231A436846CDF804E0CDF808E08DF8C4
S214000E200CE045F02FF868460721FFF7B7FA33685D
S214000E303B484FF420225A60194619221A720122A2
S214000E405A7241F8040BEA4607F082F8F4E6424884
S214000E5044F076FF9BF80430002B00F04C81BBF882
S214000E600510DBF807203D4844F06AFF9BF80610A3
S214000E709BF8053043EA012339490B80394B0022A1
S214000E801A80FFF75BFC38493848082204F07EF8E1
S214000E90FFF7E0FC364B374A1978374B37480029BE
S214000EA014BF1146194644F04BFF35480321FFF79F
S214000EB075FA33681F4819464FF6D4629A8041F88F
S214000EC0040B07F045F8B7E600040140FC1D0020BF
S214000ED0A0000103A0001406A0001408F8B804003F
S214000EE000C00040A0001F001CC10400A0001409A0
S214000EF0F8C00400A0000801A0001401ACC0040063
S214000F00A000140474C00400391200202000002041
S214000F10A0C00400A0001407B8BE0400D8BE040099
S214000F2020060C00982114429C2114422000010344
S214000F30001E00202002010A200A140550BD0400ED
S214000F4048BD04003CC0040018BE040064BE040093
S214000F506CBF04005CBE04005CBD040070BD0400F1
S214000F604E1100202200002009550400F954040008
S214000F7034120020D4BA0400C8BA04009CBD040091
S214000F80BCBD040090F80480B8F1370F00F0FB8079
S214000F9040F2C580B8F14D0F00F0D880B8F14E0F82
S214000FA000F0D480B8F1420F7FF446AE814B10219A
S214000FB02022C3F80811C3F808213DE67E4844F015
S214000FC0BFFE7E480321FFF7E9F931687C4B4FF4FA
S214000FD000524A6042220A7200224A72184641F8BB
S214000FE0043B06F0B5FF27E68188764844F0A8FE65
S214000FF0754B76481B787449FF220270002B3FF42D
S2140010001BAE013BDBB20B70002B7FF415AE7048B5
S2140010100421FFF7C3F90FE66E4844F091FEBBF8D3
S2140010200C206D48BBF8081044F08AFEBBF8082078
S21400103042F201039A4200F0938068480521FFF7C8
S214001040ADF903F03DFD002200238046894643F0BB
S214001050F9FE002840F08F80404649460022604B4B
S21400106043F0FAFE002866D05E4844F069FE012090
S214001070FFF7C6FC5C480521FFF790F9DCE55B4806
S21400108044F05EFED8E55A4B5A495B484FF00008DC
S2140010900822A3F8008003F079FFFFF7DBFB544B30
S2140010A05648198844F04CFE33684548C3F8048017
S2140010B01946422283F809801A7241F8040B06F09A
S2140010C047FF4F4B4F4820221021196003211A601A
S2140010D0FFF764F9FFF732FBAEE503F17D4303F556
S2140010E07B0399427FF4C6ADA6E5A3F5A0239942FB
S2140010F03FF4A2ADBEE5444844F022FE0321434837
S214001100FFF74CF9424844F01BFE3168414B03227E
S2140011100A71184641F8043B06F01AFF8CE5B8F150
S2140011200A0F33D0B8F1190F7FF486AD284807218F
S214001130FFF734F980E5384844F002FE584603F0DD
S21400114085FF36480521FFF729F975E53168344BE8
S21400115000220A71184641F8043B06F03BFF6BE597
S214001160584603F073FF2F480521FFF717F92E485E
S21400117044F0E6FD60E52D4844F0E2FD2C480521EC
S214001180FFF70CF958E5FFF7A5FA55E50120FFF73C
S214001190F9FA284B1B78002B7FF44EAD32680848CE
S2140011A05360114682F80880537241F8040B06F02B
S2140011B0CFFE41E500A000406CBE040084BE0400E3
S2140011C020060C00D8C004003912002020000020A1
S2140011D0CCBC0400E4BE04001CBF040070BF0400C6
S2140011E000004940B8BF0400F0BF04005CC0040023
S2140011F02200002009550400F954040094BE04009F
S214001200FCA00044BCBD0400C8BD0400E0BD040052
S214001210F0BD04002001140100C004002CC004002E
S2140012202001010140BF040054BF040084BF040035
S214001230A4BF04003812002030B50A4D0FCD87B089
S21400124001AC0FC42B6823604FF0FF3001A922F0D9
S21400125094FB20B94FF0FF30012122F088FB07B045
S21400126030BD00BF30C10400FEE700BF08B500F087
S2140012706DF8094A094B9A420CD2D043184420F024
S2140012800300074B0430184453F8041B42F8041BB1
S2140012908342F9D1FEF760FF0000002048100020CE
S2140012A0F40605000048704700F049020F4BD3F8DB
S2140012B0943003F00703032B14D0042B0FD0022B1B
S2140012C00AD00B4B1868094BD3F80031C3F304233C
S2140012D00133B0FBF3F07047064B1868F3E7064B94
S2140012E01868F0E74FF40040EDE700BF00400E40FE
S2140012F030000020280000202400002008B5FFF75A
S214001300D5FF054B054AD3F80831C3F3082301334C
S214001310B0FBF3F0106008BD00400E402C0000202B
S214001320014B1868704700BF28000020054A064B8E
S2140013301060D3F8943003F00703022B00D07047F8
S214001340FFF7DCBF2800002000400E40034AD2F81A
S214001350883043F47003C2F88830704700ED00E030
S2140013604FF40040704700BF4FF47A70704700BFDC
S214001370014B1868704700BF24000020054A064B42
S2140013801060D3F8943003F00703042B00D07047A6
S214001390FFF7B4BF2400002000400E402DE9F843BC
S2140013A01A4B1A6ED96E11EA02081DD4184C194F42
S2140013B099460126002516EA080F0CD02368C9F8BE
S2140013C0686028463BB1A16862680131A160984711
S2140013D0637B012B09D00135082D4FEA460604F140
S2140013E01004E8D1BDE8F883FEE707EB451303F1E8
S2140013F0080218330028EED1117960F3410111710B
S2140014001A7960F341021A71E5E700BF00200E402A
S2140014103C120020BC12002070B5044678B1084E7D
S214001420012594FAA4F0B0FA80F056F8203005FAB8
S21400143000F224EA020403B19847002CF1D170BDF3
S214001440BC130020054B4FF480214FF48062C3F894
S21400145080111960C3F880211A60704700E100E02F
S21400146038B504460D4601F0BBF9034B43F824504B
S214001470BDE8384001F0B8B9BC130020064AD2F8DF
S2140014802804D2F81C1445F2555308401840C2F8F8
S2140014902404FFF7C1BF00BF00A00040064AD2F8F0
S2140014A02804D2F81C144AF6AA2308401840C2F8AA
S2140014B02404FFF7B1BF00BF00A0004008B5034BEF
S2140014C01B6803B19847012008BD00BFFC1300202D
S2140014D038B5194D2B68044613B1984700B938BD86
S2140014E0631E032B05D8DFE803F00B161E0201F07F
S2140014F04BFC6B68204613B19847204638BD38BD74
S2140015000E4A136923F00403136130BF6B6820464C
S214001510002BF1D1F3E7002001F008FB6B682046B2
S214001520002BE9D1EBE7002001F01AFB6B682046A0
S214001530002BE1D1E3E700BF0414002000ED00E03B
S2140015400C4A0D4B70B50D4C10600D4D61600022BD
S2140015501A705A70256001F001FFC30300D470BDF5
S21400156001F0F6FE6368002BF9D00420BDE8704059
S214001570184700BFFC1300200014002004140020AD
S214001580BD1400002DE9F041184D01F021F92B782B
S214001590804613B901F010FB2B78154F002483B951
S2140015A06B78002B14BF02200320FFF791FFBB6867
S2140015B006460BB198470446E30704D52B78002B64
S2140015C0EED00120F1E7B31EDBB2012B05D9404671
S2140015D001F002F93046BDE8F08101F0F1FA40462C
S2140015E001F0FAF83046BDE8F08100BF0014002094
S2140015F004140020831EDAB2012A00D97047054978
S214001600CA5C022802F10102CA54F7D1024B012239
S2140016101A607047001400200400C6430238C3B2A4
S214001620012B00D97047064B1A5C2AB91B78002B91
S214001630F8D1044A13607047013A1A54F6E700BF1F
S214001640001400200400C643054B1A782AB95B78BC
S214001650002B14BF0220032070470120704700BFF4
S21400166000140020DFF8D0C0304BF0B5DCF8007076
S21400167038683C461A1D03F1280E52F8041C39B18E
S21400168018B11E792579AE4202D908461F461C4677
S2140016900833734502F10802EFD1CCF80070002839
S2140016A03ED0234BDA6922F0FF02DA61DA6921794B
S2140016B00A43DA611A6B42F080421A63DFF87CC094
S2140016C01C4BDCF8007038683C461A1D03F1280EE7
S2140016D052F8041C39B118B11E792579AE4202D2EF
S2140016E008461F461C460833734502F10802EFD130
S2140016F0CCF8007070B10E4BDA6922F47F42DA61E2
S214001700DA69217942EA0122DA611A6B42F0004274
S2140017101A63F0BD064A136B23F000431363F0BD53
S214001720034A136B23F080431363C7E72814002093
S21400173000300E405014002010140020201400200A
S21400174038B5224C226B636A134020D45B001AD54E
S2140017501F4B1868056895B10021082244F09EFAD0
S214001760226A1C491C4B0868D2B2D20083FB0223B3
S214001770A0EB530000F3070040B20121A847134B2B
S2140017804FF08042DA62BDE83840FFF76BBF134B7C
S2140017901868056895B10021082244F07FFA226A8D
S2140017A00C490D4B0868D2B2D20083FB0223A0EB93
S2140017B0530000F3070040B20021A847034B4FF048
S2140017C00042DA62BDE83840FFF74CBF00300E40FA
S2140017D0101400201414002067666666201400208B
S2140017E0FFF7AEBF1F4B204810B50021282201246A
S2140017F01C7044F053FA002128221C4844F04EFA8C
S2140018001B4A1C481C491D4B03600B601368526D35
S214001810C3F30743FF2B0ED0D2B2FF2A0AD01848D4
S214001820D100A0FB010103EB830002EBD00203EB27
S214001830910301E013469F22124C1349134822607D
S2140018404FF040420360CA620B6B114A012023F03E
S21400185040430B63C2F880011060FFF703FF0020CF
S21400186010BD00BF7814002028140020501400205B
S214001870B081E00F1014002020140020181400205F
S214001880CDCCCCCC2414002000300E401414002004
S21400189000E100E0154BF0B541F67132144D1E6CB8
S2140018A01A645B682A46002314798C4202F1080207
S2140018B00ED00133052BF7D14FF040710B4A536819
S2140018C023F040730B43536076B100231364F0BDDE
S2140018D055F83340DFF818E084424FEAC307E8D3F0
S2140018E077447B791906E9E7F0BD00BF00000E409B
S2140018F060C10400224B98423AD01AD9214B984234
S2140019003AD00CD8204B984225D003F5371303F570
S214001910D86398422AD11D4BD3F8A00070471C4BC1
S214001920984214D01B4B984220D1184BD3F8B000E5
S2140019307047194B984215D011D9184B984211D0C0
S214001940174B984212D1114BD3F88C0070470F4BAF
S214001950D3F8AC0070470D4BD3F89C007047114B82
S214001960984203D1094BD3F8800070470020704797
S214001970064BD3F898007047044BD3F8A80070477E
S214001980405DC60080BA8C010024F400B081E00FF0
S2140019900048E80180D5430280841E0000093D000F
S2140019A0C0CF6A0040420F0008B5FFF77BFC00215D
S2140019B0BDE80840FFF76EBF0C4A0D4BD2F89010FA
S2140019C0516A21F0300141F0100110B45162146BDD
S2140019D0C0F3C311033123400F2928BF0F2103434F
S2140019E043EA017313635DF8044B704700400E40F2
S2140019F000F8FF0FFFF74EBFC0F30323013B30B4E0
S214001A00092B13D8DFE803F0251D121221272A120E
S214001A100523144D4FF48034134AD2F84431DB07C3
S214001A20C0F3043004D528448000016030BC704701
S214001A30D2F840311C42F6D0D2F840311C42F7D1E1
S214001A40F1E70A4DC0F30430EDE7094DFAE7094D1A
S214001A50F8E7094DF6E7094D0124DDE7084D1024A7
S214001A60DAE700BF8007F21000400E400006F210D2
S214001A708005F210800AF2100000F2100007F21043
S214001A804007F210C0F30313013B062B45D8DFE8EE
S214001A9003F0171D23292F3504002A4B984247D000
S214001AA003F5B01303F58053984236D1264BD3F88E
S214001AB02831C3F3012304330120984001387047CE
S214001AC0214BD3F80001C0F3042070471E4BD3F817
S214001AD01401C0F3042070471B4BD3F80001C0F379
S214001AE000607047184BD3F80C01C0F3082070470D
S214001AF0154BD3F80801C0F308207047134B9842E3
S214001B000DD0134B984208D10F4BD3F8203101204B
S214001B10C3F30113984001387047002070470A4B02
S214001B20D3F82031012003F00F03984001387047A6
S214001B30054BD3F828310120C3F301139840013830
S214001B40704700BF7017160000400E406006140075
S214001B5060162A0008B5FFF795FF013008BD00BFE4
S214001B6000F00F000138072847D8DFE800F0121D04
S214001B703346283E4604264BD3F85C3103F0300348
S214001B80202B40D0302B40D0102B0CBF072001203C
S214001B9070471F4BD3F8943003F00703023B022B29
S214001BA02FD81C4AD05C7047194BD3F8803003F00E
S214001BB00703013B042B22D8174AD05C7047144B0E
S214001BC0D3F8883003F00703013B042B17D8134AD9
S214001BD0D05C70470E4BD3F8843003F00703013B0C
S214001BE0042B0CD80E4AD05C7047094B1B6F13F0C1
S214001BF0010F14BF092007207047002070470120FE
S214001C00704705207047042070470820704700BFC3
S214001C1000400E405CC1040044C1040054C10400EE
S214001C204CC1040010B50446FFF79AFF1E4B9C42B9
S214001C301DD01E4B9C4214D01D4B9C420BD001382D
S214001C4004282FD8DFE800F0032A19260300BDE891
S214001C501040FFF785BB174BD3F8800000F0070055
S214001C60EDE7144BD3F8880000F00700E7E7114BC8
S214001C70D3F8840000F00700E1E7FFF73FFB0D4BC9
S214001C80D3F80021C2F30062013201239340B0FB77
S214001C90F3F010BDBDE81040FFF766BBBDE810408E
S214001CA0FFF766BB002010BD03001C0005002000E7
S214001CB002001A0000400E4000F47810B0F5901FA5
S214001CC008B573D01CD9B0F5E01F34D055D9B0F59F
S214001CD0281F35D067D9B0F5301F00F08280B0F5E8
S214001CE0381F1AD15648FFF73BFF072842D008286E
S214001CF000F09B80042810D1BDE80840FFF710BB19
S214001D00B0F5002F13D00AD9B0F5402F2DD0B0F57E
S214001D10602F2FD0B0F5202F1CD0002008BDB0F5C6
S214001D20003F53D0B0F5802F45D00028F5D1BDE850
S214001D300840FFF7BBBA4348BDE80840FFF772BF4C
S214001D404148FFF76FFF414BD3F82031C3F301132F
S214001D50D84008BDFFF7AAFA3C4BD3F81431C3F3BA
S214001D6004230133B0FBF3F008BD3948FFF7F8FE53
S214001D70072856D1374B186808BDB0F5B01F43D0BA
S214001D80B0F5D01F3BD0B0F5A01FC6D12E48FFF748
S214001D9049FF2E4BD3F82021012302F00F02934077
S214001DA0B0FBF3F008BDB0F5001FB6D12A48BDE879
S214001DB00840FFF737BFFFF779FA244BD3F80C310A
S214001DC0C3F308230133B0FBF3F008BDFFF76EFA48
S214001DD01E4BD3F80831C3F308230133B0FBF3F0EE
S214001DE008BD1848FFF71EFF184BD3F82821C2F38A
S214001DF00122043201239340B0FBF3F008BD1248E1
S214001E00BDE80840FFF70EBF0E48FFF70BFF0F4B6D
S214001E10D3F828210123C2F301129340B0FBF3F05C
S214001E2008BD09287FF479AF81E7FFF73FFA074B33
S214001E30D3F80031C3F3042303FB000008BD00BF42
S214001E4098002E0003001C0002001A0000400E40FE
S214001E5006000C003400002005002000C0F3031329
S214001E60013B10B50C46072B15D8DFE803F01E58CB
S214001E70626C7895AA04944B98420CD1934AD2F897
S214001E804431D90708D5914BD3F8301121F003011E
S214001E900C43C3F8304110BDD2F840315B03F2D595
S214001EA0D2F840315B03F7D4EDE7FFF77DFD884AB3
S214001EB0864B01211160D3F8002142F08072C3F8EE
S214001EC00021D3F8001121F4F85141EA0424C3F8A4
S214001ED00041FFF713FA7F4B1C68002CFCD17E4BA9
S214001EE05968C1F30141FFF7D5FC7C48FFF7E4FED3
S214001EF07B4B984240F283807A4B0121984294BFF4
S214001F004FF080744FF00074714A704B1160D3F834
S214001F10000120F080700443C3F8004110BD6B4BF5
S214001F20D3F8141121F4F85141EA0424C3F81441FB
S214001F3010BD664BD3F8001121F0807141EA0464AD
S214001F40C3F8004110BD614BD3F80C1121F4FF31EA
S214001F5021F4807141EA0421C3F80C1110BDFFF78B
S214001F6023FD5B4A594B01211160D3F8002142F052
S214001F708072C3F80021D3F8081121F4FF3121F450
S214001F80807141EA0421C3F80811FFF7B7F9514BF5
S214001F901C68002CFCD1A2E7534B984276D0534BDA
S214001FA0984256D0484B98427FF475AF474AD2F8CD
S214001FB04431D9073FF567AFD2F840315B03FBD415
S214001FC061E74B4B984226D003F5B01303F58053D8
S214001FD0984216D13D4AD2F84401C40701F10103E4
S214001FE0B3FA83F3C3F11B010CD5384AD2F8283173
S214001FF023F4407343EA0123C2F8283110BD21467A
S21400200082E710BDD2F840315806EED5D2F84031FE
S2140020105806F7D4E9E72D4AD2F84401C00701F183
S2140020200103B3FA83F3C3F11F0109D5274AD2F897
S214002030283123F0300343EA0113C2F8283110BDDB
S214002040D2F840315B06F1D5D2F840315B06F7D4C2
S214002050ECE71E4AD2F844014B1CB3FA83F3C3F1F3
S2140020601F01C30709D5194AD2F8203123F03003DF
S21400207043EA0113C2F8203110BDD2F840315C07A4
S214002080F1D5D2F840315C07F7D4ECE70F4AD2F826
S2140020904401C40701F10103B3FA83F3C3F11F013E
S2140020A008D50A4AD2F8203123F00F030B43C2F8B2
S2140020B0203110BDD2F840315807F2D5D2F8403161
S2140020C05807F7D4EDE700BF8009120000400E4025
S2140020D04000C843C800C64300300E400025080034
S2140020E00048E8010090D0036006140060162A003D
S2140020F0701716000139FFF7B1BE00BFF8B50546E8
S214002100FFF7F8FB434B074611201E681D60FFF7DC
S21400211027FD05287BD0404B1C68002CFCD13F4B8C
S2140021209D425FD03E4B9D4261D03E4B9D422BD0A0
S2140021301120FFF715FD052848D0B5423BD83A4B8D
S21400214011201F61FFF70CFD052853D03748FFF715
S214002150B3FD374B984214D9364B0121984294BFB1
S2140021604FF080704FF00070334B2F4A1960D2F852
S214002170003123F080731843B542C2F800011FD91E
S214002180F8BD00200146EFE727F0C06747F08067FC
S2140021901120FFF7E5FC0528CFD100242346264969
S2140021A0214A0B60D2F8003123F080731C43B542FD
S2140021B0C2F80041C3D92846012100F037FDBEE72A
S2140021C000200121BDE8F84000F030BD184B9D42CC
S2140021D0E4D9184C0123A54294BF4FF080744FF009
S2140021E00074DCE727F0C06747F00077D0E727F0F9
S2140021F0C067CDE7FFF782F8104A1368002BFCD1C2
S2140022000F4B5968C1F30141FFF744FB9EE7FFF708
S214002210CBFB80E7300000206028C84380841E0087
S21400222000093D0040420F0000400E400025080017
S2140022300048E8010090D0034000C843C800C643E9
S21400224000300E401C4B5B6A002970B523F04053EB
S21400225014BF4FF08055002542B343F000531D4392
S214002260FFF75EF8154A06461468002CFCD1144B9E
S21400227059683046C1F30141FFF70CFB114B9E42F3
S21400228018D9114B01219E4294BF4FF080744FF035
S21400229000740E4B084A1960D2F8003123F08073A0
S2140022A01C43054BC2F800415D6270BD1D43024BE6
S2140022B05D6270BD2146ECE700400E40C800C64394
S2140022C000300E400048E8010090D0034000C843AC
S2140022D0144B5B6A13F0300F10B408D020291DD0C1
S2140022E030294FF4800404D019B10F4A03E04FF4AC
S2140022F080044FF440020B49D1F89030094813404F
S2140023009342F9D134B1D0F8A0005DF8044BC0F385
S2140023108020704701205DF8044B704700244FF47E
S2140023200002E8E700400E40FFF3E17FF8B506281C
S2140023300ED8DFE800F0535A045F230D640041B95D
S2140023403C4B08243C4A14661A68002AFCD1F8BDA7
S214002350F8BD39494B6A13F0300F57D1374BDB6B5A
S2140023604B6ADB0761D54C6A324B24F0300444F0EC
S21400237001044C6204260325012706E0304B202486
S214002380102605250029DDD000272B490E66196882
S2140023900029FCD0002ADBD02A4C2C44A400236859
S2140023A0002BFCD00228D3D1002FD1D0224A536A6A
S2140023B013F001012FD1FFF78BFF1F4DD5F89C704E
S2140023C0022000210122FFF7B1FFC7F30A00FFF742
S2140023D0F3FA2E662368002BFCD0F8BD1A4B4FF498
S2140023E000744FF480760925CCE7184B80244026ED
S2140023F00725C7E701263546154B0224C2E7154BCD
S2140024004FF400444FF480460F25BBE7094B0426E3
S21400241003250027B9E720234FF48061C2F8A810EF
S21400242019465366FFF754FFC7E7024B04260325F9
S2140024300127AAE70812C84300400E4000300E40AD
S2140024401012C8438004F2102012C8431812C84362
S2140024500012C8433812C843112838B50C4641D07C
S21400246000F00F00013807283BD8DFE810F02901FC
S214002470890087003A0069005F003A0048000120A2
S214002480014602460324FFF751FFFFF78DFA944BEF
S21400249094485C67FFF710FC934B984240F2C2806A
S2140024A0924B0121984294BF4FF080704FF000701D
S2140024B08F4B8B4A1960D2F8003123F08073184393
S2140024C0C2F80001FEF71AFF8A4A1368002BFCD1F7
S2140024D0894B5968C1F30141FFF7DCF9002D00F084
S2140024E0C18038BD042900F0E48005295AD00025B3
S2140024F0023C032CF5D8DFE804F098459BA84C1E58
S214002500072CEED801A353F824F000BF7126000074
S214002510E3240000E324000097260000E3240000E4
S214002520E32400008926000085260000072900F025
S214002530BC80092940F09580694B01221A6738BD96
S2140025406E4D013C0A2CCCD801A353F824F000BFF2
S214002550B92500001726000009260000E324000025
S214002560E3240000D1250000E3240000E32400005B
S214002570E3240000CD250000BF250000604DE0E705
S214002580604DDEE70120032401210A46FFF7CEFE58
S214002590FFF70AFA002D3FF47AAF564A1368002B6D
S2140025A0FCD174E7584A594B15689D429FD9284676
S2140025B0002100F03BFB9BE700232B6038BD012188
S2140025C00A460620FFF7B2FE0523F6E70423F4E7E3
S2140025D0FEF794FE444B984264D9444B012198423E
S2140025E094BF4FF080704FF00070414B3C4A19602A
S2140025F0D2F80031464923F0807303430120C2F825
S214002600003103230860D8E7012001460246FFF7A1
S2140026108DFE0123D1E701210A460020FFF786FE42
S2140026200223CAE70020014642E700200424ABE765
S2140026302F4B2B4A01211960D2F80031022043F0BB
S2140026408073C2F8003104469EE7294B244A0124D1
S2140026501C60D2F8003143F08073C2F800310320CA
S21400266092E738BD28460121BDE8384000F0DEBAC2
S21400267000211B4AD2F85C3123F030030B43C2F82A
S2140026805C3138BD3021F4E701210A460420FFF70B
S2140026904DFE1021EDE701210A460220FFF746FE17
S2140026A02021E6E7002001469FE70D4B00221A672F
S2140026B038BDFEF735FE054600287FF478AF16E7EE
S2140026C08C1E0025032C3FF60CAF01A353F824F014
S2140026D02B2600007F240000312600004B26000039
S2140026E000400E40002508000048E8010090D00396
S2140026F04000C843C800C64300300E4088400E4025
S21400270084400E4080400E4030000020002D3101F5
S2140027100816C843F8B504461120FFF721FA022030
S21400272000210122FFF702FE1748277C416A174D59
S2140027302678A288E38821F00101022F08BF41F025
S214002740010141622E60617A41EAC221C162016BD9
S214002750257AA27A01F07F610A43E91C42EAC32285
S2140027600F2942EAC51328BF0F2143EA017303630A
S214002770A17B637BE27B247B090141EA033313439D
S21400278043EA04434363F8BD00400E40A004C84338
S21400279070B504461120FFF7E3F900200146024613
S2140027A0FFF7C4FDA17863782278E478054D0648E3
S2140027B0064E2E60090641EAC323134343EA042368
S2140027C0036070BD38400E4438400E467F1B00073D
S2140027D0EFF3108072B6704700B962B6704700BF5C
S2140027E0EFF3108072B6704700B962B6704700BF4C
S2140027F0024B9B6803EB80000164704700ED00E02D
S214002800F0B596469DF81860059A6BB1754600249B
S21400281076B1A14214D907682F6001349C4205F1B5
S214002820040500F10400F3D1064BC3F808E0F0BD40
S214002830A1422F6802D9002FEFD1ECE7002FECD190
S2140028402A60EAE700ED00E00E2943680ED8012270
S21400285010B48A4047F2E004144023F01F0334B15A
S21400286043F01003194341605DF8044B704740F68F
S2140028701F741440002CF7D00B434360F4E700BFEE
S21400288070B4102A056A046A036A066ACE600D6090
S2140028904C608B6007D1046A026A036A006AC861EA
S2140028A00C614A618B6170BC704700BF42EA03232B
S2140028B040F2011293425BD0B3F5817F14D340F20D
S2140028C0012293424BD030D9B3F5407F24D040F25A
S2140028D0013293423ED12B4BD3F878311A0EC3F314
S2140028E0074303600A607047012B2AD00BD3B3F569
S2140028F0807F2FD1234BD3F86C311A0EC3F30743D6
S21400290003600A6070471F4BD3F86C31C3F307228D
S214002910DBB203600A6070471A4BD3F870311A0EA8
S214002920C3F3074303600A607047B3F5007F11D115
S214002930144BD3F87031C3F30722DBB203600A608E
S2140029407047104BD3F87431C3F30722DBB2036031
S2140029500A6070470022134603600A607047094BFE
S214002960D3F87831C3F30722DBB203600A607047FE
S214002970044BD3F874311A0EC3F3074303600A609E
S214002980704700BFB081E00F1B4BD3F8803103289F
S2140029902DD8DFE800F0272910021B0E79B91B039B
S2140029A013F4702F23D11549CA6E22F470421343D4
S2140029B0CB6601207047C3F307430029EFD00129F7
S2140029C017D11B0313F4702F11D110B40B4CD4F88D
S2140029D0E02022F4704213430846C4F8E0305DF865
S2140029E0044B7047DBB2D9E7C3F30723D6E70020D2
S2140029F070470120704700BFB081E00F00300E40E6
S214002A00134B144A19685868C1F30121C0F30140FA
S214002A101368002BFCD1814201D9022900D07047EF
S214002A2010B51120FFF796F804461120FFF744F979
S214002A30094B04FB00F0984205D811200521BDE89B
S214002A401040FFF709BD0548FFF758FBF5E700BF44
S214002A5000300E40C800C643002D3101C0EA2101F7
S214002A6038B5184B184C18781849194D194AC0F142
S214002A70020010238340236145F60E03D1F88041FF
S214002A80C1F880312B6840F255101840086604F0F3
S214002A90010403F001001368002BFCD10E4B1978DB
S214002AA0052905D01120FFF7D7FC2B6803F001009D
S214002AB010B9064B02221A661CB1044B0022C3F85A
S214002AC0802138BD8814002000300E4000400E40A3
S214002AD084140020C800C6438914002020B10128B1
S214002AE000D07047FFF7BCBF0A4A08B50A4BD2F8B9
S214002AF090201A601120FFF733F8084B084A187028
S214002B001368002BFCD1074B074A5B68C3F30143ED
S214002B10137008BD00400E40841400208914002065
S214002B20C800C64300300E408814002010B5044686
S214002B3080B9FFF765FF094A136943F00403136180
S214002B4030BF1CB9BDE81040FEF7D8BBBDE810404A
S214002B50FFF786BF0020FFF7C1FFEAE700ED00E0C1
S214002B6010B5044600BBFFF74BFF114BD3F880218E
S214002B70D20748BF002245F60E004FF42071C3F876
S214002B808001196648BFC3F880210A4A136943F0DA
S214002B900403136130BF1CB9BDE81040FEF7AEBB9E
S214002BA0BDE81040FFF75CBF0020FFF797FFDAE7AD
S214002BB000400E4000ED00E00020FFF78FBF00BF92
S214002BC0FFF74EBF164B70B5D3F8003104460E46DD
S214002BD0FEF76CFB134A1368002BFCD1124D6B6892
S214002BE0C3F301439C420CD0022C11D0C4F1020264
S214002BF0102393402B612CB11EB10A4A1368002B98
S214002C00FCD170BD2146FEF7F5FE002EF5D1F8E7A3
S214002C102146FEF7EFFE10232B61002EEDD1F0E7E4
S214002C2000400E40C800C64300300E4010B5104BA2
S214002C3082B0D3F8004158B10E4B1B7813B10E4B3F
S214002C4098420ED9002002B0BDE81040FFF7BABF88
S214002C500191FEF72BFBC4F3042404FB000001994A
S214002C60EAE7022002B0BDE81040FFF7ABBF00BFA6
S214002C7000400E4080140020FF2C3101034B0278E8
S214002C801A7000200121FFF7D1BF00BF801400207A
S214002C90044A4178136823F4407343EA012313601F
S214002CA0704700BF00300E40154903798A69F0B5B9
S214002CB00578447890F802E0C7784679002D14BF6E
S214002CC00425002522F03F02002C14BF0224002415
S214002CD01A43BEF1000F14BF08200020002F0CBFBF
S214002CE0134642F0010343EA0502224302438A6187
S214002CF00B6823F4403343EA06430B60F0BD00BF85
S214002D0000300E401E498B6F1D4ADB07FBD4136C48
S214002D1013F003031CD01B4A0121834211601CD010
S214002D20032B02D1431E012B18D915498A6F144B69
S214002D30D207FBD41A6C22F0030202431A649A6F7D
S214002D40D207FCD400300F4B18BF01201860704724
S214002D500028E7D10B4B18607047704708494FF4BE
S214002D600023CB628A6F064BD207FBD41A6C22F084
S214002D70030242F001021A645A6A1103FCD5D4E732
S214002D8000300E40B40AC64338B5124B4AF6E85235
S214002D909C699D699A60986924F4403410F001009B
S214002DA044F4003445F4403505D11B6C03F00303AE
S214002DB0013B012B0AD9074B9C619D619C619D617B
S214002DC09C619D619C619D619C6138BDFFF79AFF87
S214002DD0F1E700BF00300E402DE9F04FA0F5E164AA
S214002DE089B00023B4F5966F02930393049305937A
S214002DF0069307936CD8B0F5E16F94BF00250125C4
S214002E00002D69D14A4BD3F86831C3F30724DBB2EF
S214002E10079404934FF4167B4FF49669DFF814A1D9
S214002E200191DAF84C60C6F301760446334602A8F0
S214002E3005A990462A46FFF739FDDAF8E070C7F391
S214002E4001273B4603A806A92A46FFF72FFDDDF813
S214002E5010C0079B02980090C9EB0404CCEB030358
S214002E600798DDF814E00699039A03FB04F3B3FB16
S214002E70FBF3634498422BD39C4529D8C2EB010947
S214002E8009FB04F9B9FBFBF99144494520D34A45AF
S214002E901ED80099C1EB0E0202FB04F4B4FBFBFB48
S214002EA08B44DE4514D3594512D8B8F1000F0BD029
S214002EB0DAF85C2022F4FE4222F0020242EA032301
S214002EC043EA4503CAF85C30019B93B9012000E051
S214002ED0002009B0BDE8F08F154BD3F868311C0E02
S214002EE0C3F30743079404934FF4966B4FF4E169DA
S214002EF094E730460021FFF747FD0028E8D0384623
S214002F000121FFF741FD0028E2D00A4A536ED94559
S214002F1038BFD94623F4FF7323F00103B9F1E70F56
S214002F2028BF4FF0E7092B4343EA49035366D0E72F
S214002F30B081E00F00300E403A4B1A6FD96CC907CB
S214002F4030B402F0070241D5012A50D913285BD9C4
S214002F50143813288CBF4FF47F424FF4EE42314CA6
S214002F603148E36C314D23F47F431343E364E16C53
S214002F700288E06CC1F303210131283202EB6202C1
S214002F8001EB8103B2FBF3F3013B072B20F0EE606D
S214002F9028BF072340F4801242EA0363B5F90020F5
S214002FA0E364002A10DB206D28324B0002EB62023D
S214002FB003EB5103B2FBF3F3072B20F0700028BF9E
S214002FC0072340EA0313236530BC7047D96CCD074E
S214002FD005D4012A1BD9DB6C6FF0FF02BFE7DB6C60
S214002FE0DC0701D5012A08D96FF0FF02B7E7DA6CD3
S214002FF0D1070CD5DB6CDB07F6D527288CBF4FF442
S2140030007F424FF4EE42AAE74FF44C52A7E7092856
S214003010FAD90A3809288CBF4FF47F424FF4EE42A3
S2140030209DE700BF00300E40821400207C14002074
S214003030054A064B06491B68136F23F0070318431F
S21400304010670888FFF778BF00300E408009C64337
S2140030507A140020C3884A2B70B5044605D9B3F508
S214003060FA7F4BD24FF0805000E000202C49B4F994
S2140030700C60CA6C2B4D22F0405323F00103002E47
S214003080A8BF43F001030343CB64D1F8E03043F418
S2140030904073C1F8E030CB6E43F08073CB6628688F
S2140030A0002834D1FFF7C4FF1F4B2049204EA088CC
S2140030B02589A2891A8030800D80FFF73DFFA37B0B
S2140030C04BB3012B16D001210A466088FFF784FE19
S2140030D0054668B1124A6078D36B43F48063D363C5
S2140030E0FFF710FEA37A134A003318BF01231360BC
S2140030F0284670BD0A4B104A9A65E4E740F6C310AE
S214003100834294BF4FF000504FF04050AEE704208B
S214003110FFF78EFFC8E7024B084A9A65D3E700BF61
S21400312000300E408009C6437C1400208214002024
S2140031307A1400209407C643372110B777402057EB
S2140031402DE9F047072A9DF820609DF824502AD8DC
S214003150DFF87CA0DFF87C90DFF87C80DFF87CC0AE
S21400316001F0030194004FF00F0E0327A040A1408A
S2140031700EFA04FEA740CAF800E0C9F80000C8F836
S2140031800070CCF800101049104C11448900012042
S21400319000FA02F20B60C1F88060C4F82424C1F87B
S2140031A00053BDE8F087A2F1080401F00301A40073
S2140031B04FF00F0EDFF828A0DFF82890DFF8288001
S2140031C0DFF828C0D1E700BF8020851000A00040AF
S2140031D000A4004400A4004608A4004408A4004636
S2140031E004A4004404A400460CA400440CA4004616
S2140031F0F0B545003AB12E189BBB1C4C3601344442
S21400320001268E4026602C18240104F180440729EC
S21400321004F5204415D84FEA810E67680F2606FA93
S2140032200EF627EA060702FA0EF63E4366603AB93D
S2140032302844C3B90D4B0001034401228A401A609A
S214003240F0BD01F18046083EA768B6004FF00F0EAD
S2140032500EFA06FE27EA0E0702FA06F63E43A660B8
S214003260E5E7034CCAE7024BE5E700BF0CA00044C5
S2140032700CA00046F8B5044600681E4604F1806EB1
S21400328004F1C06320F440704FF4407C37022060A5
S2140032901546CEF800C01F6091B10C4B22689A5DAF
S2140032A023689B07A1EBC50105FB02F2B1FBF2F216
S2140032B002F1FF3202D5002A08BF01222261F8BDC2
S2140032C00348FEF7F9FC0146E7E700BF88C10400A3
S2140032D04041050000F1047040010160704700BFE6
S2140032E0F8B500F10474E4000D46621C49780A4FF4
S2140032F095F80CE0920081F0010100230364C76397
S2140033001160AA68696812B17346FFF7B3FFA4009C
S2140033102B782360F8BD00BFCFFF0700054A064B99
S2140033205168526841F671321A649A6822F00102B6
S2140033309A60704700300E4000000E40034B9A68BB
S214003340002122F001029A601964704700000E40C6
S214003350014B01229A60704700500E40144A154BEC
S21400336070B400205468144E03F148050DE0B2F521
S214003370006F18D0B2F5803F15D0224202D021420D
S21400338008BF10430833AB4210D03268196812F0F9
S214003390040F53F8042CF0D1B2F5806F03D0E6D8B2
S2140033A0B2F5007FE9D141F48071E6E770BC704762
S2140033B000500E4090C10400E841E00F014B186039
S2140033C0704700BF000084422DE9F041857890F8F0
S2140033D00180027983790478C17890F805C090F866
S2140033E007E0077A094E280140EA8800204340EAB1
S2140033F0411141EA022141EA0C3242EAC33242EA72
S2140034000E4343EA47433360BDE8F08100200440A2
S2140034100B4A5169136901F00F01C3F3811343EAA4
S21400342081038370136903F03F0343709169D36986
S21400343001F0F002C3F3031313430370704700BF99
S214003440D0FF0FE070B5044615461E4601B3202E89
S21400345024D01AD9402E16D0602E21D104222368FB
S214003460104823F06003236005FB02F2490123683D
S21400347001EB5201B1FBF2F2203AD20010401E439B
S2140034802660606170BD0622E9E756B91022E6E7BD
S2140034900548FEF711FC202E0146DAD10822DEE7A9
S2140034A070BD70BDF8FF7F004041050038B5054689
S2140034B0144619B90548FEF7FFFB014601396400BA
S2140034C0B1FBF4F10902696138BD00BF4041050057
S2140034D0CB4303F005035B00C360C160704700BFC9
S2140034E0134A1449002330B4904240F6AA6541F2CC
S2140034F00504C5600360446083604361C3648164FF
S21400350043678367C3670AD002F58062904209D09A
S21400351002F58062904202D0836530BC704700237B
S2140035200365F9E7036530BC8365C365704700BF74
S21400353000000140F9FF0100F8B50C460546FFF70C
S214003540CFFFA37C1BB12B6843F080432B60E37C4A
S2140035501BB1237D43F08003AB65278A607BE68939
S2140035606168A268237B3843304368602846FFF7CB
S21400357069FFE27DA37D617D12051B0702F4E00270
S21400358003F0E04313432B6619B12B6843F48033F2
S2140035902B606A6F207E217822F030026A676B6F9C
S2140035A003436B67E960F8BD70B50C460546FFF748
S2140035B097FF238AA67B2A68207DA17C43F001031F
S2140035C0002E9BB243EA020314BF4FF4806200222F
S2140035D013432B602B68002814BF4FF000520022C4
S2140035E013432B6019B1E37C43F08003AB65237B68
S2140035F06168A26843F480536B602846FFF756FF65
S214003600637B0BB11023EB60E27DA37D617D120529
S2140036101B0702F4E00203F0E04313432B6619B1E4
S2140036202B6843F480332B602378EB6070BD00BFBB
S21400363003691B06FCD5C069C0B2704703695A0609
S214003640FCD5416303699B06FCD5C069C0B27047D0
S21400365003695B06FCD54163704700BF03695B06E0
S214003660FCD5C163704700BF2DE9F04F5E4C87B0B4
S21400367024680292002C00F0B280DFF870C19CF83B
S21400368011201AB10A2007B0BDE8F08FDFF860A15C
S214003690BAF806501E46DCF80830294489B2DB0822
S2140036A00191009301FB03F5002E49D0DFF844B1E9
S2140036B0254490460127BAF808409CF81020BAF82E
S2140036C00430241AB44228BF3446012AA6EB040666
S2140036D023D8029900290CBF4FF0FF094FF00009CC
S2140036E0012A04BF6FEA09095FFA89F90344072C27
S2140036F09BB229D81C44B9F1000F4BD1A3420CD27F
S214003700D90803F007006A5C013307FA00F09BB2A1
S21400371022EA00029C426A54F2D8019B43445911A3
S21400372003F01F035BF8212007FA03F31A43009BFC
S2140037304BF821201D4408F101080020002EBAD1C4
S214003740002007B0BDE8F08FD9086A1813F0070309
S21400375003922ED007FA03F2685C083B013AD2B215
S2140037601C44039B104029EA0202024301335FEA2D
S214003770D40E03936A541ED1039907FA04F30A7809
S214003780013BDBB203EA090922EA030343EA090321
S2140037900B70C2E7A342C0D2D90803F00702685CE8
S2140037A0013307FA02F29BB202439C426A54F3D8F2
S2140037B0B3E74FEAD40E039BCDF814C01846724602
S2140037C073444946CDF810E0039342F067FADDF8FB
S2140037D010E0DDF814C0B4EBCE049ED0CCE7012098
S2140037E007B0BDE8F08F00BF8C14002090140020B6
S2140037F0BC140020D8650020044B1B781BB1044B7A
S2140038000360002070470120704700BFC8140020E6
S214003810BC14002070B40E4C247874B10D4C25886E
S2140038208618AE4202DD042070BC70476588CE184C
S214003830AE42F8DC22B90520F6E7012070BC7047DE
S214003840002BF8D0A080E180228163810020EBE786
S214003850C8140020BC140020064A30B41478039D17
S21400386024B11A462B4630BCFFF7FEBE012030BC02
S214003870704700BFC8140020F8B50A4C0A4DA66968
S2140038806168E2682B4607462046B0472B683BB186
S2140038903B60FF211022054842F000FA0020F8BDE8
S2140038A00B20F8BD901400208C140020D865002052
S2140038B0F8B5194D2B780BB10020F8BD00F0E2FBEF
S2140038C000B1F8BD154E314600F0F6FB00B1F8BD6C
S2140038D0134F3846FFF7D0FF0446C8B93B68C3B15C
S2140038E0B6F804E0B7890F4E4FF0010C07FB0EF355
S2140038F001460246A6F800E07780B080F080A6F881
S21400390008E0778185F800C0FFF7AEFE2046F8BDD8
S214003910F8BD0B20DBE700BFC81400209014002081
S2140039208C140020BC1400202DE9F04F2A4FDFF83D
S214003930AC80BA68FB68D8F80040DFF8A49085B081
S21400394000204FEAD20A0122BB46014605460392F2
S2140039509D420AD214F0010211D001304518EA0641
S21400396012D09D424FEA5404F4D320BB1B480021DA
S214003970102242F093F9002005B0BDE8F08F50B950
S21400398001314518EA06ECD1039E3246013258F85A
S21400399026400392DCE77B680190D9F8000000918E
S2140039A03E6A0AFB01010C48B0470028E4D1691CB6
S2140039B0DBF80C30D2E70A4A7B6812680091019067
S2140039C00AFB01213C6A04480022A0470028CDD00B
S2140039D005B0BDE8F08F00BF90140020D865002029
S2140039E08C140020014642698369098A8089013265
S2140039F00133121A5B1A92B29BB2FFF70BBF00BFDD
S214003A000B688A68934201DB04207047F0B44D6867
S214003A10C9688D4202DB0420F0BC7047002B0FDB28
S214003A20002D0DDB06683788BA4209DA7688B1427F
S214003A3006DAC360056142618161F0BCFFF7D2BF60
S214003A400320F0BC704700BF30B587B008B3002233
S214003A506FF07F4342608360044601A8FFF7CCFE08
S214003A60054698B9019B23601A885B880290013A44
S214003A70013B204602A9039504920593FFF7C0FF79
S214003A80054618B92046054900F078F9284607B0DB
S214003A9030BD0525284607B030BD00BFD4C10400A0
S214003AA0F0B130B590E82800044600201A885B88FC
S214003AB0014683B0FFF7AEFE014670B92268EBB24E
S214003AC000935489138903FB04F30193C5F307425B
S214003AD0C5F30723FFF7C0FE0146084603B030BD16
S214003AE005210846704700BF70B5044682B0B8B1DD
S214003AF00C300E46154600F035F810B9012002B01D
S214003B0070BDA3680124DAB20092B0B2C3F30742D4
S214003B10A9B2C3F307230194FFF79EFE02B070BD5F
S214003B20052002B070BD00BFC8B170B50C3082B0C1
S214003B301C460E46154600F015F810B9012002B0D6
S214003B4070BDE2B201238DE80C00B0B2A9B2C4F396
S214003B500742C4F30723FFF77FFE02B070BD0520BF
S214003B60704700BF78B103688B420BDC83689942CC
S214003B7008DC4368934205DCC0688242CCBF002064
S214003B8001207047002070472DE9F04F90F828403C
S214003B9085B0022C9DF8387000F08C80203989B2F0
S214003BA00091048C8C4203DC022005B0BDE8F08F47
S214003BB090F82510C4690394002900F095800293BC
S214003BC0002690F8243001969046814699F82220E7
S214003BD0012A7CD0022A75D1039A009932F8115036
S214003BE0002B7ED0029A019902EB010BDA460024E4
S214003BF007E0002F3BD10134A4B29C424FEA5505A2
S214003C0013D2EA07F5D5484604EB08015246FFF7FB
S214003C106BFF0128C9D800B9013699F82430013461
S214003C20A4B29C424FEA5505EBD3214699F82700EB
S214003C301A188A4209DD029A019D55193FBB0134C4
S214003C40A4B21A1894422146F8DB019899F823206A
S214003C50009C99F82510013080B21444A2B281422B
S214003C6001900092B2D8B6FA86F040099DE7484621
S214003C7008EB04015A46D9F80430FFF755FF01282F
S214003C8093D899F824300028B5D10136B3E74144DB
S214003C9048462A46D9F80430FFF746FF012884D85C
S214003CA099F8243010B199F82700C8E799F827004A
S214003CB00136C4E73A2911D020290CD0303989B210
S214003CC000916EE7039A009932F8215088E7039A2C
S214003CD00099555C84E70B21009162E70A21009168
S214003CE05FE719461C46A1E701205EE72DE9F04F85
S214003CF083B0DDF830809DF834B038B131B190F83B
S214003D0028403CB9022003B0BDE8F08F052003B080
S214003D10BDE8F08F82B3054699460C468F181E46BE
S214003D204FF0000A13E0CDF800B02846324643466E
S214003D30FFF72AFF0128E6D808B90AF1010A95F824
S214003D40242095F8273013441E44BC4210D014F8A3
S214003D50011B0A29A1F1200302D05E2BD2D8E2E78C
S214003D6095F8253095F82620984490444E46ECE782
S214003D70BAFA8AF04009C6E70120C4E738B108B5A8
S214003D801C30102229B141F08BFE002008BD052012
S214003D90704741F083FF052008BD00BF2DE9F04FB6
S214003DA0664B674A186859681C7AD2F8B02089B002
S214003DB005AB03C352071C7040F1B8804FF00008F3
S214003DC060485F4CFDF7CCFE032107465D48D4F8FB
S214003DD09050FEF741FB5C48FDF7BCFED4F8F0308F
S214003DE00390DB0705F0400540F19980002301931E
S214003DF0FEF7F6FC554A136813F00104814673D0AB
S214003E0013685349029340F2FF7600234FF00040B8
S214003E10546A1360536216620126C1F880010023BB
S214003E20082205A88DF816308DF817308DF8182062
S214003E30FFF7CAFA4748454A4FF480530360964650
S214003E4003685B00036063B1916893689942FCD095
S214003E50DEF808100368013BFDD8DEF8083099420A
S214003E60EED00368394ADFF8ECB05B080360D0F8A0
S214003E7000E092464FF0080C5FEA5E0E19D0036829
S214003E804EEA03030360916893689942FCD0DAF81F
S214003E9008100368013BFDD8DAF80830994205D0CF
S214003EA0DBF8003023EA0E03CBF80030BCF1010C3F
S214003EB0E2D14846FEF798FCCEB103992248FEF7B9
S214003EC019F9224B029A1A605C62019BABB9032F68
S214003ED019D1F5B1B8F1000F03D01F480021FDF746
S214003EE08BFD09B0BDE8F08F0294264697E7304672
S214003EF0FFF764FA019B002BE9D013480021FDF779
S214003F007BFD032FE5D039460E48FEF7A5FA002DB7
S214003F10E0D1012029462A46FEF708FADAE70A48E1
S214003F200121FDF769FD0123019361E70A4801219C
S214003F30FDF762FD4FF0010842E700BF04C504002C
S214003F4000400E40050020008009120000200440BA
S214003F5000E100E03800002000250800034608497C
S214003F60002B0CD0013B88221202003253430A6811
S214003F70D80AD20A5043800901D00138FDD87047CC
S214003F803800002070B5224D224E0FCD88B002AC0E
S214003F900FC495E8030084E803001F480121FDF7DD
S214003FA02BFD1E480121FDF727FD01241C4B049321
S214003FB0304602A98DF81640FFF7F6FA234602208F
S214003FC006210422FFF714F92246022007210023C7
S214003FD0FFF70EF92346022008210422FFF708F90E
S214003FE0042123460A460020FFF702F90D4BB3676B
S214003FF00B2249F23D6372670193019B002B05DD9E
S214004000019B013B0193019B002BF9DC08B070BDBE
S21400401010C50400000401400035080000420400FA
S21400402000127A000B0B000B38B5134B10221A60E7
S21400403014241248FF21FFF701FB013CF9D1104B75
S21400404010221A601E240D48FF21FFF7F7FA013CE4
S214004050F9D105240948FF21FFF7F0FA013CF9D110
S214004060054B064810251D60B921FFF7E7FA044BFB
S21400407020461D6038BD00BF0CA00044000401406F
S2140040800CA000460A4A13786BB910B5094C236891
S214004090012111701BB908E054F8043F2BB1984772
S2140040A00028F9D010BD00207047002010BD00BFCA
S2140040B0FC1400203C000020094B1B780BB9094873
S2140040C07047002801DD0848704710B5074C0346C6
S2140040D02C22084602FB034141F0E2FC002010BD02
S2140040E0FC1400200500118002001180D01400206E
S2140040F00B4B1B780BB90B48704710B50A4C23685E
S214004100002B01DD094810BD014609482C2202FBA0
S21400411003000133236041F0C3FC002010BD00BF44
S214004120FC14002005001180CC1400200100118032
S214004130D0140020802901D0094870470949086832
S21400414010B4094C00EB0212A24205D9002207481F
S2140041501A605DF8044B704718600A600020F8E7A4
S2140041600200118044000020001D00200100118084
S214004170004870470400118008B500F033F900F0DD
S214004180E9F8002008BD00BF70B51E4653B10C46C6
S21400419000252046102201350021144441F07EFD02
S2140041A0B542F6D1002070BD2DE9F04782B00C462E
S2140041B00A9D0B9F0E210320013500F043F9ADB296
S2140041C0062000F015F902AE2B0243F0010326F894
S2140041D0023D0221304600F0E5F807B3013507F14D
S2140041E0FF384FF0000A4FF6FF79102120460C44A6
S2140041F000F0D8F8D04505EB0A031CBF1B0243F0BD
S214004200FF034FF002010AF1010A30460CBFADF879
S2140042100690ADF8063000F0C5F8BA45E5D10220A4
S21400422000F0E6F80E21032000F01AF9002002B094
S214004230BDE8F08708B50D21032000F01FF9002027
S21400424008BD00BF08B5032021B90F2100F008F90A
S214004250002008BD0F2100F0F5F8002008BD00BFC3
S214004260F0B58DB000F0BEF800F074F800F0D2F8AB
S214004270002213460821022000F0D6F8002213463A
S2140042800621022000F0D0F8002213460E2103205B
S21400429000F0CAF8002213460F21032000F0C4F8ED
S2140042A0002213460D21032000F0BEF8214800210D
S2140042B0802200F0A3F808B10DB0F0BD8023DFF82F
S2140042C090C01D4C1D491E4A8DF815004FF0010E7A
S2140042D01C4F1D4E1D4D099401A8CDF804C08DF845
S2140042E014E00293049303930697079608950A91A1
S2140042F00B92FFF7FDFE04460028DDD10F210320B8
S21400430000F0A0F80E21032000F09CF8062000F034
S2140043106FF80CA8042320F82E3D022100F042F886
S214004320022000F065F80E21032000F099F82046E0
S2140043300DB0F0BD35420000A941000089410000E3
S21400434079410000454200003541000071410000FF
S21400435028C5040070B50F4D0F4E0FCD86B06C46C5
S2140043600FC495E8030084E803000C480121FDF71C
S21400437043FB30460A4B02936946FFF715F90A23BA
S2140043807367B36F23F01F2343F00B230020B3673C
S21400439006B070BD40C504000004014000420400A1
S2140043A0E067350038B505460C465CB1012C0C4874
S2140043B001D0EA070CD5013C15F8011BFFF748F9B8
S2140043C0002CF3D1064A13699B06FCD5002038BDA5
S2140043D0034835F8021BFFF741F9023CE5E700BF4A
S2140043E00004014008B5FFF7D9FC002008BD00BF57
S2140043F008B5FFF7B3FD002008BD00BF08B5FCF701
S21400440035FB034B002814BF1846002008BD00BF2C
S2140044100200138008B503480121FDF7EDFA0020DD
S21400442008BD00BF0035080010B514460AB10448A0
S21400443010BDC0B20422FEF7DBFE204610BD00BF52
S21400444001001380C0B200EB4000044B000103449F
S21400445001228A401A600020704700BF0CA0004668
S214004460C0B200EB4000044B0001034401228A4026
S2140044701A600020704700BF0CA00044C0B200EBDA
S2140044804000000100F1804000F5204001238B40F1
S21400449083610020704700BF00207047FEE700BF22
S2140044A04FF400534B600020704700BF0120704758
S2140044B00020704770B5164682B10D46002404E011
S2140044C00134A64205F8010B06D000F0B7F8431CED
S2140044D0F6D11CB1204670BD304670BD4FF0FF309F
S2140044E070BD00BF044A05491368002B08BF0B4681
S2140044F01844106018467047001D0020B86C002055
S21400450070B5161E07DD0C468D1914F8010B00F069
S214004510C1F8AC42F9D1304670BD00BF104838B57E
S21400452003691B0600D438BD0E4C2568FFF780F8DB
S2140045300D4A0E4B50552268013222601A6801322D
S2140045401A602268082A04BF002222601B68074AF5
S214004550082BE8DD06490023236013600B6038BD96
S21400456000000140141D0020081D00201C1D002016
S214004570181D002070B52948294D2A4E88B0012103
S214004580FDF73AFA28480121FDF736FA00200146E1
S21400459004220123FEF72CFE0020012103460A46D2
S2140045A0FEF726FE0FCD01AC0FC495E807000123E9
S2140045B084E80700042200200521FEF719FE1B48A8
S2140045C00121FDF719FA08A9002401F81C4D304610
S2140045D0FEF7B2FF03237367B36F154A23F4F8534D
S2140045E004204FF4805123F01F03B367B064C2F871
S2140045F08011F36C0343F364304611600521FEF727
S21400460067FF0C4B1B68214698680222234641F040
S214004610BDFB094B01221A7008B070BD4041050071
S21400462058C50400000001400035080000320400B0
S21400463000E100E090090020101D0020114B1B78BF
S21400464010B5CBB1FEF7CCF80F4A1368002B16DD79
S2140046500E4B0F4C1968645C1968013119601968B3
S214004660082904BF002119601368013BE4B21360F7
S214004670FEF7BAF8204610BDFFF77CFFE2E74FF0E2
S214004680FF34F5E7101D00201C1D0020181D00201B
S214004690081D002038B5124B1B78044673B1114D27
S2140046A011482B780BB10A2C11D02146FEF7D0FF0B
S2140046B02B780BB10D2C04D0204638BDFFF75AFFDF
S2140046C0EDE709480A21FEF7C3FF204638BD0D2155
S2140046D0FEF7BEFF04482146FEF7BAFFECE700BF30
S2140046E0101D0020041D002000000140F0B5214BE5
S2140046F089B0186859689A68DB6804AC0FC44FF034
S214004700010E0024C8212022A0234FF4E1670F26C3
S2140047100A2504A88DF811E0ADF818108DF81A20B7
S214004720ADF81C308DF81040ADF81270ADF814607E
S214004730ADF81650FEF78EFC08A800F8204DFEF7E0
S2140047409DFA022301A88DF805308DF80440FEF787
S2140047509FFA02A88DF808408DF809408DF80A40A7
S2140047608DF80B408DF80C408DF80D40FEF79CFA46
S21400477009B0F0BD74C5040070B5394E354686B034
S21400478055F8100FEB686968AA682D8A01AC0FC44B
S21400479001A82580FDF7BEFF3248FCF7C7FD0121C2
S2140047A00A460220FDF7C2FD01210A460020FDF759
S2140047B049FD00210A460320FDF7B8FD01212A48DD
S2140047C0FDF71AF9706A0090202368468DF80030CD
S2140047D0FDF7DEFF01210A460020FDF7A7FD4FF496
S2140047E00040FCF7CBFD21480221FDF735FE2048AE
S2140047F00221FDF731FE1F480221FDF72DFE1E485F
S2140048000121FDF7F9F81D480121FDF7F5F81C48D0
S2140048100121FDF7F1F81B480121FDF7EDF81A48D4
S2140048200121FDF7E9F8194B1A6822F01F021A60F9
S2140048301A6822F478721A60D3F8702122F0805237
S214004840C3F87021D3F8702122F00102C3F870215A
S214004850D3F8702122F00202C3F8702106B070BDB2
S21400486074C5040000F049020025080002001A0082
S21400487003001C0005002000006508000055080025
S21400488000450800800912000035080000400E4070
S21400489030B5104B53F8280F85B059681D7A01AA19
S2140048A003C200230521012401A815708DF80440D9
S2140048B08DF805308DF806308DF807308DF8093004
S2140048C08DF80A308DF80B308DF80810FEF77CFD59
S2140048D005B030BD74C50400104A1149F8B5136818
S2140048E0DFF854E00F4E104C104F114D43F4807318
S2140048F04FF4167C4FF4F0701360CEF800C03760AB
S21400490025600860FFF7F2FEFFF736FFFFF7C0FFEF
S214004910084B5A6B5A639A6B9A63F8BD00000E40B8
S21400492094420E4090420E40FC420E404A5D050006
S21400493028E2160000600E408C420E40204BF0B578
S2140049400FCB85B08DE80F001E480121FDF754F807
S2140049501D480121FDF750F802200A2108220123F4
S214004960FEF746FC02200B2108220123FEF740FC3E
S214004970164B002241F2883001274FF4616603256A
S2140049808DF80C2001928DF8002002908DF80170B1
S21400499018469E6469465D64FEF7A2FC0C480D4905
S2140049A009234FF48062013B02600A60FBD1074B8B
S2140049B09A68D20744BF20225A6005B0F0BD00BFF7
S2140049C0A8C50400404105000062040000C0004085
S2140049D06CA000446CA000461F4B5A6842F48072DC
S2140049E030B45A605A6842F480325A605A684000BE
S2140049F042F0080201255A601C46D8625D60636B6F
S214004A00154A5B06FBD54023D3631446D162636B1D
S214004A10114A5D06FBD5402140F001000123D16319
S214004A2053601146D0624A6B0B4B5006FBD54022B2
S214004A30DA635A6B08499206FBD54023C869CB63F4
S214004A404B6843F004034B604B6843F00203C0B26C
S214004A504B6030BC704700BF00C00040104B30B405
S214004A6040000125D8621C465D60636B0C485D06FD
S214004A70FBD54023C3630446C162636B08495806EE
S214004A80FBD54023CB630846CA62436B044A5B06E9
S214004A90FBD540210223D16330BC5360704700BF72
S214004AA000C0004008B5392080210222FFF7D6FF5B
S214004AB0392080210322BDE80840FFF7CFBF00BFA2
S214004AC02DE9F843AC213920FFF786FFAD210446D7
S214004AD03920FFF781FFAE2104EB00243920FFF7D1
S214004AE07BFFAF2105463920FFF776FF05EB002553
S214004AF028463FF0C9FE064620460F463FF0C4FE55
S214004B0002460B463046394640F05EF80022002347
S214004B1006460F462D01240140F0BCF938B1304658
S214004B2039460022644B40F0A1F9002870D1304687
S214004B3039460022604B40F0ADF940B13046394668
S214004B4045A3D3E9002340F091F900283ED1304632
S214004B50394641A3D3E9002340F09CF940B13046E2
S214004B6039463FA3D3E9002340F080F900283ED120
S214004B70304639463AA3D3E9002340F08BF908B310
S214004B803046394638A3D3E9002340F06FF9C8B160
S214004B9020463FF079FE36A3D3E900233FF0EAFE35
S214004BA0064628460F463FF06FFE33A3D3E90023A0
S214004BB03FF0E0FE02460B46304639463FF026FD03
S214004BC0BDE8F88300200021BDE8F88320463FF0CA
S214004BD05BFE2BA3D3E900233FF0CCFE0646284617
S214004BE00F463FF051FE28A3D3E90023E0E7204616
S214004BF03FF04AFE26A3D3E900233FF0BBFE06465D
S214004C0028460F463FF040FE23A3D3E90023CFE714
S214004C1020463FF039FE22A3D3E9002304460D4682
S214004C203046394600F004FB1FA3D3E90023804634
S214004C308946204629463FF09DFE1DA3D3E9002362
S214004C4006460F46204629463FF094FE42464B460F
S214004C50AEE700BFAFF3008085EB51B81E85E33F9B
S214004C609A9999999999E93FCDCCCCCCCCCCF43F84
S214004C70B2632310AFEB573FD2FBC6D79E59523FC5
S214004C80C7BAB88D06F0963F5839B4C876BE9F3F6F
S214004C902D431CEBE2368A3F4BC8073D9B558F3FA2
S214004CA0666666666666F63FC58F31772D219F3F3E
S214004CB05839B4C876BEAF3F0000E03F72B6054B29
S214004CC0DA68920704D5044A02200121586111705F
S214004CD062B6704700800140201D002010B5094BC9
S214004CE004460FCB84B00DF1100E0EE90F00A30999
S214004CF00EEB830304F03F0453F8100C00FB04F0A3
S214004D0004B010BDB8C5040010B4832945D8DFE848
S214004D1001F05961496849495454547754545454DD
S214004D20544444444444444444444444444444442E
S214004D30444444444444444444444444444444442E
S214004D40444444444444444444444444444444441E
S214004D50444444444444444444444444444444440E
S214004D6044444444444444444444444444444444FE
S214004D7044444444444444444444444444444444EE
S214004D8044444444444444444444444444444444DE
S214004D90444449494942042B36D04FF4C0705DF86C
S214004DA0044B7047022BF8D101705178137843EA10
S214004DB00123A0F801300020F1E740F283105DF8EF
S214004DC0044B7047012BE8D1002303701278427021
S214004DD01846E4E7012BE0D10370137843700020F7
S214004DE0DDE7042BD9D10323037093785478117828
S214004DF01A0442EA04230B43A0F801300020CEE751
S214004E00012BCAD10923E7E783230370517813786F
S214004E1043EA0123A0F80130D178937843EA0123CE
S214004E20A0F803300020BAE710B50478852C51D8D6
S214004E30DFE804F0434982525252524952525252CB
S214004E405252525252525050505050505050505051
S214004E50505050505050505050505050505050504D
S214004E60505050505050505050505050505050503D
S214004E70505050505050505050505050505050502D
S214004E80505050505050505050505050505050501D
S214004E90505050505050505050505050505050500D
S214004EA050505050505050505050505050505050FD
S214004EB05050505055556565714621B1012B4CD860
S214004EC04FF4C07010BD002BFAD043781370012346
S214004ED0029A1360002010BD40F2831010BD002916
S214004EE041D0032BECD9B0F8013013701B0A537075
S214004EF0B1F8013093701B0AD3700423E8E7012B46
S214004F00DED9B0F8013013701B0A5370029B0221E1
S214004F100020196010BD032BD2D9B0F801301370F1
S214004F201B0A5370B0F8033093701B0AD370029BB1
S214004F3004210020196010BDF1B1032BC0D9B0F9CF
S214004F400130137043F307235370B1F901309370A7
S214004F5043F30723D3700423BAE7437813704B78E0
S214004F6053700223B4E7012BAAD9B0F801301370AE
S214004F701B0A53700223ABE7012BA1D9B0F901300D
S214004F80137043F3072353700223A1E738B50E4C82
S214004F900E4B206019600AB9104638BD02EB420479
S214004FA0A4000346204615469847094A106038B1C3
S214004FB02246002140F072FE064B00201D6038BDE0
S214004FC04FF4C17038BD00BF2C1D0020301D0020DE
S214004FD0241D0020281D0020F0B51A4C27686FB34A
S214004FE0194CD4F800E00025744603E0BD4204F1F5
S214004FF00C040AD02688864205F10105F6D166889B
S2140050008E42F3D140F28110F0BDDEF800405CB174
S2140050100EF10C0500240134BC42AE460ED0DEF87C
S21400502000600C35002EF6D1CEF80420CEF80830FD
S214005030AEF80000AEF802100020F0BD4FF4C170CC
S214005040F0BD00BF281D0020241D002070B103689D
S214005050214A23F47F4323F00703934207D002F14B
S2140050608072934202D100231B88FFDE704770B522
S2140050701A4B85881968C6888CB0B9B1184B1C685D
S214005080002304E001338B4204F10C040ED0228886
S214005090AA42F7D16288B242F4D1054605F1180259
S2140050A007A8A97DEB7DFFF72FFE08B10CB070BDF9
S2140050B0AE89A888E9882A896B89009607AE01968A
S2140050C0D5F80E6002966E8A0396AD8AEDB2049508
S2140050D06468A047EAE700BFA0001F00281D002064
S2140050E0241D00202DE9F04F87B002AC8246894689
S2140050F090461F461098009403AA11999DF84C609C
S2140051000A23FFF791FE10B107B0BDE8F08F194BE8
S2140051109DF80850184AD3F800B0109B14681B7806
S214005120F02D08D94FF4C5732BF8043FBBF80000E8
S21400513007B0BDE8F08F129AE260A37403A92A466E
S214005140A4F804A0A4F80690A4F808806781268234
S214005150E57404F1140040F0A3FC2802214600F593
S214005160F81000F5815041F8040B02F0F1FE0BF147
S214005170040BDBE7001E0020FC1D00202DE9F0419B
S21400518086B002AD14460F46804619461046009576
S21400519003AA0A23FFF748FE10B106B0BDE8F08167
S2140051A09DF80860134A144B21781D681468F62E83
S2140051B008D92B464FF4C57223F8042F188806B07A
S2140051C0BDE8F0810C9BA36032462173667303A989
S2140051D0A4F80480E78004F10E0040F061FC074864
S2140051E021463602304441F8040B02F0B1FE2B1D76
S2140051F01888E4E7FC1D0020001E0020200A1F017E
S214005200084B1B6870B51C46074E084D9880D98021
S21400521036681A7244F8045B2846214602F098FE67
S214005220B08870BDFC1D0020001E002020051F0257
S2140052302DE9F04FDFF8ECA28BB01F46804689467A
S214005240164600F071F99AF90030013304460D460F
S21400525004D03046394600F081FF20B92046294662
S2140052600BB0BDE8F08F4046494600F077FF834616
S21400527060BB30463946002200233FF0E3FD00289D
S214005280ECD0A14A9AF90030A04DCDF820B001210B
S21400529000248DE806005A1CCDE90289CDE9046792
S2140052A0CDE906450DD0022B0BD0684600F082FFF4
S2140052B0002800F09380089B1BB140F0DFF8089BA5
S2140052C00360DDE906010BB0BDE8F08F40464946B5
S2140052D0002200233FF0B6FDF8B1304639460022E2
S2140052E000233FF0AFFD834600284ED09FED847B21
S2140052F0854A9AF90030019201210022CDE90289FF
S214005300CDE904678DED067B00910892002BCCD08A
S2140053107E4B0022CDE90623D3E72046294600F03F
S21400532017FF834600285ED0204629460022002329
S2140053303FF088FD002891D04046494600F008FF1F
S21400534000288BD03046394600F002FF002885D072
S2140053509AF900306C4A01929FED697B0421002285
S214005360022BCDE90289CDE904678DED067B00911D
S214005370089200F08880684600F01CFF002800F0C5
S2140053808280089B002B9CD097E73046394600F079
S214005390DFFE00283FF462AF304639460022002385
S2140053A03FF05AFD00283FF459AF574A9AF80030AC
S2140053B0CDF820B00121CDE90289CDE904678DE85A
S2140053C00600002B3CD052490020022BCDE90601F6
S2140053D030D140F053F821230360D2E740F04EF876
S2140053E02123036067E74046494600F0B1FE0028E7
S2140053F09AD03046394600F0ABFE002894D02046BE
S214005400294600F0ABFE00BB3F4B9AF800400890E0
S2140054100122CDE90289CDE904678DE80C007CB154
S2140054200020002102460B463FF0CEFB022CCDE9C1
S2140054300601CED0684600F0BDFE0028A1D1C8E720
S2140054409FED2F7B8DED067BF4E72F4A9AF900300F
S214005450CDF820B00321CDE90289CDE904678DE8B7
S2140054600600ABB92B4D4FF060444046494600223B
S2140054700023CDE906453FF0EFFC50BB9AF900301B
S214005480022B7FF478AF3FF0F9FF2223036078E722
S214005490214D00244046494600220023CDE906451A
S2140054A03FF0DAFC0028E9D000221C4B3046394693
S2140054B03FF060FA04460D4600F084FE22462B4676
S2140054C03FF0C0FC0028D9D1114B0022CDE90623BD
S2140054D0D4E70022114B304639463FF04BFA0446DB
S2140054E00D4600F06FFE22462B463FF0ABFC002830
S2140054F0C4D10B4B4FF06042CDE90623BEE700BF98
S2140055000000000000000000C8C504000000F03FD6
S2140055100000F0FFFFFFEF470000F07F0000E03FD5
S214005520FFFFEFC7480000202DE9F04F23F00047AB
S2140055308B4657EA02011D469C4691B01446134618
S21400554035D06B492BF000468E4282460246D9463D
S21400555026DC24D08F4223DC65498F4200F082800F
S214005560B9F1000FC0F282804FF0000873BB604BA9
S2140055709F4200F098805F4B9F426CD0BCF1804FFA
S21400558000F0DC835C4B9C4520D1B9F1000F1DDB9D
S2140055905046594611B0BDE8F04F00F011BD58B165
S2140055A006F1404606F5801656EA020306D1514932
S2140055B0002011B0BDE8F08FB742CDDD4F4811B0E6
S2140055C0BDE8F04F00F0F8BD4FF0000850465946D1
S2140055D00292CDF800C000F0B7FD029ADDF800C0D8
S2140055E0D2B926B1434B29F040429A4214D1BCF1BD
S2140055F0000FC0F2DA83B9F1000FDADA06F140469E
S21400560006F5801658EA060361D0B8F1010FD0D12E
S21400561001F1004B5946CCE74FEAD97909F1FF3939
S21400562058EA090351D0364B9F426FDD03F10473ED
S2140056309F4240F3FB83334B9E4240F37883BCF19A
S214005640000F40F3788328A1D1E9000102460B46FB
S2140056503FF090F9ADE7BCF1000FC0F2528450461F
S2140056605946A6E7002B3FF47BAF99E726498F42C1
S21400567036DCA1F154718F427FF776AF391540F2D0
S2140056801340814240F35384C1F58661033123FA07
S21400569001F000FA01F199427FF466AF00F00100D4
S2140056A0C0F1020862E706F1404303F58013134396
S2140056B03FF47DAF134B9E4240F37083BCF1000F66
S2140056C0C0F239832046294673E7504659460246BB
S2140056D00B463EF09BFF02460B463FF075FA68E726
S2140056E04FF0020842E700BF9C7500883CE4377E16
S2140056F00000F07F0000F03F0000E03FCCBC04005C
S2140057000000E041FFFFEF3FFFFF3F43B6F5801F7D
S21400571080F2F5830022CE4B3FF02CF96FF0340771
S2140057200E463315DFF844E3C6F31302A3F2FF3345
S21400573042F07F563B4472450E9346F4401640F3C3
S214005740DB83C44B9A4240F30A840E9B0027013346
S2140057500E93A6F58016BC46BF4B4FEACC0C6344AE
S21400576093ED007B314653EC172BCDF83CC08DED06
S214005770067B82463EF04AFFB346DDE90623CDE9C6
S214005780080150463146CDE90AAB3EF041FF0246DD
S2140057900B460020B1493FF017FA02460B46DDE9FA
S2140057A00801CDE90C233FF0E5F8731043F00053F1
S2140057B003F5002382468B46D9190023CDE902ABB8
S2140057C002939DED027B002006460F4602460B46DE
S2140057D051EC170B8DED007BCDE904AB3FF0CAF81A
S2140057E002460B46DDE908013EF010FFDDE9062320
S2140057F082468B46304639463EF008FF02460B4648
S214005800DDE90A013EF002FF02460B46DDE9000133
S2140058103FF0B0F802460B46504659463EF0F6FEBC
S214005820DDE90C233FF0A6F8DDE90423CDE9060107
S214005830104619463FF09EF802460B4606460F46AF
S2140058403FF098F870A3D3E9002382468B46304693
S21400585039463FF08FF86EA3D3E900233EF0D8FE1A
S21400586032463B463FF086F86BA3D3E900233EF072
S214005870CFFE32463B463FF07DF869A3D3E90023CE
S2140058803EF0C6FE32463B463FF074F866A3D3E9C8
S21400589000233EF0BDFE32463B463FF06BF864A365
S2140058A0D3E900233EF0B4FE02460B465046594666
S2140058B03FF060F8DDE9042306460F46DDE9000107
